{
  "address": "0xc8EEf5A5FC20209c3dF1Df119C2444C551a254BC",
  "abi": [
    {
      "inputs": [],
      "payable": false,
      "stateMutability": "nonpayable",
      "type": "constructor"
    },
    {
      "anonymous": false,
      "inputs": [
        {
          "indexed": false,
          "internalType": "uint256",
          "name": "error",
          "type": "uint256"
        },
        {
          "indexed": false,
          "internalType": "uint256",
          "name": "info",
          "type": "uint256"
        },
        {
          "indexed": false,
          "internalType": "uint256",
          "name": "detail",
          "type": "uint256"
        }
      ],
      "name": "Failure",
      "type": "event"
    },
    {
      "anonymous": false,
      "inputs": [
        {
          "indexed": false,
          "internalType": "address",
          "name": "oldAdmin",
          "type": "address"
        },
        {
          "indexed": false,
          "internalType": "address",
          "name": "newAdmin",
          "type": "address"
        }
      ],
      "name": "NewAdmin",
      "type": "event"
    },
    {
      "anonymous": false,
      "inputs": [
        {
          "indexed": false,
          "internalType": "address",
          "name": "oldImplementation",
          "type": "address"
        },
        {
          "indexed": false,
          "internalType": "address",
          "name": "newImplementation",
          "type": "address"
        }
      ],
      "name": "NewImplementation",
      "type": "event"
    },
    {
      "anonymous": false,
      "inputs": [
        {
          "indexed": false,
          "internalType": "address",
          "name": "oldPendingAdmin",
          "type": "address"
        },
        {
          "indexed": false,
          "internalType": "address",
          "name": "newPendingAdmin",
          "type": "address"
        }
      ],
      "name": "NewPendingAdmin",
      "type": "event"
    },
    {
      "anonymous": false,
      "inputs": [
        {
          "indexed": false,
          "internalType": "address",
          "name": "oldPendingImplementation",
          "type": "address"
        },
        {
          "indexed": false,
          "internalType": "address",
          "name": "newPendingImplementation",
          "type": "address"
        }
      ],
      "name": "NewPendingImplementation",
      "type": "event"
    },
    {
      "payable": true,
      "stateMutability": "payable",
      "type": "fallback"
    },
    {
      "constant": false,
      "inputs": [],
      "name": "_acceptAdmin",
      "outputs": [
        {
          "internalType": "uint256",
          "name": "",
          "type": "uint256"
        }
      ],
      "payable": false,
      "stateMutability": "nonpayable",
      "type": "function"
    },
    {
      "constant": false,
      "inputs": [],
      "name": "_acceptImplementation",
      "outputs": [
        {
          "internalType": "uint256",
          "name": "",
          "type": "uint256"
        }
      ],
      "payable": false,
      "stateMutability": "nonpayable",
      "type": "function"
    },
    {
      "constant": false,
      "inputs": [
        {
          "internalType": "address",
          "name": "newPendingAdmin",
          "type": "address"
        }
      ],
      "name": "_setPendingAdmin",
      "outputs": [
        {
          "internalType": "uint256",
          "name": "",
          "type": "uint256"
        }
      ],
      "payable": false,
      "stateMutability": "nonpayable",
      "type": "function"
    },
    {
      "constant": false,
      "inputs": [
        {
          "internalType": "address",
          "name": "newPendingImplementation",
          "type": "address"
        }
      ],
      "name": "_setPendingImplementation",
      "outputs": [
        {
          "internalType": "uint256",
          "name": "",
          "type": "uint256"
        }
      ],
      "payable": false,
      "stateMutability": "nonpayable",
      "type": "function"
    },
    {
      "constant": true,
      "inputs": [],
      "name": "admin",
      "outputs": [
        {
          "internalType": "address",
          "name": "",
          "type": "address"
        }
      ],
      "payable": false,
      "stateMutability": "view",
      "type": "function"
    },
    {
      "constant": true,
      "inputs": [],
      "name": "implementation",
      "outputs": [
        {
          "internalType": "address",
          "name": "",
          "type": "address"
        }
      ],
      "payable": false,
      "stateMutability": "view",
      "type": "function"
    },
    {
      "constant": true,
      "inputs": [],
      "name": "pendingAdmin",
      "outputs": [
        {
          "internalType": "address",
          "name": "",
          "type": "address"
        }
      ],
      "payable": false,
      "stateMutability": "view",
      "type": "function"
    },
    {
      "constant": true,
      "inputs": [],
      "name": "pendingECLVaultImplementation",
      "outputs": [
        {
          "internalType": "address",
          "name": "",
          "type": "address"
        }
      ],
      "payable": false,
      "stateMutability": "view",
      "type": "function"
    }
  ],
  "transactionHash": "0x6a5a5be559fce19d217b5c6161b2e9544b455a6899bf4c0c4d39286824686fac",
  "args": [],
  "numDeployments": 1,
  "solcInputHash": "02097ebff6013d29a1d80319968464e6",
  "bytecode": "0x608060405234801561001057600080fd5b50600080546001600160a01b031916331790556105c3806100326000396000f3fe60806040526004361061007b5760003560e01c8063c1e803341161004e578063c1e803341461019e578063e992a041146101b3578063e9c714f2146101e6578063f851a440146101fb5761007b565b806326782247146100fe5780635c60da1b1461012f57806365c6a3d414610144578063b71d1a0c14610159575b6002546040516000916001600160a01b031690829036908083838082843760405192019450600093509091505080830381855af49150503d80600081146100de576040519150601f19603f3d011682016040523d82523d6000602084013e6100e3565b606091505b505090506040513d6000823e8180156100fa573d82f35b3d82fd5b34801561010a57600080fd5b50610113610210565b604080516001600160a01b039092168252519081900360200190f35b34801561013b57600080fd5b5061011361021f565b34801561015057600080fd5b5061011361022e565b34801561016557600080fd5b5061018c6004803603602081101561017c57600080fd5b50356001600160a01b031661023d565b60408051918252519081900360200190f35b3480156101aa57600080fd5b5061018c6102ce565b3480156101bf57600080fd5b5061018c600480360360208110156101d657600080fd5b50356001600160a01b03166103b3565b3480156101f257600080fd5b5061018c610437565b34801561020757600080fd5b50610113610512565b6001546001600160a01b031681565b6002546001600160a01b031681565b6003546001600160a01b031681565b600080546001600160a01b031633146102635761025c60016002610521565b90506102c9565b600180546001600160a01b038481166001600160a01b0319831681179093556040805191909216808252602082019390935281517fca4f2f25d0898edd99413412fb94012f9e54ec8142f9b093e7720646a95b16a9929181900390910190a160005b9150505b919050565b6003546000906001600160a01b031633146102f5576102ee600180610521565b90506103b0565b60028054600380546001600160a01b038082166001600160a01b031980861682179687905590921690925560408051938316808552949092166020840152815190927fd604de94d45953f9138079ec1b82d533cb2160c906d1076d1f7ed54befbca97a92908290030190a1600354604080516001600160a01b038085168252909216602083015280517fe945ccee5d701fc83f9b8aa8ca94ea4219ec1fcbd4f4cab4f0ea57c5c3e1d8159281900390910190a160005b925050505b90565b600080546001600160a01b031633146103d25761025c60016003610521565b600380546001600160a01b038481166001600160a01b0319831617928390556040805192821680845293909116602083015280517fe945ccee5d701fc83f9b8aa8ca94ea4219ec1fcbd4f4cab4f0ea57c5c3e1d8159281900390910190a160006102c5565b6001546000906001600160a01b03163314610458576102ee60016000610521565b60008054600180546001600160a01b038082166001600160a01b031980861682179687905590921690925560408051938316808552949092166020840152815190927ff9ffabca9c8276e99321725bcb43fb076a6c66a54b7f21c4e8146d8519b417dc92908290030190a1600154604080516001600160a01b038085168252909216602083015280517fca4f2f25d0898edd99413412fb94012f9e54ec8142f9b093e7720646a95b16a99281900390910190a160006103ab565b6000546001600160a01b031681565b60007f45b96fe442630264581b197e84bbada861235052c5a1aadfff9ea4e40a969aa083600181111561055057fe5b83600381111561055c57fe5b604080519283526020830191909152600082820152519081900360600190a182600181111561058757fe5b939250505056fea265627a7a7231582004ea93117a0a37ddc4af97288a2e74bd77bc5e754e4cade291c69ccee5a2329264736f6c63430005100032",
  "devdoc": {
    "author": "Venus",
    "methods": {
      "_acceptAdmin()": {
        "details": "Admin function for pending admin to accept role and update admin",
        "return": "uint 0=success, otherwise a failure (see ErrorReporter.sol for details)"
      },
      "_acceptImplementation()": {
        "details": "Admin function for new implementation to accept it's role as implementation",
        "return": "uint 0=success, otherwise a failure (see ErrorReporter.sol for details)"
      },
      "_setPendingAdmin(address)": {
        "details": "Admin function to begin change of admin. The newPendingAdmin must call `_acceptAdmin` to finalize the transfer.",
        "params": {
          "newPendingAdmin": "New pending admin."
        },
        "return": "uint 0=success, otherwise a failure (see ErrorReporter.sol for details)"
      }
    },
    "title": "ECL Vault Proxy"
  },
  "userdoc": {
    "methods": {
      "_acceptAdmin()": {
        "notice": "Accepts transfer of admin rights. msg.sender must be pendingAdmin"
      },
      "_acceptImplementation()": {
        "notice": "Accepts new implementation of ECL Vault. msg.sender must be pendingImplementation"
      },
      "_setPendingAdmin(address)": {
        "notice": "Begins transfer of admin rights. The newPendingAdmin must call `_acceptAdmin` to finalize the transfer."
      },
      "_setPendingImplementation(address)": {
        "notice": "* Admin Functions **"
      }
    },
    "notice": "ECL Vault Proxy contract"
  },
  "storageLayout": {
    "storage": [
      {
        "astId": 585,
        "contract": "contracts/ECLVault/ECLVaultProxy.sol:ECLVaultProxy",
        "label": "admin",
        "offset": 0,
        "slot": "0",
        "type": "t_address"
      },
      {
        "astId": 587,
        "contract": "contracts/ECLVault/ECLVaultProxy.sol:ECLVaultProxy",
        "label": "pendingAdmin",
        "offset": 0,
        "slot": "1",
        "type": "t_address"
      },
      {
        "astId": 589,
        "contract": "contracts/ECLVault/ECLVaultProxy.sol:ECLVaultProxy",
        "label": "implementation",
        "offset": 0,
        "slot": "2",
        "type": "t_address"
      },
      {
        "astId": 591,
        "contract": "contracts/ECLVault/ECLVaultProxy.sol:ECLVaultProxy",
        "label": "pendingECLVaultImplementation",
        "offset": 0,
        "slot": "3",
        "type": "t_address"
      }
    ],
    "types": {
      "t_address": {
        "encoding": "inplace",
        "label": "address",
        "numberOfBytes": "20"
      }
    }
  }
}