{
  "address": "0xc1Ef5a6c75A819525817DE999C8bd74C0840E2d9",
  "abi": [
    {
      "inputs": [],
      "payable": false,
      "stateMutability": "nonpayable",
      "type": "constructor"
    },
    {
      "anonymous": false,
      "inputs": [
        {
          "indexed": true,
          "internalType": "address",
          "name": "user",
          "type": "address"
        },
        {
          "indexed": true,
          "internalType": "address",
          "name": "rewardToken",
          "type": "address"
        },
        {
          "indexed": true,
          "internalType": "uint256",
          "name": "pid",
          "type": "uint256"
        },
        {
          "indexed": false,
          "internalType": "uint256",
          "name": "amount",
          "type": "uint256"
        }
      ],
      "name": "Claim",
      "type": "event"
    },
    {
      "anonymous": false,
      "inputs": [
        {
          "indexed": true,
          "internalType": "address",
          "name": "delegator",
          "type": "address"
        },
        {
          "indexed": true,
          "internalType": "address",
          "name": "fromDelegate",
          "type": "address"
        },
        {
          "indexed": true,
          "internalType": "address",
          "name": "toDelegate",
          "type": "address"
        }
      ],
      "name": "DelegateChangedV2",
      "type": "event"
    },
    {
      "anonymous": false,
      "inputs": [
        {
          "indexed": true,
          "internalType": "address",
          "name": "delegate",
          "type": "address"
        },
        {
          "indexed": false,
          "internalType": "uint256",
          "name": "previousBalance",
          "type": "uint256"
        },
        {
          "indexed": false,
          "internalType": "uint256",
          "name": "newBalance",
          "type": "uint256"
        }
      ],
      "name": "DelegateVotesChangedV2",
      "type": "event"
    },
    {
      "anonymous": false,
      "inputs": [
        {
          "indexed": true,
          "internalType": "address",
          "name": "user",
          "type": "address"
        },
        {
          "indexed": true,
          "internalType": "address",
          "name": "rewardToken",
          "type": "address"
        },
        {
          "indexed": true,
          "internalType": "uint256",
          "name": "pid",
          "type": "uint256"
        },
        {
          "indexed": false,
          "internalType": "uint256",
          "name": "amount",
          "type": "uint256"
        }
      ],
      "name": "Deposit",
      "type": "event"
    },
    {
      "anonymous": false,
      "inputs": [
        {
          "indexed": true,
          "internalType": "address",
          "name": "user",
          "type": "address"
        },
        {
          "indexed": true,
          "internalType": "address",
          "name": "rewardToken",
          "type": "address"
        },
        {
          "indexed": true,
          "internalType": "uint256",
          "name": "pid",
          "type": "uint256"
        },
        {
          "indexed": false,
          "internalType": "uint256",
          "name": "amount",
          "type": "uint256"
        }
      ],
      "name": "ExecutedWithdrawal",
      "type": "event"
    },
    {
      "anonymous": false,
      "inputs": [
        {
          "indexed": false,
          "internalType": "address",
          "name": "oldAccessControlManager",
          "type": "address"
        },
        {
          "indexed": false,
          "internalType": "address",
          "name": "newAccessControlManager",
          "type": "address"
        }
      ],
      "name": "NewAccessControlManager",
      "type": "event"
    },
    {
      "anonymous": false,
      "inputs": [
        {
          "indexed": true,
          "internalType": "address",
          "name": "rewardToken",
          "type": "address"
        },
        {
          "indexed": true,
          "internalType": "uint256",
          "name": "pid",
          "type": "uint256"
        },
        {
          "indexed": true,
          "internalType": "address",
          "name": "token",
          "type": "address"
        },
        {
          "indexed": false,
          "internalType": "uint256",
          "name": "allocPoints",
          "type": "uint256"
        },
        {
          "indexed": false,
          "internalType": "uint256",
          "name": "rewardPerBlockOrSecond",
          "type": "uint256"
        },
        {
          "indexed": false,
          "internalType": "uint256",
          "name": "lockPeriod",
          "type": "uint256"
        }
      ],
      "name": "PoolAdded",
      "type": "event"
    },
    {
      "anonymous": false,
      "inputs": [
        {
          "indexed": true,
          "internalType": "address",
          "name": "rewardToken",
          "type": "address"
        },
        {
          "indexed": true,
          "internalType": "uint256",
          "name": "pid",
          "type": "uint256"
        },
        {
          "indexed": false,
          "internalType": "uint256",
          "name": "oldAllocPoints",
          "type": "uint256"
        },
        {
          "indexed": false,
          "internalType": "uint256",
          "name": "newAllocPoints",
          "type": "uint256"
        }
      ],
      "name": "PoolUpdated",
      "type": "event"
    },
    {
      "anonymous": false,
      "inputs": [
        {
          "indexed": true,
          "internalType": "address",
          "name": "user",
          "type": "address"
        },
        {
          "indexed": true,
          "internalType": "address",
          "name": "rewardToken",
          "type": "address"
        },
        {
          "indexed": true,
          "internalType": "uint256",
          "name": "pid",
          "type": "uint256"
        },
        {
          "indexed": false,
          "internalType": "uint256",
          "name": "amount",
          "type": "uint256"
        }
      ],
      "name": "RequestedWithdrawal",
      "type": "event"
    },
    {
      "anonymous": false,
      "inputs": [
        {
          "indexed": true,
          "internalType": "address",
          "name": "rewardToken",
          "type": "address"
        },
        {
          "indexed": false,
          "internalType": "uint256",
          "name": "oldReward",
          "type": "uint256"
        },
        {
          "indexed": false,
          "internalType": "uint256",
          "name": "newReward",
          "type": "uint256"
        }
      ],
      "name": "RewardAmountUpdated",
      "type": "event"
    },
    {
      "anonymous": false,
      "inputs": [
        {
          "indexed": false,
          "internalType": "address",
          "name": "oldEcl",
          "type": "address"
        },
        {
          "indexed": false,
          "internalType": "address",
          "name": "oldStore",
          "type": "address"
        },
        {
          "indexed": false,
          "internalType": "address",
          "name": "newEcl",
          "type": "address"
        },
        {
          "indexed": false,
          "internalType": "address",
          "name": "newStore",
          "type": "address"
        }
      ],
      "name": "StoreUpdated",
      "type": "event"
    },
    {
      "anonymous": false,
      "inputs": [
        {
          "indexed": true,
          "internalType": "address",
          "name": "rewardToken",
          "type": "address"
        },
        {
          "indexed": true,
          "internalType": "address",
          "name": "userAddress",
          "type": "address"
        },
        {
          "indexed": false,
          "internalType": "uint256",
          "name": "oldOwedAmount",
          "type": "uint256"
        },
        {
          "indexed": false,
          "internalType": "uint256",
          "name": "newOwedAmount",
          "type": "uint256"
        }
      ],
      "name": "VaultDebtUpdated",
      "type": "event"
    },
    {
      "anonymous": false,
      "inputs": [
        {
          "indexed": true,
          "internalType": "address",
          "name": "admin",
          "type": "address"
        }
      ],
      "name": "VaultPaused",
      "type": "event"
    },
    {
      "anonymous": false,
      "inputs": [
        {
          "indexed": true,
          "internalType": "address",
          "name": "admin",
          "type": "address"
        }
      ],
      "name": "VaultResumed",
      "type": "event"
    },
    {
      "anonymous": false,
      "inputs": [
        {
          "indexed": true,
          "internalType": "address",
          "name": "rewardToken",
          "type": "address"
        },
        {
          "indexed": true,
          "internalType": "uint256",
          "name": "pid",
          "type": "uint256"
        },
        {
          "indexed": false,
          "internalType": "uint256",
          "name": "oldPeriod",
          "type": "uint256"
        },
        {
          "indexed": false,
          "internalType": "uint256",
          "name": "newPeriod",
          "type": "uint256"
        }
      ],
      "name": "WithdrawalLockingPeriodUpdated",
      "type": "event"
    },
    {
      "constant": true,
      "inputs": [],
      "name": "DELEGATION_TYPEHASH",
      "outputs": [
        {
          "internalType": "bytes32",
          "name": "",
          "type": "bytes32"
        }
      ],
      "payable": false,
      "stateMutability": "view",
      "type": "function"
    },
    {
      "constant": true,
      "inputs": [],
      "name": "DOMAIN_TYPEHASH",
      "outputs": [
        {
          "internalType": "bytes32",
          "name": "",
          "type": "bytes32"
        }
      ],
      "payable": false,
      "stateMutability": "view",
      "type": "function"
    },
    {
      "constant": true,
      "inputs": [],
      "name": "MAX_LOCK_PERIOD",
      "outputs": [
        {
          "internalType": "uint256",
          "name": "",
          "type": "uint256"
        }
      ],
      "payable": false,
      "stateMutability": "view",
      "type": "function"
    },
    {
      "constant": true,
      "inputs": [],
      "name": "SECONDS_PER_YEAR",
      "outputs": [
        {
          "internalType": "uint256",
          "name": "",
          "type": "uint256"
        }
      ],
      "payable": false,
      "stateMutability": "view",
      "type": "function"
    },
    {
      "constant": false,
      "inputs": [
        {
          "internalType": "contract ECLVaultProxy",
          "name": "eclVaultProxy",
          "type": "address"
        }
      ],
      "name": "_become",
      "outputs": [],
      "payable": false,
      "stateMutability": "nonpayable",
      "type": "function"
    },
    {
      "constant": true,
      "inputs": [],
      "name": "accessControlManager",
      "outputs": [
        {
          "internalType": "contract IAccessControlManagerV5",
          "name": "",
          "type": "address"
        }
      ],
      "payable": false,
      "stateMutability": "view",
      "type": "function"
    },
    {
      "constant": false,
      "inputs": [
        {
          "internalType": "address",
          "name": "_rewardToken",
          "type": "address"
        },
        {
          "internalType": "uint256",
          "name": "_allocPoint",
          "type": "uint256"
        },
        {
          "internalType": "contract IERC20",
          "name": "_token",
          "type": "address"
        },
        {
          "internalType": "uint256",
          "name": "_rewardPerBlockOrSecond",
          "type": "uint256"
        },
        {
          "internalType": "uint256",
          "name": "_lockPeriod",
          "type": "uint256"
        }
      ],
      "name": "add",
      "outputs": [],
      "payable": false,
      "stateMutability": "nonpayable",
      "type": "function"
    },
    {
      "constant": true,
      "inputs": [],
      "name": "admin",
      "outputs": [
        {
          "internalType": "address",
          "name": "",
          "type": "address"
        }
      ],
      "payable": false,
      "stateMutability": "view",
      "type": "function"
    },
    {
      "constant": true,
      "inputs": [],
      "name": "blocksOrSecondsPerYear",
      "outputs": [
        {
          "internalType": "uint256",
          "name": "",
          "type": "uint256"
        }
      ],
      "payable": false,
      "stateMutability": "view",
      "type": "function"
    },
    {
      "constant": true,
      "inputs": [
        {
          "internalType": "address",
          "name": "",
          "type": "address"
        },
        {
          "internalType": "uint32",
          "name": "",
          "type": "uint32"
        }
      ],
      "name": "checkpoints",
      "outputs": [
        {
          "internalType": "uint32",
          "name": "fromBlockOrSecond",
          "type": "uint32"
        },
        {
          "internalType": "uint96",
          "name": "votes",
          "type": "uint96"
        }
      ],
      "payable": false,
      "stateMutability": "view",
      "type": "function"
    },
    {
      "constant": false,
      "inputs": [
        {
          "internalType": "address",
          "name": "_account",
          "type": "address"
        },
        {
          "internalType": "address",
          "name": "_rewardToken",
          "type": "address"
        },
        {
          "internalType": "uint256",
          "name": "_pid",
          "type": "uint256"
        }
      ],
      "name": "claim",
      "outputs": [],
      "payable": false,
      "stateMutability": "nonpayable",
      "type": "function"
    },
    {
      "constant": false,
      "inputs": [
        {
          "internalType": "address",
          "name": "delegatee",
          "type": "address"
        }
      ],
      "name": "delegate",
      "outputs": [],
      "payable": false,
      "stateMutability": "nonpayable",
      "type": "function"
    },
    {
      "constant": false,
      "inputs": [
        {
          "internalType": "address",
          "name": "delegatee",
          "type": "address"
        },
        {
          "internalType": "uint256",
          "name": "nonce",
          "type": "uint256"
        },
        {
          "internalType": "uint256",
          "name": "expiry",
          "type": "uint256"
        },
        {
          "internalType": "uint8",
          "name": "v",
          "type": "uint8"
        },
        {
          "internalType": "bytes32",
          "name": "r",
          "type": "bytes32"
        },
        {
          "internalType": "bytes32",
          "name": "s",
          "type": "bytes32"
        }
      ],
      "name": "delegateBySig",
      "outputs": [],
      "payable": false,
      "stateMutability": "nonpayable",
      "type": "function"
    },
    {
      "constant": true,
      "inputs": [
        {
          "internalType": "address",
          "name": "",
          "type": "address"
        }
      ],
      "name": "delegates",
      "outputs": [
        {
          "internalType": "address",
          "name": "",
          "type": "address"
        }
      ],
      "payable": false,
      "stateMutability": "view",
      "type": "function"
    },
    {
      "constant": false,
      "inputs": [
        {
          "internalType": "address",
          "name": "_rewardToken",
          "type": "address"
        },
        {
          "internalType": "uint256",
          "name": "_pid",
          "type": "uint256"
        },
        {
          "internalType": "uint256",
          "name": "_amount",
          "type": "uint256"
        }
      ],
      "name": "deposit",
      "outputs": [],
      "payable": false,
      "stateMutability": "nonpayable",
      "type": "function"
    },
    {
      "constant": true,
      "inputs": [],
      "name": "eclAddress",
      "outputs": [
        {
          "internalType": "address",
          "name": "",
          "type": "address"
        }
      ],
      "payable": false,
      "stateMutability": "view",
      "type": "function"
    },
    {
      "constant": true,
      "inputs": [],
      "name": "eclStore",
      "outputs": [
        {
          "internalType": "address",
          "name": "",
          "type": "address"
        }
      ],
      "payable": false,
      "stateMutability": "view",
      "type": "function"
    },
    {
      "constant": false,
      "inputs": [
        {
          "internalType": "address",
          "name": "_rewardToken",
          "type": "address"
        },
        {
          "internalType": "uint256",
          "name": "_pid",
          "type": "uint256"
        }
      ],
      "name": "executeWithdrawal",
      "outputs": [],
      "payable": false,
      "stateMutability": "nonpayable",
      "type": "function"
    },
    {
      "constant": true,
      "inputs": [],
      "name": "getBlockNumberOrTimestamp",
      "outputs": [
        {
          "internalType": "uint256",
          "name": "",
          "type": "uint256"
        }
      ],
      "payable": false,
      "stateMutability": "view",
      "type": "function"
    },
    {
      "constant": true,
      "inputs": [
        {
          "internalType": "address",
          "name": "account",
          "type": "address"
        }
      ],
      "name": "getCurrentVotes",
      "outputs": [
        {
          "internalType": "uint96",
          "name": "",
          "type": "uint96"
        }
      ],
      "payable": false,
      "stateMutability": "view",
      "type": "function"
    },
    {
      "constant": true,
      "inputs": [
        {
          "internalType": "address",
          "name": "_rewardToken",
          "type": "address"
        },
        {
          "internalType": "uint256",
          "name": "_pid",
          "type": "uint256"
        },
        {
          "internalType": "address",
          "name": "_user",
          "type": "address"
        }
      ],
      "name": "getEligibleWithdrawalAmount",
      "outputs": [
        {
          "internalType": "uint256",
          "name": "withdrawalAmount",
          "type": "uint256"
        }
      ],
      "payable": false,
      "stateMutability": "view",
      "type": "function"
    },
    {
      "constant": true,
      "inputs": [
        {
          "internalType": "address",
          "name": "account",
          "type": "address"
        },
        {
          "internalType": "uint256",
          "name": "blockNumberOrSecond",
          "type": "uint256"
        }
      ],
      "name": "getPriorVotes",
      "outputs": [
        {
          "internalType": "uint96",
          "name": "",
          "type": "uint96"
        }
      ],
      "payable": false,
      "stateMutability": "view",
      "type": "function"
    },
    {
      "constant": true,
      "inputs": [
        {
          "internalType": "address",
          "name": "_rewardToken",
          "type": "address"
        },
        {
          "internalType": "uint256",
          "name": "_pid",
          "type": "uint256"
        },
        {
          "internalType": "address",
          "name": "_user",
          "type": "address"
        }
      ],
      "name": "getRequestedAmount",
      "outputs": [
        {
          "internalType": "uint256",
          "name": "",
          "type": "uint256"
        }
      ],
      "payable": false,
      "stateMutability": "view",
      "type": "function"
    },
    {
      "constant": true,
      "inputs": [
        {
          "internalType": "address",
          "name": "_rewardToken",
          "type": "address"
        },
        {
          "internalType": "uint256",
          "name": "_pid",
          "type": "uint256"
        },
        {
          "internalType": "address",
          "name": "_user",
          "type": "address"
        }
      ],
      "name": "getUserInfo",
      "outputs": [
        {
          "internalType": "uint256",
          "name": "amount",
          "type": "uint256"
        },
        {
          "internalType": "uint256",
          "name": "rewardDebt",
          "type": "uint256"
        },
        {
          "internalType": "uint256",
          "name": "pendingWithdrawals",
          "type": "uint256"
        }
      ],
      "payable": false,
      "stateMutability": "view",
      "type": "function"
    },
    {
      "constant": true,
      "inputs": [
        {
          "internalType": "address",
          "name": "_rewardToken",
          "type": "address"
        },
        {
          "internalType": "uint256",
          "name": "_pid",
          "type": "uint256"
        },
        {
          "internalType": "address",
          "name": "_user",
          "type": "address"
        }
      ],
      "name": "getWithdrawalRequests",
      "outputs": [
        {
          "components": [
            {
              "internalType": "uint256",
              "name": "amount",
              "type": "uint256"
            },
            {
              "internalType": "uint128",
              "name": "lockedUntil",
              "type": "uint128"
            },
            {
              "internalType": "uint128",
              "name": "afterUpgrade",
              "type": "uint128"
            }
          ],
          "internalType": "struct ECLVaultStorageV1.WithdrawalRequest[]",
          "name": "",
          "type": "tuple[]"
        }
      ],
      "payable": false,
      "stateMutability": "view",
      "type": "function"
    },
    {
      "constant": true,
      "inputs": [],
      "name": "implementation",
      "outputs": [
        {
          "internalType": "address",
          "name": "",
          "type": "address"
        }
      ],
      "payable": false,
      "stateMutability": "view",
      "type": "function"
    },
    {
      "constant": false,
      "inputs": [
        {
          "internalType": "bool",
          "name": "timeBased_",
          "type": "bool"
        },
        {
          "internalType": "uint256",
          "name": "blocksPerYear_",
          "type": "uint256"
        }
      ],
      "name": "initializeTimeManager",
      "outputs": [],
      "payable": false,
      "stateMutability": "nonpayable",
      "type": "function"
    },
    {
      "constant": true,
      "inputs": [
        {
          "internalType": "address",
          "name": "",
          "type": "address"
        }
      ],
      "name": "isStakedToken",
      "outputs": [
        {
          "internalType": "bool",
          "name": "",
          "type": "bool"
        }
      ],
      "payable": false,
      "stateMutability": "view",
      "type": "function"
    },
    {
      "constant": true,
      "inputs": [],
      "name": "isTimeBased",
      "outputs": [
        {
          "internalType": "bool",
          "name": "",
          "type": "bool"
        }
      ],
      "payable": false,
      "stateMutability": "view",
      "type": "function"
    },
    {
      "constant": true,
      "inputs": [
        {
          "internalType": "address",
          "name": "",
          "type": "address"
        }
      ],
      "name": "nonces",
      "outputs": [
        {
          "internalType": "uint256",
          "name": "",
          "type": "uint256"
        }
      ],
      "payable": false,
      "stateMutability": "view",
      "type": "function"
    },
    {
      "constant": true,
      "inputs": [
        {
          "internalType": "address",
          "name": "",
          "type": "address"
        }
      ],
      "name": "numCheckpoints",
      "outputs": [
        {
          "internalType": "uint32",
          "name": "",
          "type": "uint32"
        }
      ],
      "payable": false,
      "stateMutability": "view",
      "type": "function"
    },
    {
      "constant": false,
      "inputs": [],
      "name": "pause",
      "outputs": [],
      "payable": false,
      "stateMutability": "nonpayable",
      "type": "function"
    },
    {
      "constant": true,
      "inputs": [],
      "name": "pendingAdmin",
      "outputs": [
        {
          "internalType": "address",
          "name": "",
          "type": "address"
        }
      ],
      "payable": false,
      "stateMutability": "view",
      "type": "function"
    },
    {
      "constant": true,
      "inputs": [],
      "name": "pendingECLVaultImplementation",
      "outputs": [
        {
          "internalType": "address",
          "name": "",
          "type": "address"
        }
      ],
      "payable": false,
      "stateMutability": "view",
      "type": "function"
    },
    {
      "constant": true,
      "inputs": [
        {
          "internalType": "address",
          "name": "_rewardToken",
          "type": "address"
        },
        {
          "internalType": "uint256",
          "name": "_pid",
          "type": "uint256"
        },
        {
          "internalType": "address",
          "name": "_user",
          "type": "address"
        }
      ],
      "name": "pendingReward",
      "outputs": [
        {
          "internalType": "uint256",
          "name": "",
          "type": "uint256"
        }
      ],
      "payable": false,
      "stateMutability": "view",
      "type": "function"
    },
    {
      "constant": true,
      "inputs": [
        {
          "internalType": "address",
          "name": "",
          "type": "address"
        },
        {
          "internalType": "address",
          "name": "",
          "type": "address"
        }
      ],
      "name": "pendingRewardTransfers",
      "outputs": [
        {
          "internalType": "uint256",
          "name": "",
          "type": "uint256"
        }
      ],
      "payable": false,
      "stateMutability": "view",
      "type": "function"
    },
    {
      "constant": true,
      "inputs": [
        {
          "internalType": "address",
          "name": "_rewardToken",
          "type": "address"
        },
        {
          "internalType": "uint256",
          "name": "_pid",
          "type": "uint256"
        },
        {
          "internalType": "address",
          "name": "_user",
          "type": "address"
        }
      ],
      "name": "pendingWithdrawalsBeforeUpgrade",
      "outputs": [
        {
          "internalType": "uint256",
          "name": "beforeUpgradeWithdrawalAmount",
          "type": "uint256"
        }
      ],
      "payable": false,
      "stateMutability": "view",
      "type": "function"
    },
    {
      "constant": true,
      "inputs": [
        {
          "internalType": "address",
          "name": "",
          "type": "address"
        },
        {
          "internalType": "uint256",
          "name": "",
          "type": "uint256"
        }
      ],
      "name": "poolInfos",
      "outputs": [
        {
          "internalType": "contract IERC20",
          "name": "token",
          "type": "address"
        },
        {
          "internalType": "uint256",
          "name": "allocPoint",
          "type": "uint256"
        },
        {
          "internalType": "uint256",
          "name": "lastRewardBlockOrSecond",
          "type": "uint256"
        },
        {
          "internalType": "uint256",
          "name": "accRewardPerShare",
          "type": "uint256"
        },
        {
          "internalType": "uint256",
          "name": "lockPeriod",
          "type": "uint256"
        }
      ],
      "payable": false,
      "stateMutability": "view",
      "type": "function"
    },
    {
      "constant": true,
      "inputs": [
        {
          "internalType": "address",
          "name": "rewardToken",
          "type": "address"
        }
      ],
      "name": "poolLength",
      "outputs": [
        {
          "internalType": "uint256",
          "name": "",
          "type": "uint256"
        }
      ],
      "payable": false,
      "stateMutability": "view",
      "type": "function"
    },
    {
      "constant": false,
      "inputs": [
        {
          "internalType": "address",
          "name": "_rewardToken",
          "type": "address"
        },
        {
          "internalType": "uint256",
          "name": "_pid",
          "type": "uint256"
        },
        {
          "internalType": "uint256",
          "name": "_amount",
          "type": "uint256"
        }
      ],
      "name": "requestWithdrawal",
      "outputs": [],
      "payable": false,
      "stateMutability": "nonpayable",
      "type": "function"
    },
    {
      "constant": false,
      "inputs": [],
      "name": "resume",
      "outputs": [],
      "payable": false,
      "stateMutability": "nonpayable",
      "type": "function"
    },
    {
      "constant": true,
      "inputs": [
        {
          "internalType": "address",
          "name": "_rewardToken",
          "type": "address"
        }
      ],
      "name": "rewardTokenAmountsPerBlock",
      "outputs": [
        {
          "internalType": "uint256",
          "name": "",
          "type": "uint256"
        }
      ],
      "payable": false,
      "stateMutability": "view",
      "type": "function"
    },
    {
      "constant": true,
      "inputs": [
        {
          "internalType": "address",
          "name": "",
          "type": "address"
        }
      ],
      "name": "rewardTokenAmountsPerBlockOrSecond",
      "outputs": [
        {
          "internalType": "uint256",
          "name": "",
          "type": "uint256"
        }
      ],
      "payable": false,
      "stateMutability": "view",
      "type": "function"
    },
    {
      "constant": false,
      "inputs": [
        {
          "internalType": "address",
          "name": "_rewardToken",
          "type": "address"
        },
        {
          "internalType": "uint256",
          "name": "_pid",
          "type": "uint256"
        },
        {
          "internalType": "uint256",
          "name": "_allocPoint",
          "type": "uint256"
        }
      ],
      "name": "set",
      "outputs": [],
      "payable": false,
      "stateMutability": "nonpayable",
      "type": "function"
    },
    {
      "constant": false,
      "inputs": [
        {
          "internalType": "address",
          "name": "newAccessControlAddress",
          "type": "address"
        }
      ],
      "name": "setAccessControl",
      "outputs": [],
      "payable": false,
      "stateMutability": "nonpayable",
      "type": "function"
    },
    {
      "constant": false,
      "inputs": [
        {
          "internalType": "address",
          "name": "_ecl",
          "type": "address"
        },
        {
          "internalType": "address",
          "name": "_eclStore",
          "type": "address"
        }
      ],
      "name": "setEclStore",
      "outputs": [],
      "payable": false,
      "stateMutability": "nonpayable",
      "type": "function"
    },
    {
      "constant": false,
      "inputs": [
        {
          "internalType": "address",
          "name": "_rewardToken",
          "type": "address"
        },
        {
          "internalType": "uint256",
          "name": "_rewardAmount",
          "type": "uint256"
        }
      ],
      "name": "setRewardAmountPerBlockOrSecond",
      "outputs": [],
      "payable": false,
      "stateMutability": "nonpayable",
      "type": "function"
    },
    {
      "constant": false,
      "inputs": [
        {
          "internalType": "address",
          "name": "_rewardToken",
          "type": "address"
        },
        {
          "internalType": "uint256",
          "name": "_pid",
          "type": "uint256"
        },
        {
          "internalType": "uint256",
          "name": "_newPeriod",
          "type": "uint256"
        }
      ],
      "name": "setWithdrawalLockingPeriod",
      "outputs": [],
      "payable": false,
      "stateMutability": "nonpayable",
      "type": "function"
    },
    {
      "constant": true,
      "inputs": [
        {
          "internalType": "address",
          "name": "",
          "type": "address"
        }
      ],
      "name": "totalAllocPoints",
      "outputs": [
        {
          "internalType": "uint256",
          "name": "",
          "type": "uint256"
        }
      ],
      "payable": false,
      "stateMutability": "view",
      "type": "function"
    },
    {
      "constant": true,
      "inputs": [
        {
          "internalType": "address",
          "name": "",
          "type": "address"
        },
        {
          "internalType": "uint256",
          "name": "",
          "type": "uint256"
        }
      ],
      "name": "totalPendingWithdrawals",
      "outputs": [
        {
          "internalType": "uint256",
          "name": "",
          "type": "uint256"
        }
      ],
      "payable": false,
      "stateMutability": "view",
      "type": "function"
    },
    {
      "constant": false,
      "inputs": [
        {
          "internalType": "address",
          "name": "_rewardToken",
          "type": "address"
        },
        {
          "internalType": "uint256",
          "name": "_pid",
          "type": "uint256"
        }
      ],
      "name": "updatePool",
      "outputs": [],
      "payable": false,
      "stateMutability": "nonpayable",
      "type": "function"
    },
    {
      "constant": true,
      "inputs": [],
      "name": "vaultPaused",
      "outputs": [
        {
          "internalType": "bool",
          "name": "",
          "type": "bool"
        }
      ],
      "payable": false,
      "stateMutability": "view",
      "type": "function"
    }
  ],
  "transactionHash": "0x175adec635afe242f65d20a5d418d8647b0a98d512700dd3114bc30d37f24fd0",
  "args": [],
  "numDeployments": 1,
  "solcInputHash": "02097ebff6013d29a1d80319968464e6",
  "bytecode": "0x608060405234801561001057600080fd5b50600080546001600160a01b03191633179055614d7d806100326000396000f3fe608060405234801561001057600080fd5b506004361061030c5760003560e01c80638308d7e91161019d578063c2102596116100e9578063e1d146fb116100a2578063f1127ed81161007c578063f1127ed814610675578063f554016214610696578063f851a4401461069e578063fba1b1f9146106a65761030c565b8063e1d146fb1461065d578063e6a69ab814610665578063e7a324dc1461066d5761030c565b8063c2102596146105e9578063c3c754a814610609578063c3cda5201461061c578063c7ad08951461062f578063cd9b94e714610637578063d7ae45e21461064a5761030c565b80639e2b6c4d11610156578063a9d69a6911610130578063a9d69a69146105a8578063b4a0bdf3146105bb578063b4b5ea57146105c3578063b6a5fd2f146105d65761030c565b80639e2b6c4d1461056f578063a09eab7a14610582578063a6997762146105955761030c565b80638308d7e9146104e85780638456cb59146104fb5780638ed7333d1461050357806392e350001461051657806398e1b31b1461053a578063996cba681461055c5761030c565b80635c19a95c1161025c5780636fcfff4511610215578063782d6fe1116101ef578063782d6fe11461049a5780637ac92456146104ba5780637ecebe00146104cd57806382321d0b146104e05761030c565b80636fcfff451461045d57806373d025d61461047d57806375b36b34146104925761030c565b80635c19a95c1461040c5780635c60da1b1461041f5780635f14e7001461042757806365c6a3d41461043a5780636857249c146104425780636dd77cbd1461044a5761030c565b806320606b70116102c95780633d4180f9116102a35780633d4180f9146103c05780634298bdbd146103d357806348cae804146103e6578063587cde1e146103f95761030c565b806320606b701461039057806326782247146103985780632eda5c6c146103ad5761030c565b8063046f7da2146103115780630af137281461031b5780630efe6a8b14610344578063115b512f1461035757806319129e5a1461036a5780631d504dc61461037d575b600080fd5b6103196106b9565b005b61032e610329366004613d58565b610744565b60405161033b9190614157565b60405180910390f35b610319610352366004613dea565b610787565b610319610365366004613dea565b6109f6565b610319610378366004613c7d565b610d24565b61031961038b366004613c7d565b610d5a565b61032e610e8b565b6103a0610ea2565b60405161033b9190614011565b61032e6103bb366004613c7d565b610eb1565b61032e6103ce366004613cb5565b610ed0565b61032e6103e1366004613c7d565b610eed565b6103196103f4366004613cb5565b610eff565b6103a0610407366004613c7d565b610ff3565b61031961041a366004613c7d565b61100e565b6103a061103b565b61032e610435366004613d2d565b61104a565b6103a0611067565b61032e611076565b61032e610458366004613d58565b61107c565b61047061046b366004613c7d565b611131565b60405161033b9190614af1565b610485611149565b60405161033b919061414c565b6103a0611152565b6104ad6104a8366004613d2d565b611161565b60405161033b9190614b21565b6103196104c8366004613d2d565b611377565b61032e6104db366004613c7d565b6116c0565b6103a06116d2565b6103196104f6366004613dea565b6116e1565b610319611887565b610319610511366004613d2d565b61190c565b610529610524366004613d2d565b611947565b60405161033b9594939291906141c6565b61054d610548366004613d58565b61199c565b60405161033b93929190614adb565b61031961056a366004613ced565b6119ee565b61031961057d366004613dea565b611b80565b61032e610590366004613d58565b611c6b565b6103196105a3366004613ecf565b611ebb565b61032e6105b6366004613d58565b611eef565b6103a0611f31565b6104ad6105d1366004613c7d565b611f40565b6103196105e4366004613d2d565b611fb1565b6105fc6105f7366004613d58565b6120d7565b60405161033b91906140e6565b610485610617366004613c7d565b612191565b61031961062a366004613e1e565b6121a6565b61048561234a565b61032e610645366004613c7d565b612353565b61032e610658366004613c7d565b612365565b61032e612380565b61032e6123a7565b61032e6123af565b610688610683366004613e7e565b6123bb565b60405161033b929190614b02565b61032e6123f0565b6103a06123f8565b6103196106b4366004613d99565b612407565b6106e260405180604001604052806008815260200167726573756d65282960c01b8152506126ec565b60135460ff1661070d5760405162461bcd60e51b815260040161070490614374565b60405180910390fd5b6013805460ff1916905560405133907fd2619572a1464e0df0bb351d834fd47f3350984d7bfdb1ab69cfcb0b8e42141590600090a2565b6000610750848461278e565b506001600160a01b039283166000908152600760209081526040808320948352938152838220929094168152925290206002015490565b600354600160a01b900460ff166107b05760405162461bcd60e51b8152600401610704906147c0565b6003805460ff60a01b1916905560135460ff16156107e05760405162461bcd60e51b81526004016107049061434b565b6107ea838361278e565b6001600160a01b038316600090815260086020526040812080548490811061080e57fe5b600091825260208083206001600160a01b0388168452600782526040808520888652835280852033865290925292206005909102909101915061085185856127c5565b61085c858533611eef565b156108795760405162461bcd60e51b815260040161070490614621565b8054156108ee57600061088c82846129a2565b905080156108ec5761089f8633836129b6565b84866001600160a01b0316336001600160a01b03167f865ca08d59f5cb456e85cd2f7ef63664ea4f73327414e9d8152c4158b0e94645846040516108e39190614157565b60405180910390a45b505b815461090b906001600160a01b031633308663ffffffff612c2f16565b805461091d908463ffffffff612c9016565b81556109298183612cd2565b600182015560055482546001600160a01b039081169116141561099057336000908152600f6020908152604080832054815160608101909252602180835261099094936001600160a01b039092169261098b92899290614cbe90830139612d00565b612d2f565b83856001600160a01b0316336001600160a01b03167fdcbc1c05240f31ff3ad067ef1ee35ce4997762752e3a095284754544f4c709d7866040516109d49190614157565b60405180910390a450506003805460ff60a01b1916600160a01b179055505050565b600354600160a01b900460ff16610a1f5760405162461bcd60e51b8152600401610704906147c0565b6003805460ff60a01b1916905560135460ff1615610a4f5760405162461bcd60e51b81526004016107049061434b565b610a59838361278e565b60008111610a795760405162461bcd60e51b8152600401610704906146e5565b6001600160a01b0383166000908152600760209081526040808320858452825280832033845290915290206002810154610ab9908363ffffffff612c9016565b81541015610ad95760405162461bcd60e51b815260040161070490614985565b6001600160a01b0384166000908152600860205260408120805485908110610afd57fe5b600091825260208083206001600160a01b0389168452600a825260408085208986528352808520338652909252908320600590920201925090610b3f82612ec1565b5090508015610b605760405162461bcd60e51b815260040161070490614621565b610b6a87876127c5565b6000610b7685856129a2565b9050610b838833836129b6565b6004840154600090610b9b904263ffffffff612c9016565b9050610ba986858984612f65565b6001600160a01b03891660009081526012602090815260408083208b8452909152902054610bdd908863ffffffff612c9016565b6001600160a01b038a1660009081526012602090815260408083208c8452909152902055610c0b8686612cd2565b600187015560055485546001600160a01b0390811691161415610c6e57336000908152600f6020908152604080832054815160608101909252602b808352610c6e946001600160a01b0390921693919261098b928d9290614c9390830139612d00565b87896001600160a01b0316336001600160a01b03167f865ca08d59f5cb456e85cd2f7ef63664ea4f73327414e9d8152c4158b0e9464585604051610cb29190614157565b60405180910390a487896001600160a01b0316336001600160a01b03167f88a254a0ef28a0b9e957ff600beae69870f6f924065147f3627c3f814e60ec118a604051610cfe9190614157565b60405180910390a450506003805460ff60a01b1916600160a01b17905550505050505050565b6000546001600160a01b03163314610d4e5760405162461bcd60e51b815260040161070490614812565b610d5781613149565b50565b806001600160a01b031663f851a4406040518163ffffffff1660e01b815260040160206040518083038186803b158015610d9357600080fd5b505afa158015610da7573d6000803e3d6000fd5b505050506040513d601f19601f82011682018060405250610dcb9190810190613c99565b6001600160a01b0316336001600160a01b031614610dfb5760405162461bcd60e51b8152600401610704906149f3565b806001600160a01b031663c1e803346040518163ffffffff1660e01b8152600401602060405180830381600087803b158015610e3657600080fd5b505af1158015610e4a573d6000803e3d6000fd5b505050506040513d601f19601f82011682018060405250610e6e9190810190613eec565b15610d575760405162461bcd60e51b81526004016107049061483a565b604051610e9790613f67565b604051809103902081565b6001546001600160a01b031681565b6001600160a01b0381166000908152600660205260409020545b919050565b601560209081526000928352604080842090915290825290205481565b60096020526000908152604090205481565b6000546001600160a01b03163314610f295760405162461bcd60e51b815260040161070490614812565b610f32826131ce565b610f3b816131ce565b6005546004546001600160a01b0391821691168115610f6c5760405162461bcd60e51b8152600401610704906145bd565b600580546001600160a01b038087166001600160a01b03199283161790925560048054928616929091169190911790556003805460ff60a01b1916600160a01b1790556040517f559f314bb90394a4a9ceb724f365b36a53587d894352c43d12901fd68010145690610fe5908490849088908890614087565b60405180910390a150505050565b600f602052600090815260409020546001600160a01b031681565b60135460ff16156110315760405162461bcd60e51b81526004016107049061434b565b610d5733826131f4565b6002546001600160a01b031681565b601260209081526000928352604080842090915290825290205481565b6003546001600160a01b031681565b60765481565b6000611088848461278e565b6001600160a01b038085166000908152600a60209081526040808320878452825280832093861683529290522080545b6000811180156110e857506110e88260018303815481106110d557fe5b9060005260206000209060020201613283565b156111285761111d8260018303815481106110ff57fe5b6000918252602090912060029091020154849063ffffffff612c9016565b9250600019016110b8565b50509392505050565b60116020526000908152604090205463ffffffff1681565b60135460ff1681565b6005546001600160a01b031681565b600061116b612380565b82106111895760405162461bcd60e51b81526004016107049061469a565b6001600160a01b03831660009081526011602052604090205463ffffffff16806111b7576000915050611371565b6001600160a01b038416600090815260106020908152604080832063ffffffff600019860181168552925290912054168310611233576001600160a01b03841660009081526010602090815260408083206000199490940163ffffffff1683529290522054600160201b90046001600160601b03169050611371565b6001600160a01b038416600090815260106020908152604080832083805290915290205463ffffffff1683101561126e576000915050611371565b600060001982015b8163ffffffff168163ffffffff16111561133157600282820363ffffffff160481036112a0613c66565b506001600160a01b038716600090815260106020908152604080832063ffffffff858116855290835292819020815180830190925254928316808252600160201b9093046001600160601b0316918101919091529087141561130c576020015194506113719350505050565b805163ffffffff168711156113235781935061132a565b6001820392505b5050611276565b506001600160a01b038516600090815260106020908152604080832063ffffffff909416835292905220546001600160601b03600160201b909104169150505b92915050565b600354600160a01b900460ff166113a05760405162461bcd60e51b8152600401610704906147c0565b6003805460ff60a01b1916905560135460ff16156113d05760405162461bcd60e51b81526004016107049061434b565b6113da828261278e565b6001600160a01b03821660009081526008602052604081208054839081106113fe57fe5b600091825260208083206001600160a01b038716808552600783526040808620888752845280862033808852908552818720928752600a855281872089885285528187209087529093529184206005909302019350918061145f8484613298565b9092509050811515806114725750600081115b61148e5760405162461bcd60e51b815260040161070490614869565b811580611499575080155b6114b55760405162461bcd60e51b81526004016107049061423e565b81156115ce576114c587876127c5565b600061150b85600101546114ff64e8d4a510006114f38a600301548a6000015461338f90919063ffffffff16565b9063ffffffff6133c916565b9063ffffffff61340b16565b6004805460405163135b33cd60e31b81529293506001600160a01b031691639ad99e689161153f918c913391879101614063565b600060405180830381600087803b15801561155957600080fd5b505af115801561156d573d6000803e3d6000fd5b50508654611584925090508463ffffffff61340b16565b80865560038701546115a79164e8d4a51000916114f3919063ffffffff61338f16565b600186015585546115c8906001600160a01b0316338563ffffffff61344d16565b50611652565b83546115e0908263ffffffff61340b16565b84556001600160a01b0387166000908152601260209081526040808320898452909152902054611616908263ffffffff61340b16565b6001600160a01b0380891660009081526012602090815260408083208b845290915290209190915585546116529116338363ffffffff61344d16565b856001600160a01b038816337fe31da05fae6db869f5ea51f4b638aa6884070b6c87f18f63bd2291a12cb2f51861168f868663ffffffff612c9016565b60405161169c9190614157565b60405180910390a450506003805460ff60a01b1916600160a01b1790555050505050565b600e6020526000908152604090205481565b6004546001600160a01b031681565b61171f6040518060400160405280601c81526020017f73657428616464726573732c75696e743235362c75696e7432353629000000008152506126ec565b611729838361278e565b6117328361346f565b6001600160a01b038316600090815260086020526040812080549091906117ab90849061179f9085908890811061176557fe5b60009182526020808320600160059093020191909101546001600160a01b038b16835260099091526040909120549063ffffffff61340b16565b9063ffffffff612c9016565b9050600081116117cd5760405162461bcd60e51b815260040161070490614a35565b60008285815481106117db57fe5b9060005260206000209060050201600101549050838386815481106117fc57fe5b9060005260206000209060050201600101819055508160096000886001600160a01b03166001600160a01b031681526020019081526020016000208190555084866001600160a01b03167f6ee09c6cb801194690c195c69f465aaf7c80255cbeafaab9600f47ed79de2ca98387604051611877929190614acd565b60405180910390a3505050505050565b6118af604051806040016040528060078152602001667061757365282960c81b8152506126ec565b60135460ff16156118d25760405162461bcd60e51b8152600401610704906144c8565b6013805460ff1916600117905560405133907fdffada2889ebfab9224c24069d833f3de835d8cf99872d49e7b7ba5fccb7a46f90600090a2565b60135460ff161561192f5760405162461bcd60e51b81526004016107049061434b565b611939828261278e565b61194382826127c5565b5050565b6008602052816000526040600020818154811061196057fe5b6000918252602090912060059091020180546001820154600283015460038401546004909401546001600160a01b039093169550909350919085565b60008060006119ab868661278e565b5050506001600160a01b03928316600090815260076020908152604080832094835293815283822092909416815292529020805460018201546002909201549092565b600354600160a01b900460ff16611a175760405162461bcd60e51b8152600401610704906147c0565b6003805460ff60a01b1916905560135460ff1615611a475760405162461bcd60e51b81526004016107049061434b565b611a51828261278e565b6001600160a01b0382166000908152600860205260408120805483908110611a7557fe5b600091825260208083206001600160a01b0380881685526007835260408086208887528452808620918a1686529252922060059091029091019150611aba84846127c5565b611ac5848487611eef565b15611ae25760405162461bcd60e51b815260040161070490614621565b805415611b66576000611af582846129a2565b90508015611b6457611b078284612cd2565b6001830155611b178587836129b6565b83856001600160a01b0316876001600160a01b03167f865ca08d59f5cb456e85cd2f7ef63664ea4f73327414e9d8152c4158b0e9464584604051611b5b9190614157565b60405180910390a45b505b50506003805460ff60a01b1916600160a01b179055505050565b611ba1604051806060016040528060338152602001614c60603391396126ec565b611bab838361278e565b600081118015611bbe57506312cc030081105b611bda5760405162461bcd60e51b815260040161070490614896565b6001600160a01b0383166000908152600860205260408120805484908110611bfe57fe5b9060005260206000209060050201905060008160040154905082826004018190555083856001600160a01b03167f0bcf80c5060ccf99b7a993c57a94b232fc2c5c04bd74c7c7d174595fee6bc31f8386604051611c5c929190614acd565b60405180910390a35050505050565b6000611c77848461278e565b6001600160a01b0384166000908152600860205260408120805485908110611c9b57fe5b600091825260208083206001600160a01b03808a168086526007845260408087208b885285528087208a8416885285528087206003600590970290940195860154918752601285528087208b885290945283862054855494516370a0823160e01b8152959750929590949093611d72939216906370a0823190611d22903090600401614011565b60206040518083038186803b158015611d3a57600080fd5b505afa158015611d4e573d6000803e3d6000fd5b505050506040513d601f19601f820116820180604052506114ff9190810190613eec565b90506000611d7e612380565b6001600160a01b038a1660009081526006602052604090205460028701549192509082118015611dad57508215155b15611e43576000611dcb87600201548461340b90919063ffffffff16565b6001600160a01b038c1660009081526009602052604081205460018a01549293509091611e1391906114f390611e07868863ffffffff61338f16565b9063ffffffff61338f16565b9050611e3e611e31866114f38464e8d4a5100063ffffffff61338f16565b879063ffffffff612c9016565b955050505b6001600160a01b03808b166000908152600a602090815260408083208d84528252808320938c16835292905290812090611e7c82612ec1565b915050611eab87600101546114ff64e8d4a510006114f38a611e07878e6000015461340b90919063ffffffff16565b9c9b505050505050505050505050565b6000546001600160a01b03163314611ee55760405162461bcd60e51b815260040161070490614812565b61194382826134a4565b6001600160a01b038084166000908152600a6020908152604080832086845282528083209385168352929052908120611f2781612ec1565b5095945050505050565b6044546001600160a01b031690565b6001600160a01b03811660009081526011602052604081205463ffffffff1680611f6b576000611faa565b6001600160a01b0383166000908152601060209081526040808320600019850163ffffffff168452909152902054600160201b90046001600160601b03165b9392505050565b611fd2604051806060016040528060308152602001614cdf603091396126ec565b60048054604051633d6ac5b360e21b81526001600160a01b039091169163f5ab16cc9161200191869101614011565b60206040518083038186803b15801561201957600080fd5b505afa15801561202d573d6000803e3d6000fd5b505050506040513d601f19601f820116820180604052506120519190810190613eb3565b61206d5760405162461bcd60e51b8152600401610704906147e4565b6120768261346f565b6001600160a01b0382166000818152600660205260409081902080549084905590519091907fad96cee0d692f0250b98e085504f399da6733854908215f6203fe3c69366d9f5906120ca9084908690614acd565b60405180910390a2505050565b60606120e3848461278e565b6001600160a01b038085166000908152600a602090815260408083208784528252808320938616835292815282822080548451818402810184019095528085529092909184015b828210156121845760008481526020908190206040805160608101825260028602909201805483526001908101546001600160801b0380821685870152600160801b9091041691830191909152908352909201910161212a565b5050505090509392505050565b60146020526000908152604090205460ff1681565b60135460ff16156121c95760405162461bcd60e51b81526004016107049061434b565b60006040516121d790613f67565b6040805191829003822082820190915260088252671150d315985d5b1d60c21b6020909201919091527f96dd5aabfe5895a9f5b5b02d9900ca5a3ed5a44b0a03851b2d46cb28388a887c612229613553565b3060405160200161223d9493929190614184565b604051602081830303815290604052805190602001209050600060405161226390613fc2565b60405190819003812061227e918a908a908a90602001614160565b604051602081830303815290604052805190602001209050600082826040516020016122ab929190613f4c565b60405160208183030381529060405280519060200120905060006122d182888888613557565b6001600160a01b0381166000908152600e6020526040902080546001810190915590915089146123135760405162461bcd60e51b815260040161070490614305565b874211156123335760405162461bcd60e51b815260040161070490614a83565b61233d818b6131f4565b505050505b505050505050565b60775460ff1681565b60066020526000908152604090205481565b6001600160a01b031660009081526008602052604090205490565b60775460009060ff1661239a57612395613575565b6123a2565b6123a2613579565b905090565b6301e1338081565b604051610e9790613fc2565b601060209081526000928352604080842090915290825290205463ffffffff811690600160201b90046001600160601b031682565b6312cc030081565b6000546001600160a01b031681565b6124286040518060600160405280602c8152602001614d0f602c91396126ec565b612431856131ce565b61243a836131ce565b6004546001600160a01b03166124625760405162461bcd60e51b815260040161070490614297565b600084116124825760405162461bcd60e51b8152600401610704906148cd565b61248b8561346f565b6001600160a01b0385166000908152600860205260408120805490915b8181101561250657856001600160a01b03168382815481106124c657fe5b60009182526020909120600590910201546001600160a01b031614156124fe5760405162461bcd60e51b81526004016107049061475d565b6001016124a8565b506001600160a01b03851660009081526014602052604090205460ff16156125405760405162461bcd60e51b815260040161070490614586565b6001600160a01b038716600090815260096020526040902054612569908763ffffffff612c9016565b6001600160a01b038089166000908152600960209081526040808320949094556006815290839020879055825160a08101845291881682528101889052839181016125b2612380565b8152600060208083018290526040928301889052845460018082018755958352818320855160059092020180546001600160a01b0319166001600160a01b039283161781558583015181880155858501516002820155606086015160038201556080909501516004958601558a81168352601490915290829020805460ff1916851790558254915163fb66fb4d60e01b815291169263fb66fb4d9261265a928c9291016140b2565b600060405180830381600087803b15801561267457600080fd5b505af1158015612688573d6000803e3d6000fd5b50505050846001600160a01b03166001838054905003886001600160a01b03167fd7fa4bff1cd2253c0789c3291a786a6f6b1a3b4569a75af683a15d52abb6a0bf8988886040516126db93929190614adb565b60405180910390a450505050505050565b6044546040516318c5e8ab60e01b81526000916001600160a01b0316906318c5e8ab9061271f9033908690600401614025565b60206040518083038186803b15801561273757600080fd5b505afa15801561274b573d6000803e3d6000fd5b505050506040513d601f19601f8201168201806040525061276f9190810190613eb3565b9050806119435760405162461bcd60e51b8152600401610704906143a1565b6001600160a01b03821660009081526008602052604090205481106119435760405162461bcd60e51b81526004016107049061426a565b6001600160a01b03821660009081526008602052604081208054839081106127e957fe5b906000526020600020906005020190508060020154612806612380565b116128115750611943565b80546040516370a0823160e01b81526000916001600160a01b0316906370a0823190612841903090600401614011565b60206040518083038186803b15801561285957600080fd5b505afa15801561286d573d6000803e3d6000fd5b505050506040513d601f19601f820116820180604052506128919190810190613eec565b6001600160a01b03851660009081526012602090815260408083208784529091529020549091506128c990829063ffffffff61340b16565b9050806128e7576128d8612380565b82600201819055505050611943565b60006128f1612380565b9050600061290c84600201548361340b90919063ffffffff16565b6001600160a01b0387166000908152600960209081526040808320546001890154600690935290832054939450919261295592916114f391611e0790879063ffffffff61338f16565b9050612984612973856114f38464e8d4a5100063ffffffff61338f16565b60038701549063ffffffff612c9016565b6003860155612991612380565b856002018190555050505050505050565b6000611faa83600101546114ff8585612cd2565b600480546040516370a0823160e01b81526001600160a01b03918216926000928716916370a08231916129eb91869101614011565b60206040518083038186803b158015612a0357600080fd5b505afa158015612a17573d6000803e3d6000fd5b505050506040513d601f19601f82011682018060405250612a3b9190810190613eec565b6001600160a01b038087166000908152601560209081526040808320938916835292905290812054919250612a76858363ffffffff612c9016565b9050828111612b54578115612ae9576001600160a01b038088166000818152601560209081526040808320948b1680845294909152808220829055517f6bdfd5e51d01475945224d3d37965916fd8df699ef9e8888af4359aa8622216091612ae091879190614acd565b60405180910390a35b60405163135b33cd60e31b81526001600160a01b03851690639ad99e6890612b19908a908a908690600401614063565b600060405180830381600087803b158015612b3357600080fd5b505af1158015612b47573d6000803e3d6000fd5b5050505050505050612c2a565b6001600160a01b038088166000818152601560209081526040808320948b168084529490915290819020868503908190559051909291907f6bdfd5e51d01475945224d3d37965916fd8df699ef9e8888af4359aa8622216090612bba9087908690614acd565b60405180910390a360405163135b33cd60e31b81526001600160a01b03861690639ad99e6890612bf2908b908b908990600401614063565b600060405180830381600087803b158015612c0c57600080fd5b505af1158015612c20573d6000803e3d6000fd5b5050505050505050505b505050565b604051612c8a9085906323b872dd60e01b90612c5390879087908790602401614063565b60408051601f198184030181529190526020810180516001600160e01b03166001600160e01b03199093169290921790915261357d565b50505050565b6000611faa83836040518060400160405280601b81526020017f536166654d6174683a206164646974696f6e206f766572666c6f770000000000815250613662565b6000611faa64e8d4a510006114f38460030154611e078760020154886000015461340b90919063ffffffff16565b600081600160601b8410612d275760405162461bcd60e51b815260040161070491906141f4565b509192915050565b816001600160a01b0316836001600160a01b031614158015612d5a57506000816001600160601b0316115b15612c2a576001600160a01b03831615612e12576001600160a01b03831660009081526011602052604081205463ffffffff169081612d9a576000612dd9565b6001600160a01b0385166000908152601060209081526040808320600019860163ffffffff168452909152902054600160201b90046001600160601b03165b90506000612e0082856040518060600160405280602c8152602001614bca602c9139613692565b9050612e0e868484846136d1565b5050505b6001600160a01b03821615612c2a576001600160a01b03821660009081526011602052604081205463ffffffff169081612e4d576000612e8c565b6001600160a01b0384166000908152601060209081526040808320600019860163ffffffff168452909152902054600160201b90046001600160601b03165b90506000612eb382856040518060600160405280602b8152602001614b9f602b913961388d565b9050612342858484846136d1565b805460009081905b8015612f5f57836001820381548110612ede57fe5b6000918252602090912060016002909202018101546001600160801b03600160801b909104161415612f4157612f3a846001830381548110612f1c57fe5b6000918252602090912060029091020154839063ffffffff612c9016565b9150612f56565b612f538460018303815481106110ff57fe5b92505b60001901612ec9565b50915091565b8254604080516060810182526000808252602080830182815260019484018581528587018a5589845291909220925160028602909301928355905191909201805492516001600160801b03908116600160801b029281166001600160801b0319909416939093179092161790555b60008111801561300e575081846001830381548110612fee57fe5b60009182526020909120600160029092020101546001600160801b031611155b156130955783600182038154811061302257fe5b906000526020600020906002020184828154811061303c57fe5b600091825260209091208254600290920201908155600191820180549290910180546001600160801b0319166001600160801b03938416178082559154600160801b908190048416029190921617905560001901612fd3565b60405180606001604052808481526020016130af846138c0565b6001600160801b0316815260200160016001600160801b03168152508482815481106130d757fe5b60009182526020918290208351600292830290910190815591830151600190920180546040909401516001600160801b03199094166001600160801b03938416178316600160801b939094169290920292909217905585015461313a9084612c90565b85600201819055505050505050565b6001600160a01b03811661316f5760405162461bcd60e51b8152600401610704906144ff565b604480546001600160a01b038381166001600160a01b03198316179092556040519116907f66fd58e82f7b31a2a5c30e0888f3093efe4e111b00cd2b0c31fe014601293aa0906131c29083908590614049565b60405180910390a15050565b6001600160a01b038116610d575760405162461bcd60e51b8152600401610704906145ea565b6001600160a01b038083166000908152600f60205260408120549091169061321b846138e9565b6001600160a01b038581166000818152600f602052604080822080546001600160a01b031916898616908117909155905194955093928616927f0cc323ffec3ea49cbcddc0de1480978126d350c6a45dff33ad2f1cda6ae992619190a4612c8a828483612d2f565b60010154426001600160801b03909116111590565b805460009081905b6000811180156132bd57506132bd8460018303815481106110d557fe5b1561335e578360018203815481106132d157fe5b6000918252602090912060016002909202018101546001600160801b03600160801b9091041614156133165761330f846001830381548110612f1c57fe5b915061332b565b6133288460018303815481106110ff57fe5b92505b8380548061333557fe5b6000828152602081206000199283016002810290910182815560010191909155909155016132a0565b50613383613372828463ffffffff612c9016565b60028601549063ffffffff61340b16565b60028501559250929050565b60008261339e57506000611371565b828202828482816133ab57fe5b0414611faa5760405162461bcd60e51b81526004016107049061471c565b6000611faa83836040518060400160405280601a81526020017f536166654d6174683a206469766973696f6e206279207a65726f0000000000008152506139ff565b6000611faa83836040518060400160405280601e81526020017f536166654d6174683a207375627472616374696f6e206f766572666c6f770000815250613a36565b604051612c2a90849063a9059cbb60e01b90612c5390869086906024016140cd565b6001600160a01b038116600090815260086020526040812054905b81811015612c2a5761349c83826127c5565b60010161348a565b607754610100900460ff16156134cc5760405162461bcd60e51b815260040161070490614904565b811580156134d8575080155b156134f55760405162461bcd60e51b815260040161070490614789565b81801561350157508015155b1561351e5760405162461bcd60e51b815260040161070490614493565b6077805460ff191683151517905581613537578061353d565b6301e133805b60765550506077805461ff001916610100179055565b4690565b600080600061356887878787613a5a565b91509150611f2781613b3a565b4390565b4290565b61358f826001600160a01b0316613c03565b6135ab5760405162461bcd60e51b8152600401610704906149bc565b60006060836001600160a01b0316836040516135c79190613f30565b6000604051808303816000865af19150503d8060008114613604576040519150601f19603f3d011682016040523d82523d6000602084013e613609565b606091505b50915091508161362b5760405162461bcd60e51b81526004016107049061445e565b805115612c8a57808060200190516136469190810190613eb3565b612c8a5760405162461bcd60e51b81526004016107049061493b565b600083830182858210156136895760405162461bcd60e51b815260040161070491906141f4565b50949350505050565b6000836001600160601b0316836001600160601b0316111582906136c95760405162461bcd60e51b815260040161070491906141f4565b505050900390565b60006136fc6136de612380565b604051806080016040528060428152602001614bf660429139613c3f565b905060008463ffffffff1611801561374557506001600160a01b038516600090815260106020908152604080832063ffffffff6000198901811685529252909120548282169116145b156137a4576001600160a01b0385166000908152601060209081526040808320600019880163ffffffff168452909152902080546fffffffffffffffffffffffff000000001916600160201b6001600160601b03851602179055613843565b60408051808201825263ffffffff80841682526001600160601b0380861660208085019182526001600160a01b038b166000818152601083528781208c871682528352878120965187549451909516600160201b026fffffffffffffffffffffffff000000001995871663ffffffff19958616179590951694909417909555938252601190935292909220805460018801909316929091169190911790555b846001600160a01b03167f6adb589fed1e8542fb7a6b10f00a85e02265e77f9ae3ca8ff93b22983e1af9a0848460405161387e929190614b35565b60405180910390a25050505050565b6000838301826001600160601b0380871690831610156136895760405162461bcd60e51b815260040161070491906141f4565b6000600160801b82106138e55760405162461bcd60e51b815260040161070490614417565b5090565b6005546000906001600160a01b03166139145760405162461bcd60e51b8152600401610704906143c7565b6005546001600160a01b03166000908152600860205260408120805490915b818110156139f45760055483546001600160a01b039091169084908390811061395857fe5b60009182526020909120600590910201546001600160a01b031614156139ec576005546001600160a01b0390811660009081526007602090815260408083208584528252808320938916835292905220600281015481546139e1916139c3919063ffffffff61340b16565b604051806060016040528060288152602001614c3860289139612d00565b945050505050610ecb565b600101613933565b506000949350505050565b60008183613a205760405162461bcd60e51b815260040161070491906141f4565b506000838581613a2c57fe5b0495945050505050565b600081848411156136c95760405162461bcd60e51b815260040161070491906141f4565b6000807f7fffffffffffffffffffffffffffffff5d576e7357a4501ddfe92f46681b20a0831115613a915750600090506003613b31565b8460ff16601b14158015613aa957508460ff16601c14155b15613aba5750600090506004613b31565b600060018787878760405160008152602001604052604051613adf94939291906141a8565b6020604051602081039080840390855afa158015613b01573d6000803e3d6000fd5b5050604051601f1901519150506001600160a01b038116613b2a57506000915060019050613b31565b9150600090505b94509492505050565b6000816004811115613b4857fe5b1415613b5357610d57565b6001816004811115613b6157fe5b1415613b7f5760405162461bcd60e51b815260040161070490614207565b6002816004811115613b8d57fe5b1415613bab5760405162461bcd60e51b8152600401610704906142ce565b6003816004811115613bb957fe5b1415613bd75760405162461bcd60e51b815260040161070490614544565b6004816004811115613be557fe5b1415610d575760405162461bcd60e51b815260040161070490614658565b6000813f7fc5d2460186f7233c927e7db2dcc703c0e500b653ca82273b7bfad8045d85a470818114801590613c3757508115155b949350505050565b600081600160201b8410612d275760405162461bcd60e51b815260040161070491906141f4565b604080518082019091526000808252602082015290565b600060208284031215613c8e578081fd5b8135611faa81614b7b565b600060208284031215613caa578081fd5b8151611faa81614b7b565b60008060408385031215613cc7578081fd5b8235613cd281614b7b565b91506020830135613ce281614b7b565b809150509250929050565b600080600060608486031215613d01578081fd5b8335613d0c81614b7b565b92506020840135613d1c81614b7b565b929592945050506040919091013590565b60008060408385031215613d3f578182fd5b8235613d4a81614b7b565b946020939093013593505050565b600080600060608486031215613d6c578283fd5b8335613d7781614b7b565b9250602084013591506040840135613d8e81614b7b565b809150509250925092565b600080600080600060a08688031215613db0578081fd5b8535613dbb81614b7b565b9450602086013593506040860135613dd281614b7b565b94979396509394606081013594506080013592915050565b600080600060608486031215613dfe578283fd5b8335613e0981614b7b565b95602085013595506040909401359392505050565b60008060008060008060c08789031215613e36578081fd5b8635613e4181614b7b565b95506020870135945060408701359350606087013560ff81168114613e64578182fd5b9598949750929560808101359460a0909101359350915050565b60008060408385031215613e90578182fd5b8235613e9b81614b7b565b9150602083013563ffffffff81168114613ce2578182fd5b600060208284031215613ec4578081fd5b8151611faa81614b90565b60008060408385031215613ee1578182fd5b8235613d4a81614b90565b600060208284031215613efd578081fd5b5051919050565b60008151808452613f1c816020860160208601614b4f565b601f01601f19169290920160200192915050565b60008251613f42818460208701614b4f565b9190910192915050565b61190160f01b81526002810192909252602282015260420190565b7f454950373132446f6d61696e28737472696e67206e616d652c75696e7432353681527f20636861696e49642c6164647265737320766572696679696e67436f6e74726160208201526263742960e81b604082015260430190565b7f44656c65676174696f6e28616464726573732064656c6567617465652c75696e81527f74323536206e6f6e63652c75696e7432353620657870697279290000000000006020820152603a0190565b6001600160a01b0391909116815260200190565b6001600160a01b0383168152604060208201819052600090613c3790830184613f04565b6001600160a01b0392831681529116602082015260400190565b6001600160a01b039384168152919092166020820152604081019190915260600190565b6001600160a01b03948516815292841660208401529083166040830152909116606082015260800190565b6001600160a01b039290921682521515602082015260400190565b6001600160a01b03929092168252602082015260400190565b6020808252825182820181905260009190848201906040850190845b8181101561414057835180518452858101516001600160801b0390811687860152604091820151169084015292840192606090920191600101614102565b50909695505050505050565b901515815260200190565b90815260200190565b9384526001600160a01b039290921660208401526040830152606082015260800190565b938452602084019290925260408301526001600160a01b0316606082015260800190565b93845260ff9290921660208401526040830152606082015260800190565b6001600160a01b03959095168552602085019390935260408401919091526060830152608082015260a00190565b600060208252611faa6020830184613f04565b60208082526018908201527f45434453413a20696e76616c6964207369676e61747572650000000000000000604082015260600190565b602080825260129082015271696e636f6e73697374656e7420737461746560701b604082015260600190565b6020808252601390820152727661756c743a20706f6f6c206578697374733f60681b604082015260600190565b6020808252601f908201527f53746f726520636f6e7472616374206164647265737320697320656d70747900604082015260600190565b6020808252601f908201527f45434453413a20696e76616c6964207369676e6174757265206c656e67746800604082015260600190565b60208082526026908201527f45434c5661756c743a3a64656c656761746542795369673a20696e76616c6964604082015265206e6f6e636560d01b606082015260800190565b6020808252600f908201526e15985d5b1d081a5cc81c185d5cd959608a1b604082015260600190565b60208082526013908201527215985d5b1d081a5cc81b9bdd081c185d5cd959606a1b604082015260600190565b6020808252600c908201526b155b985d5d1a1bdc9a5e995960a21b604082015260600190565b60208082526030908201527f45434c5661756c743a3a6765745374616b65416d6f756e743a2065636c20616460408201526f191c995cdcc81a5cc81b9bdd081cd95d60821b606082015260800190565b60208082526027908201527f53616665436173743a2076616c756520646f65736e27742066697420696e20316040820152663238206269747360c81b606082015260800190565b6020808252818101527f5361666545524332303a206c6f772d6c6576656c2063616c6c206661696c6564604082015260600190565b6020808252818101527f496e76616c69642074696d6520626173656420636f6e66696775726174696f6e604082015260600190565b60208082526017908201527f5661756c7420697320616c726561647920706175736564000000000000000000604082015260600190565b60208082526025908201527f696e76616c696420616365737320636f6e74726f6c206d616e61676572206164604082015264647265737360d81b606082015260800190565b60208082526022908201527f45434453413a20696e76616c6964207369676e6174757265202773272076616c604082015261756560f01b606082015260800190565b6020808252601a908201527f546f6b656e2065786973747320696e206f7468657220706f6f6c000000000000604082015260600190565b602080825260139082015272185b1c9958591e481a5b9a5d1a585b1a5e9959606a1b604082015260600190565b60208082526018908201527f7a65726f2061646472657373206e6f7420616c6c6f7765640000000000000000604082015260600190565b6020808252601a908201527f657865637574652070656e64696e67207769746864726177616c000000000000604082015260600190565b60208082526022908201527f45434453413a20696e76616c6964207369676e6174757265202776272076616c604082015261756560f01b606082015260800190565b6020808252602b908201527f45434c5661756c743a3a6765745072696f72566f7465733a206e6f742079657460408201526a0819195d195c9b5a5b995960aa1b606082015260800190565b6020808252601f908201527f72657175657374656420616d6f756e742063616e6e6f74206265207a65726f00604082015260600190565b60208082526021908201527f536166654d6174683a206d756c7469706c69636174696f6e206f766572666c6f6040820152607760f81b606082015260800190565b602080825260129082015271141bdbdb08185b1c9958591e48185919195960721b604082015260600190565b60208082526017908201527f496e76616c696420626c6f636b73207065722079656172000000000000000000604082015260600190565b6020808252600a90820152691c994b595b9d195c995960b21b604082015260600190565b60208082526014908201527324b73b30b634b2103932bbb0b932103a37b5b2b760611b604082015260600190565b6020808252600e908201526d37b7363c9030b236b4b71031b0b760911b604082015260600190565b60208082526015908201527418da185b99d9481b9bdd08185d5d1a1bdc9a5e9959605a1b604082015260600190565b6020808252601390820152726e6f7468696e6720746f20776974686472617760681b604082015260600190565b6020808252601a908201527f496e76616c6964206e6577206c6f636b696e6720706572696f64000000000000604082015260600190565b6020808252601d908201527f416c6c6f6320706f696e7473206d757374206e6f74206265207a65726f000000604082015260600190565b6020808252601f908201527f416c726561647920696e697469616c697a65642054696d654d616e6167657200604082015260600190565b6020808252602a908201527f5361666545524332303a204552433230206f7065726174696f6e20646964206e6040820152691bdd081cdd58d8d9595960b21b606082015260800190565b6020808252601b908201527f72657175657374656420616d6f756e7420697320696e76616c69640000000000604082015260600190565b6020808252601f908201527f5361666545524332303a2063616c6c20746f206e6f6e2d636f6e747261637400604082015260600190565b60208082526022908201527f6f6e6c792070726f78792061646d696e2063616e206368616e676520627261696040820152616e7360f01b606082015260800190565b6020808252602e908201527f416c6c6f6320706f696e7473207065722072657761726420746f6b656e206d7560408201526d7374206e6f74206265207a65726f60901b606082015260800190565b6020808252602a908201527f45434c5661756c743a3a64656c656761746542795369673a207369676e6174756040820152691c9948195e1c1a5c995960b21b606082015260800190565b918252602082015260400190565b9283526020830191909152604082015260600190565b63ffffffff91909116815260200190565b63ffffffff9290921682526001600160601b0316602082015260400190565b6001600160601b0391909116815260200190565b6001600160601b0392831681529116602082015260400190565b60005b83811015614b6a578181015183820152602001614b52565b83811115612c8a5750506000910152565b6001600160a01b0381168114610d5757600080fd5b8015158114610d5757600080fdfe45434c5661756c743a3a5f6d6f7665566f7465733a20766f746520616d6f756e74206f766572666c6f777345434c5661756c743a3a5f6d6f7665566f7465733a20766f746520616d6f756e7420756e646572666c6f777345434c5661756c743a3a5f7772697465436865636b706f696e743a20626c6f636b206e756d626572206f72207365636f6e642065786365656473203332206269747345434c5661756c743a3a6765745374616b65416d6f756e743a20766f746573206f766572666c6f777365745769746864726177616c4c6f636b696e67506572696f6428616464726573732c75696e743235362c75696e743235362945434c5661756c743a3a726571756573745769746864726177616c3a20766f746573206f766572666c6f7745434c5661756c743a3a6465706f7369743a20766f746573206f766572666c6f77736574526577617264416d6f756e74506572426c6f636b4f725365636f6e6428616464726573732c75696e743235362961646428616464726573732c75696e743235362c616464726573732c75696e743235362c75696e7432353629a365627a7a723158208f3b59bfb1b6559e6b7206a4f3cf0a5291f5c58ea6e8bfb7b94217b49f9111626c6578706572696d656e74616cf564736f6c63430005100040",
  "devdoc": {
    "author": "Venus",
    "methods": {
      "add(address,uint256,address,uint256,uint256)": {
        "details": "This vault DOES NOT support deflationary tokens  it expects that  the amount of transferred tokens would equal the actually deposited  amount. In practice this means that this vault DOES NOT support USDT  and similar tokens (that do not provide these guarantees).",
        "params": {
          "_allocPoint": "Number of allocation points assigned to this pool",
          "_lockPeriod": "A period between withdrawal request and a moment when it's executable",
          "_rewardPerBlockOrSecond": "Initial reward per block or second, in terms of _rewardToken",
          "_rewardToken": "Reward token address",
          "_token": "Staked token"
        }
      },
      "claim(address,address,uint256)": {
        "params": {
          "_account": "The account for which to claim rewards",
          "_pid": "The Pool Index",
          "_rewardToken": "The Reward Token Address"
        }
      },
      "delegate(address)": {
        "params": {
          "delegatee": "The address to delegate votes to"
        }
      },
      "delegateBySig(address,uint256,uint256,uint8,bytes32,bytes32)": {
        "params": {
          "delegatee": "The address to delegate votes to",
          "expiry": "The time at which to expire the signature",
          "nonce": "The contract state required to match the signature",
          "r": "Half of the ECDSA signature pair",
          "s": "Half of the ECDSA signature pair",
          "v": "The recovery byte of the signature"
        }
      },
      "deposit(address,uint256,uint256)": {
        "params": {
          "_amount": "The amount to deposit to vault",
          "_pid": "The Pool Index",
          "_rewardToken": "The Reward Token Address"
        }
      },
      "executeWithdrawal(address,uint256)": {
        "params": {
          "_pid": "The Pool Index",
          "_rewardToken": "The Reward Token Address"
        }
      },
      "getBlockNumberOrTimestamp()": {
        "details": "Function to simply retrieve block number or block timestamp",
        "return": "Current block number or block timestamp"
      },
      "getCurrentVotes(address)": {
        "params": {
          "account": "The address to get votes balance"
        },
        "return": "The number of current votes for `account`"
      },
      "getEligibleWithdrawalAmount(address,uint256,address)": {
        "params": {
          "_pid": "The Pool Index",
          "_rewardToken": "The Reward Token Address",
          "_user": "The User Address"
        },
        "return": "withdrawalAmount Amount that the user can withdraw"
      },
      "getPriorVotes(address,uint256)": {
        "params": {
          "account": "The address of the account to check",
          "blockNumberOrSecond": "The block number or second to get the vote balance at"
        },
        "return": "The balance that user staked"
      },
      "getRequestedAmount(address,uint256,address)": {
        "params": {
          "_pid": "The Pool Index",
          "_rewardToken": "The Reward Token Address",
          "_user": "The User Address"
        },
        "return": "Total amount of requested but not yet executed withdrawals (including both executable and locked ones)"
      },
      "getUserInfo(address,uint256,address)": {
        "params": {
          "_pid": "Pool index",
          "_rewardToken": "Reward token address",
          "_user": "User address"
        },
        "return": "amount Deposited amountrewardDebt Reward debt (technical value used to track past payouts)pendingWithdrawals Requested but not yet executed withdrawals"
      },
      "getWithdrawalRequests(address,uint256,address)": {
        "params": {
          "_pid": "The Pool Index",
          "_rewardToken": "The Reward Token Address",
          "_user": "The User Address"
        },
        "return": "An array of withdrawal requests"
      },
      "initializeTimeManager(bool,uint256)": {
        "details": "Initializes the contract to use either blocks or seconds",
        "params": {
          "blocksPerYear_": "The number of blocks per year",
          "timeBased_": "A boolean indicating whether the contract is based on time or block If timeBased is true than blocksPerYear_ param is ignored as blocksOrSecondsPerYear is set to SECONDS_PER_YEAR"
        }
      },
      "pendingReward(address,uint256,address)": {
        "params": {
          "_pid": "Pool index",
          "_rewardToken": "Reward token address",
          "_user": "User address"
        },
        "return": "Reward the user is eligible for in this pool, in terms of _rewardToken"
      },
      "pendingWithdrawalsBeforeUpgrade(address,uint256,address)": {
        "params": {
          "_pid": "The Pool Index",
          "_rewardToken": "The Reward Token Address",
          "_user": "The address of the user"
        },
        "return": "beforeUpgradeWithdrawalAmount Total pending withdrawal amount in requests made before the vault upgrade"
      },
      "poolLength(address)": {
        "params": {
          "rewardToken": "Reward token address"
        },
        "return": "Number of pools that distribute the specified token as a reward"
      },
      "requestWithdrawal(address,uint256,uint256)": {
        "params": {
          "_amount": "The amount to withdraw from the vault",
          "_pid": "The Pool Index",
          "_rewardToken": "The Reward Token Address"
        }
      },
      "rewardTokenAmountsPerBlock(address)": {
        "params": {
          "_rewardToken": "Reward token address"
        },
        "return": "Number of reward tokens created per block or second"
      },
      "set(address,uint256,uint256)": {
        "params": {
          "_allocPoint": "Number of allocation points assigned to this pool",
          "_pid": "Pool index",
          "_rewardToken": "Reward token address"
        }
      },
      "setAccessControl(address)": {
        "details": "Admin function to set the access control address",
        "params": {
          "newAccessControlAddress": "New address for the access control"
        }
      },
      "setRewardAmountPerBlockOrSecond(address,uint256)": {
        "params": {
          "_rewardAmount": "Number of allocation points assigned to this pool",
          "_rewardToken": "Reward token address"
        }
      },
      "setWithdrawalLockingPeriod(address,uint256,uint256)": {
        "params": {
          "_newPeriod": "New lock period",
          "_pid": "Pool index",
          "_rewardToken": "Reward token address"
        }
      },
      "updatePool(address,uint256)": {
        "params": {
          "_pid": "Pool index",
          "_rewardToken": "Reward token address"
        }
      }
    },
    "title": "ECL Vault"
  },
  "userdoc": {
    "methods": {
      "_become(address)": {
        "notice": "* Admin Functions **"
      },
      "accessControlManager()": {
        "notice": "Returns the address of the access control manager contract"
      },
      "add(address,uint256,address,uint256,uint256)": {
        "notice": "Add a new token pool"
      },
      "claim(address,address,uint256)": {
        "notice": "Claim rewards for pool"
      },
      "constructor": "ECLVault constructor",
      "delegate(address)": {
        "notice": "Delegate votes from `msg.sender` to `delegatee`"
      },
      "delegateBySig(address,uint256,uint256,uint8,bytes32,bytes32)": {
        "notice": "Delegates votes from signatory to `delegatee`"
      },
      "deposit(address,uint256,uint256)": {
        "notice": "Deposit ECLVault for ECL allocation"
      },
      "executeWithdrawal(address,uint256)": {
        "notice": "Execute withdrawal to ECLVault for ECL allocation"
      },
      "getCurrentVotes(address)": {
        "notice": "Gets the current votes balance for `account`"
      },
      "getEligibleWithdrawalAmount(address,uint256,address)": {
        "notice": "Get unlocked withdrawal amount"
      },
      "getPriorVotes(address,uint256)": {
        "notice": "Determine the ecl stake balance for an account"
      },
      "getRequestedAmount(address,uint256,address)": {
        "notice": "Get requested amount"
      },
      "getUserInfo(address,uint256,address)": {
        "notice": "Get user info with reward token address and pid"
      },
      "getWithdrawalRequests(address,uint256,address)": {
        "notice": "Returns the array of withdrawal requests that have not been executed yet"
      },
      "pause()": {
        "notice": "Pauses vault"
      },
      "pendingReward(address,uint256,address)": {
        "notice": "View function to see pending ECLs on frontend"
      },
      "pendingWithdrawalsBeforeUpgrade(address,uint256,address)": {
        "notice": "Gets the total pending withdrawal amount of a user before upgrade"
      },
      "poolLength(address)": {
        "notice": "Returns the number of pools with the specified reward token"
      },
      "requestWithdrawal(address,uint256,uint256)": {
        "notice": "Request withdrawal to ECLVault for ECL allocation"
      },
      "resume()": {
        "notice": "Resume vault"
      },
      "rewardTokenAmountsPerBlock(address)": {
        "notice": "Returns the number of reward tokens created per block or second"
      },
      "set(address,uint256,uint256)": {
        "notice": "Update the given pool's reward allocation point"
      },
      "setAccessControl(address)": {
        "notice": "Sets the address of the access control of this contract"
      },
      "setRewardAmountPerBlockOrSecond(address,uint256)": {
        "notice": "Update the given reward token's amount per block or second"
      },
      "setWithdrawalLockingPeriod(address,uint256,uint256)": {
        "notice": "Update the lock period after which a requested withdrawal can be executed"
      },
      "updatePool(address,uint256)": {
        "notice": "Update reward variables of the given pool to be up-to-date"
      }
    },
    "notice": "The ECL Vault allows ECL holders to lock their ECL to recieve voting rights in Venus governance and are rewarded with ECL."
  },
  "storageLayout": {
    "storage": [
      {
        "astId": 585,
        "contract": "contracts/ECLVault/ECLVaults.sol:ECLVault",
        "label": "admin",
        "offset": 0,
        "slot": "0",
        "type": "t_address"
      },
      {
        "astId": 587,
        "contract": "contracts/ECLVault/ECLVaults.sol:ECLVault",
        "label": "pendingAdmin",
        "offset": 0,
        "slot": "1",
        "type": "t_address"
      },
      {
        "astId": 589,
        "contract": "contracts/ECLVault/ECLVaults.sol:ECLVault",
        "label": "implementation",
        "offset": 0,
        "slot": "2",
        "type": "t_address"
      },
      {
        "astId": 591,
        "contract": "contracts/ECLVault/ECLVaults.sol:ECLVault",
        "label": "pendingECLVaultImplementation",
        "offset": 0,
        "slot": "3",
        "type": "t_address"
      },
      {
        "astId": 596,
        "contract": "contracts/ECLVault/ECLVaults.sol:ECLVault",
        "label": "_notEntered",
        "offset": 20,
        "slot": "3",
        "type": "t_bool"
      },
      {
        "astId": 598,
        "contract": "contracts/ECLVault/ECLVaults.sol:ECLVault",
        "label": "eclStore",
        "offset": 0,
        "slot": "4",
        "type": "t_address"
      },
      {
        "astId": 600,
        "contract": "contracts/ECLVault/ECLVaults.sol:ECLVault",
        "label": "eclAddress",
        "offset": 0,
        "slot": "5",
        "type": "t_address"
      },
      {
        "astId": 604,
        "contract": "contracts/ECLVault/ECLVaults.sol:ECLVault",
        "label": "rewardTokenAmountsPerBlockOrSecond",
        "offset": 0,
        "slot": "6",
        "type": "t_mapping(t_address,t_uint256)"
      },
      {
        "astId": 637,
        "contract": "contracts/ECLVault/ECLVaults.sol:ECLVault",
        "label": "userInfos",
        "offset": 0,
        "slot": "7",
        "type": "t_mapping(t_address,t_mapping(t_uint256,t_mapping(t_address,t_struct(UserInfo)611_storage)))"
      },
      {
        "astId": 642,
        "contract": "contracts/ECLVault/ECLVaults.sol:ECLVault",
        "label": "poolInfos",
        "offset": 0,
        "slot": "8",
        "type": "t_mapping(t_address,t_array(t_struct(PoolInfo)622_storage)dyn_storage)"
      },
      {
        "astId": 646,
        "contract": "contracts/ECLVault/ECLVaults.sol:ECLVault",
        "label": "totalAllocPoints",
        "offset": 0,
        "slot": "9",
        "type": "t_mapping(t_address,t_uint256)"
      },
      {
        "astId": 655,
        "contract": "contracts/ECLVault/ECLVaults.sol:ECLVault",
        "label": "withdrawalRequests",
        "offset": 0,
        "slot": "10",
        "type": "t_mapping(t_address,t_mapping(t_uint256,t_mapping(t_address,t_array(t_struct(WithdrawalRequest)629_storage)dyn_storage)))"
      },
      {
        "astId": 659,
        "contract": "contracts/ECLVault/ECLVaults.sol:ECLVault",
        "label": "__oldDelegatesSlot",
        "offset": 0,
        "slot": "11",
        "type": "t_mapping(t_address,t_address)"
      },
      {
        "astId": 670,
        "contract": "contracts/ECLVault/ECLVaults.sol:ECLVault",
        "label": "__oldCheckpointsSlot",
        "offset": 0,
        "slot": "12",
        "type": "t_mapping(t_address,t_mapping(t_uint32,t_struct(Checkpoint)664_storage))"
      },
      {
        "astId": 674,
        "contract": "contracts/ECLVault/ECLVaults.sol:ECLVault",
        "label": "__oldNumCheckpointsSlot",
        "offset": 0,
        "slot": "13",
        "type": "t_mapping(t_address,t_uint32)"
      },
      {
        "astId": 678,
        "contract": "contracts/ECLVault/ECLVaults.sol:ECLVault",
        "label": "nonces",
        "offset": 0,
        "slot": "14",
        "type": "t_mapping(t_address,t_uint256)"
      },
      {
        "astId": 695,
        "contract": "contracts/ECLVault/ECLVaults.sol:ECLVault",
        "label": "delegates",
        "offset": 0,
        "slot": "15",
        "type": "t_mapping(t_address,t_address)"
      },
      {
        "astId": 701,
        "contract": "contracts/ECLVault/ECLVaults.sol:ECLVault",
        "label": "checkpoints",
        "offset": 0,
        "slot": "16",
        "type": "t_mapping(t_address,t_mapping(t_uint32,t_struct(Checkpoint)664_storage))"
      },
      {
        "astId": 705,
        "contract": "contracts/ECLVault/ECLVaults.sol:ECLVault",
        "label": "numCheckpoints",
        "offset": 0,
        "slot": "17",
        "type": "t_mapping(t_address,t_uint32)"
      },
      {
        "astId": 711,
        "contract": "contracts/ECLVault/ECLVaults.sol:ECLVault",
        "label": "totalPendingWithdrawals",
        "offset": 0,
        "slot": "18",
        "type": "t_mapping(t_address,t_mapping(t_uint256,t_uint256))"
      },
      {
        "astId": 713,
        "contract": "contracts/ECLVault/ECLVaults.sol:ECLVault",
        "label": "vaultPaused",
        "offset": 0,
        "slot": "19",
        "type": "t_bool"
      },
      {
        "astId": 717,
        "contract": "contracts/ECLVault/ECLVaults.sol:ECLVault",
        "label": "isStakedToken",
        "offset": 0,
        "slot": "20",
        "type": "t_mapping(t_address,t_bool)"
      },
      {
        "astId": 723,
        "contract": "contracts/ECLVault/ECLVaults.sol:ECLVault",
        "label": "pendingRewardTransfers",
        "offset": 0,
        "slot": "21",
        "type": "t_mapping(t_address,t_mapping(t_address,t_uint256))"
      },
      {
        "astId": 727,
        "contract": "contracts/ECLVault/ECLVaults.sol:ECLVault",
        "label": "__gap",
        "offset": 0,
        "slot": "22",
        "type": "t_array(t_uint256)46_storage"
      },
      {
        "astId": 3699,
        "contract": "contracts/ECLVault/ECLVaults.sol:ECLVault",
        "label": "_accessControlManager",
        "offset": 0,
        "slot": "68",
        "type": "t_contract(IAccessControlManagerV5)3877"
      },
      {
        "astId": 3703,
        "contract": "contracts/ECLVault/ECLVaults.sol:ECLVault",
        "label": "__gap",
        "offset": 0,
        "slot": "69",
        "type": "t_array(t_uint256)49_storage"
      },
      {
        "astId": 3884,
        "contract": "contracts/ECLVault/ECLVaults.sol:ECLVault",
        "label": "blocksOrSecondsPerYear",
        "offset": 0,
        "slot": "118",
        "type": "t_uint256"
      },
      {
        "astId": 3886,
        "contract": "contracts/ECLVault/ECLVaults.sol:ECLVault",
        "label": "isTimeBased",
        "offset": 0,
        "slot": "119",
        "type": "t_bool"
      },
      {
        "astId": 3888,
        "contract": "contracts/ECLVault/ECLVaults.sol:ECLVault",
        "label": "isInitialized",
        "offset": 1,
        "slot": "119",
        "type": "t_bool"
      },
      {
        "astId": 3890,
        "contract": "contracts/ECLVault/ECLVaults.sol:ECLVault",
        "label": "__deprecatedSlot1",
        "offset": 2,
        "slot": "119",
        "type": "t_bytes8"
      },
      {
        "astId": 3894,
        "contract": "contracts/ECLVault/ECLVaults.sol:ECLVault",
        "label": "__gap",
        "offset": 0,
        "slot": "120",
        "type": "t_array(t_uint256)48_storage"
      }
    ],
    "types": {
      "t_address": {
        "encoding": "inplace",
        "label": "address",
        "numberOfBytes": "20"
      },
      "t_array(t_struct(PoolInfo)622_storage)dyn_storage": {
        "base": "t_struct(PoolInfo)622_storage",
        "encoding": "dynamic_array",
        "label": "struct ECLVaultStorageV1.PoolInfo[]",
        "numberOfBytes": "32"
      },
      "t_array(t_struct(WithdrawalRequest)629_storage)dyn_storage": {
        "base": "t_struct(WithdrawalRequest)629_storage",
        "encoding": "dynamic_array",
        "label": "struct ECLVaultStorageV1.WithdrawalRequest[]",
        "numberOfBytes": "32"
      },
      "t_array(t_uint256)46_storage": {
        "base": "t_uint256",
        "encoding": "inplace",
        "label": "uint256[46]",
        "numberOfBytes": "1472"
      },
      "t_array(t_uint256)48_storage": {
        "base": "t_uint256",
        "encoding": "inplace",
        "label": "uint256[48]",
        "numberOfBytes": "1536"
      },
      "t_array(t_uint256)49_storage": {
        "base": "t_uint256",
        "encoding": "inplace",
        "label": "uint256[49]",
        "numberOfBytes": "1568"
      },
      "t_bool": {
        "encoding": "inplace",
        "label": "bool",
        "numberOfBytes": "1"
      },
      "t_bytes8": {
        "encoding": "inplace",
        "label": "bytes8",
        "numberOfBytes": "8"
      },
      "t_contract(IAccessControlManagerV5)3877": {
        "encoding": "inplace",
        "label": "contract IAccessControlManagerV5",
        "numberOfBytes": "20"
      },
      "t_contract(IERC20)4743": {
        "encoding": "inplace",
        "label": "contract IERC20",
        "numberOfBytes": "20"
      },
      "t_mapping(t_address,t_address)": {
        "encoding": "mapping",
        "key": "t_address",
        "label": "mapping(address => address)",
        "numberOfBytes": "32",
        "value": "t_address"
      },
      "t_mapping(t_address,t_array(t_struct(PoolInfo)622_storage)dyn_storage)": {
        "encoding": "mapping",
        "key": "t_address",
        "label": "mapping(address => struct ECLVaultStorageV1.PoolInfo[])",
        "numberOfBytes": "32",
        "value": "t_array(t_struct(PoolInfo)622_storage)dyn_storage"
      },
      "t_mapping(t_address,t_array(t_struct(WithdrawalRequest)629_storage)dyn_storage)": {
        "encoding": "mapping",
        "key": "t_address",
        "label": "mapping(address => struct ECLVaultStorageV1.WithdrawalRequest[])",
        "numberOfBytes": "32",
        "value": "t_array(t_struct(WithdrawalRequest)629_storage)dyn_storage"
      },
      "t_mapping(t_address,t_bool)": {
        "encoding": "mapping",
        "key": "t_address",
        "label": "mapping(address => bool)",
        "numberOfBytes": "32",
        "value": "t_bool"
      },
      "t_mapping(t_address,t_mapping(t_address,t_uint256))": {
        "encoding": "mapping",
        "key": "t_address",
        "label": "mapping(address => mapping(address => uint256))",
        "numberOfBytes": "32",
        "value": "t_mapping(t_address,t_uint256)"
      },
      "t_mapping(t_address,t_mapping(t_uint256,t_mapping(t_address,t_array(t_struct(WithdrawalRequest)629_storage)dyn_storage)))": {
        "encoding": "mapping",
        "key": "t_address",
        "label": "mapping(address => mapping(uint256 => mapping(address => struct ECLVaultStorageV1.WithdrawalRequest[])))",
        "numberOfBytes": "32",
        "value": "t_mapping(t_uint256,t_mapping(t_address,t_array(t_struct(WithdrawalRequest)629_storage)dyn_storage))"
      },
      "t_mapping(t_address,t_mapping(t_uint256,t_mapping(t_address,t_struct(UserInfo)611_storage)))": {
        "encoding": "mapping",
        "key": "t_address",
        "label": "mapping(address => mapping(uint256 => mapping(address => struct ECLVaultStorageV1.UserInfo)))",
        "numberOfBytes": "32",
        "value": "t_mapping(t_uint256,t_mapping(t_address,t_struct(UserInfo)611_storage))"
      },
      "t_mapping(t_address,t_mapping(t_uint256,t_uint256))": {
        "encoding": "mapping",
        "key": "t_address",
        "label": "mapping(address => mapping(uint256 => uint256))",
        "numberOfBytes": "32",
        "value": "t_mapping(t_uint256,t_uint256)"
      },
      "t_mapping(t_address,t_mapping(t_uint32,t_struct(Checkpoint)664_storage))": {
        "encoding": "mapping",
        "key": "t_address",
        "label": "mapping(address => mapping(uint32 => struct ECLVaultStorageV1.Checkpoint))",
        "numberOfBytes": "32",
        "value": "t_mapping(t_uint32,t_struct(Checkpoint)664_storage)"
      },
      "t_mapping(t_address,t_struct(UserInfo)611_storage)": {
        "encoding": "mapping",
        "key": "t_address",
        "label": "mapping(address => struct ECLVaultStorageV1.UserInfo)",
        "numberOfBytes": "32",
        "value": "t_struct(UserInfo)611_storage"
      },
      "t_mapping(t_address,t_uint256)": {
        "encoding": "mapping",
        "key": "t_address",
        "label": "mapping(address => uint256)",
        "numberOfBytes": "32",
        "value": "t_uint256"
      },
      "t_mapping(t_address,t_uint32)": {
        "encoding": "mapping",
        "key": "t_address",
        "label": "mapping(address => uint32)",
        "numberOfBytes": "32",
        "value": "t_uint32"
      },
      "t_mapping(t_uint256,t_mapping(t_address,t_array(t_struct(WithdrawalRequest)629_storage)dyn_storage))": {
        "encoding": "mapping",
        "key": "t_uint256",
        "label": "mapping(uint256 => mapping(address => struct ECLVaultStorageV1.WithdrawalRequest[]))",
        "numberOfBytes": "32",
        "value": "t_mapping(t_address,t_array(t_struct(WithdrawalRequest)629_storage)dyn_storage)"
      },
      "t_mapping(t_uint256,t_mapping(t_address,t_struct(UserInfo)611_storage))": {
        "encoding": "mapping",
        "key": "t_uint256",
        "label": "mapping(uint256 => mapping(address => struct ECLVaultStorageV1.UserInfo))",
        "numberOfBytes": "32",
        "value": "t_mapping(t_address,t_struct(UserInfo)611_storage)"
      },
      "t_mapping(t_uint256,t_uint256)": {
        "encoding": "mapping",
        "key": "t_uint256",
        "label": "mapping(uint256 => uint256)",
        "numberOfBytes": "32",
        "value": "t_uint256"
      },
      "t_mapping(t_uint32,t_struct(Checkpoint)664_storage)": {
        "encoding": "mapping",
        "key": "t_uint32",
        "label": "mapping(uint32 => struct ECLVaultStorageV1.Checkpoint)",
        "numberOfBytes": "32",
        "value": "t_struct(Checkpoint)664_storage"
      },
      "t_struct(Checkpoint)664_storage": {
        "encoding": "inplace",
        "label": "struct ECLVaultStorageV1.Checkpoint",
        "members": [
          {
            "astId": 661,
            "contract": "contracts/ECLVault/ECLVaults.sol:ECLVault",
            "label": "fromBlockOrSecond",
            "offset": 0,
            "slot": "0",
            "type": "t_uint32"
          },
          {
            "astId": 663,
            "contract": "contracts/ECLVault/ECLVaults.sol:ECLVault",
            "label": "votes",
            "offset": 4,
            "slot": "0",
            "type": "t_uint96"
          }
        ],
        "numberOfBytes": "32"
      },
      "t_struct(PoolInfo)622_storage": {
        "encoding": "inplace",
        "label": "struct ECLVaultStorageV1.PoolInfo",
        "members": [
          {
            "astId": 613,
            "contract": "contracts/ECLVault/ECLVaults.sol:ECLVault",
            "label": "token",
            "offset": 0,
            "slot": "0",
            "type": "t_contract(IERC20)4743"
          },
          {
            "astId": 615,
            "contract": "contracts/ECLVault/ECLVaults.sol:ECLVault",
            "label": "allocPoint",
            "offset": 0,
            "slot": "1",
            "type": "t_uint256"
          },
          {
            "astId": 617,
            "contract": "contracts/ECLVault/ECLVaults.sol:ECLVault",
            "label": "lastRewardBlockOrSecond",
            "offset": 0,
            "slot": "2",
            "type": "t_uint256"
          },
          {
            "astId": 619,
            "contract": "contracts/ECLVault/ECLVaults.sol:ECLVault",
            "label": "accRewardPerShare",
            "offset": 0,
            "slot": "3",
            "type": "t_uint256"
          },
          {
            "astId": 621,
            "contract": "contracts/ECLVault/ECLVaults.sol:ECLVault",
            "label": "lockPeriod",
            "offset": 0,
            "slot": "4",
            "type": "t_uint256"
          }
        ],
        "numberOfBytes": "160"
      },
      "t_struct(UserInfo)611_storage": {
        "encoding": "inplace",
        "label": "struct ECLVaultStorageV1.UserInfo",
        "members": [
          {
            "astId": 606,
            "contract": "contracts/ECLVault/ECLVaults.sol:ECLVault",
            "label": "amount",
            "offset": 0,
            "slot": "0",
            "type": "t_uint256"
          },
          {
            "astId": 608,
            "contract": "contracts/ECLVault/ECLVaults.sol:ECLVault",
            "label": "rewardDebt",
            "offset": 0,
            "slot": "1",
            "type": "t_uint256"
          },
          {
            "astId": 610,
            "contract": "contracts/ECLVault/ECLVaults.sol:ECLVault",
            "label": "pendingWithdrawals",
            "offset": 0,
            "slot": "2",
            "type": "t_uint256"
          }
        ],
        "numberOfBytes": "96"
      },
      "t_struct(WithdrawalRequest)629_storage": {
        "encoding": "inplace",
        "label": "struct ECLVaultStorageV1.WithdrawalRequest",
        "members": [
          {
            "astId": 624,
            "contract": "contracts/ECLVault/ECLVaults.sol:ECLVault",
            "label": "amount",
            "offset": 0,
            "slot": "0",
            "type": "t_uint256"
          },
          {
            "astId": 626,
            "contract": "contracts/ECLVault/ECLVaults.sol:ECLVault",
            "label": "lockedUntil",
            "offset": 0,
            "slot": "1",
            "type": "t_uint128"
          },
          {
            "astId": 628,
            "contract": "contracts/ECLVault/ECLVaults.sol:ECLVault",
            "label": "afterUpgrade",
            "offset": 16,
            "slot": "1",
            "type": "t_uint128"
          }
        ],
        "numberOfBytes": "64"
      },
      "t_uint128": {
        "encoding": "inplace",
        "label": "uint128",
        "numberOfBytes": "16"
      },
      "t_uint256": {
        "encoding": "inplace",
        "label": "uint256",
        "numberOfBytes": "32"
      },
      "t_uint32": {
        "encoding": "inplace",
        "label": "uint32",
        "numberOfBytes": "4"
      },
      "t_uint96": {
        "encoding": "inplace",
        "label": "uint96",
        "numberOfBytes": "12"
      }
    }
  }
}