{
  "address": "0x4d9dD152C58fe81D7f59539Aec262caADE67f620",
  "abi": [
    {
      "inputs": [
        {
          "internalType": "address",
          "name": "ptOracle",
          "type": "address"
        },
        {
          "internalType": "uint32",
          "name": "twapDuration",
          "type": "uint32"
        },
        {
          "internalType": "address",
          "name": "resilientOracle",
          "type": "address"
        }
      ],
      "stateMutability": "nonpayable",
      "type": "constructor"
    },
    {
      "inputs": [],
      "name": "InvalidDuration",
      "type": "error"
    },
    {
      "inputs": [],
      "name": "InvalidTokenAddress",
      "type": "error"
    },
    {
      "inputs": [
        {
          "internalType": "address",
          "name": "sender",
          "type": "address"
        },
        {
          "internalType": "address",
          "name": "calledContract",
          "type": "address"
        },
        {
          "internalType": "string",
          "name": "methodSignature",
          "type": "string"
        }
      ],
      "name": "Unauthorized",
      "type": "error"
    },
    {
      "anonymous": false,
      "inputs": [
        {
          "indexed": false,
          "internalType": "uint8",
          "name": "version",
          "type": "uint8"
        }
      ],
      "name": "Initialized",
      "type": "event"
    },
    {
      "anonymous": false,
      "inputs": [
        {
          "indexed": false,
          "internalType": "address",
          "name": "oldAccessControlManager",
          "type": "address"
        },
        {
          "indexed": false,
          "internalType": "address",
          "name": "newAccessControlManager",
          "type": "address"
        }
      ],
      "name": "NewAccessControlManager",
      "type": "event"
    },
    {
      "anonymous": false,
      "inputs": [
        {
          "indexed": true,
          "internalType": "address",
          "name": "previousOwner",
          "type": "address"
        },
        {
          "indexed": true,
          "internalType": "address",
          "name": "newOwner",
          "type": "address"
        }
      ],
      "name": "OwnershipTransferStarted",
      "type": "event"
    },
    {
      "anonymous": false,
      "inputs": [
        {
          "indexed": true,
          "internalType": "address",
          "name": "previousOwner",
          "type": "address"
        },
        {
          "indexed": true,
          "internalType": "address",
          "name": "newOwner",
          "type": "address"
        }
      ],
      "name": "OwnershipTransferred",
      "type": "event"
    },
    {
      "anonymous": false,
      "inputs": [
        {
          "indexed": true,
          "internalType": "address",
          "name": "asset",
          "type": "address"
        },
        {
          "indexed": false,
          "internalType": "uint256",
          "name": "previousPriceMantissa",
          "type": "uint256"
        },
        {
          "indexed": false,
          "internalType": "uint256",
          "name": "newPriceMantissa",
          "type": "uint256"
        }
      ],
      "name": "PricePosted",
      "type": "event"
    },
    {
      "anonymous": false,
      "inputs": [
        {
          "indexed": true,
          "internalType": "address",
          "name": "asset",
          "type": "address"
        },
        {
          "indexed": false,
          "internalType": "address",
          "name": "feed",
          "type": "address"
        },
        {
          "indexed": false,
          "internalType": "address",
          "name": "maxStalePeriod",
          "type": "address"
        }
      ],
      "name": "TokenConfigAdded",
      "type": "event"
    },
    {
      "inputs": [],
      "name": "NATIVE_TOKEN_ADDR",
      "outputs": [
        {
          "internalType": "address",
          "name": "",
          "type": "address"
        }
      ],
      "stateMutability": "view",
      "type": "function"
    },
    {
      "inputs": [],
      "name": "PT_ORACLE",
      "outputs": [
        {
          "internalType": "contract IPendlePtOracle",
          "name": "",
          "type": "address"
        }
      ],
      "stateMutability": "view",
      "type": "function"
    },
    {
      "inputs": [],
      "name": "RESILIENT_ORACLE",
      "outputs": [
        {
          "internalType": "contract OracleInterface",
          "name": "",
          "type": "address"
        }
      ],
      "stateMutability": "view",
      "type": "function"
    },
    {
      "inputs": [],
      "name": "TWAP_DURATION",
      "outputs": [
        {
          "internalType": "uint32",
          "name": "",
          "type": "uint32"
        }
      ],
      "stateMutability": "view",
      "type": "function"
    },
    {
      "inputs": [],
      "name": "acceptOwnership",
      "outputs": [],
      "stateMutability": "nonpayable",
      "type": "function"
    },
    {
      "inputs": [],
      "name": "accessControlManager",
      "outputs": [
        {
          "internalType": "contract IAccessControlManagerV8",
          "name": "",
          "type": "address"
        }
      ],
      "stateMutability": "view",
      "type": "function"
    },
    {
      "inputs": [
        {
          "internalType": "address",
          "name": "asset",
          "type": "address"
        }
      ],
      "name": "getPrice",
      "outputs": [
        {
          "internalType": "uint256",
          "name": "",
          "type": "uint256"
        }
      ],
      "stateMutability": "view",
      "type": "function"
    },
    {
      "inputs": [
        {
          "internalType": "address",
          "name": "accessControlManager_",
          "type": "address"
        }
      ],
      "name": "initialize",
      "outputs": [],
      "stateMutability": "nonpayable",
      "type": "function"
    },
    {
      "inputs": [],
      "name": "owner",
      "outputs": [
        {
          "internalType": "address",
          "name": "",
          "type": "address"
        }
      ],
      "stateMutability": "view",
      "type": "function"
    },
    {
      "inputs": [],
      "name": "pendingOwner",
      "outputs": [
        {
          "internalType": "address",
          "name": "",
          "type": "address"
        }
      ],
      "stateMutability": "view",
      "type": "function"
    },
    {
      "inputs": [
        {
          "internalType": "address",
          "name": "",
          "type": "address"
        }
      ],
      "name": "prices",
      "outputs": [
        {
          "internalType": "uint256",
          "name": "",
          "type": "uint256"
        }
      ],
      "stateMutability": "view",
      "type": "function"
    },
    {
      "inputs": [],
      "name": "renounceOwnership",
      "outputs": [],
      "stateMutability": "nonpayable",
      "type": "function"
    },
    {
      "inputs": [
        {
          "internalType": "address",
          "name": "accessControlManager_",
          "type": "address"
        }
      ],
      "name": "setAccessControlManager",
      "outputs": [],
      "stateMutability": "nonpayable",
      "type": "function"
    },
    {
      "inputs": [
        {
          "components": [
            {
              "internalType": "address",
              "name": "ptToken",
              "type": "address"
            },
            {
              "internalType": "address",
              "name": "market",
              "type": "address"
            },
            {
              "internalType": "address",
              "name": "underlyingToken",
              "type": "address"
            }
          ],
          "internalType": "struct PendlePtOracle.TokenConfig",
          "name": "tokenConfig",
          "type": "tuple"
        }
      ],
      "name": "setTokenConfig",
      "outputs": [],
      "stateMutability": "nonpayable",
      "type": "function"
    },
    {
      "inputs": [
        {
          "components": [
            {
              "internalType": "address",
              "name": "ptToken",
              "type": "address"
            },
            {
              "internalType": "address",
              "name": "market",
              "type": "address"
            },
            {
              "internalType": "address",
              "name": "underlyingToken",
              "type": "address"
            }
          ],
          "internalType": "struct PendlePtOracle.TokenConfig[]",
          "name": "tokenConfigs_",
          "type": "tuple[]"
        }
      ],
      "name": "setTokenConfigs",
      "outputs": [],
      "stateMutability": "nonpayable",
      "type": "function"
    },
    {
      "inputs": [
        {
          "internalType": "address",
          "name": "",
          "type": "address"
        }
      ],
      "name": "tokenConfigs",
      "outputs": [
        {
          "internalType": "address",
          "name": "ptToken",
          "type": "address"
        },
        {
          "internalType": "address",
          "name": "market",
          "type": "address"
        },
        {
          "internalType": "address",
          "name": "underlyingToken",
          "type": "address"
        }
      ],
      "stateMutability": "view",
      "type": "function"
    },
    {
      "inputs": [
        {
          "internalType": "address",
          "name": "newOwner",
          "type": "address"
        }
      ],
      "name": "transferOwnership",
      "outputs": [],
      "stateMutability": "nonpayable",
      "type": "function"
    }
  ],
  "transactionHash": "0xe16d16d044db5790254a2d75922a404b00601fe5cfe97c1ebf5cae21cae1ebdc",
  "args": [
    "0x9a9fa8338dd5e5b2188006f1cd2ef26d921650c2",
    1800,
    "0x133C4908A88e38460E85Cf06aD71D7E0d8A3A399"
  ],
  "numDeployments": 1,
  "solcInputHash": "2e5c3936e68548ec38e1b77c671dc8a4",
  "bytecode": "0x60e060405234801561001057600080fd5b5060405161144638038061144683398101604081905261002f91610137565b6001600160a01b0380841660805263ffffffff831660c052811660a05261005461005c565b505050610185565b600054610100900460ff16156100c85760405162461bcd60e51b815260206004820152602760248201527f496e697469616c697a61626c653a20636f6e747261637420697320696e697469604482015266616c697a696e6760c81b606482015260840160405180910390fd5b60005460ff90811614610119576000805460ff191660ff9081179091556040519081527f7f26b83ff96e1f2b6a682f133852f6798a09c465da95921460cefb38474024989060200160405180910390a15b565b80516001600160a01b038116811461013257600080fd5b919050565b60008060006060848603121561014c57600080fd5b6101558461011b565b9250602084015163ffffffff8116811461016e57600080fd5b915061017c6040850161011b565b90509250925092565b60805160a05160c05161126f6101d760003960008181610218015281816104050152610b8a015260008181610265015261061d0152600081816101d9015281816104360152610bb4015261126f6000f3fe608060405234801561001057600080fd5b506004361061010b5760003560e01c80638da5cb5b116100a2578063c4d66de811610071578063c4d66de8146102b3578063cfed246b146102c6578063d69be6e3146102e6578063e30c3978146102f9578063f2fde38b1461030a57600080fd5b80638da5cb5b1461024f578063a4edcd4c14610260578063a9534f8a14610287578063b4a0bdf3146102a257600080fd5b8063715018a6116100de578063715018a6146101c457806379ba5097146101cc578063809d7b31146101d4578063879ac8f81461021357600080fd5b80630a9867e2146101105780630e32cb86146101255780631b69dc5f1461013857806341976e09146101a3575b600080fd5b61012361011e366004610e22565b61031d565b005b610123610133366004610e45565b61056e565b610174610146366004610e45565b60ca602052600090815260409020805460018201546002909201546001600160a01b03918216928216911683565b604080516001600160a01b03948516815292841660208401529216918101919091526060015b60405180910390f35b6101b66101b1366004610e45565b610582565b60405190815260200161019a565b610123610723565b610123610737565b6101fb7f000000000000000000000000000000000000000000000000000000000000000081565b6040516001600160a01b03909116815260200161019a565b61023a7f000000000000000000000000000000000000000000000000000000000000000081565b60405163ffffffff909116815260200161019a565b6033546001600160a01b03166101fb565b6101fb7f000000000000000000000000000000000000000000000000000000000000000081565b6101fb73bbbbbbbbbbbbbbbbbbbbbbbbbbbbbbbbbbbbbbbb81565b6097546001600160a01b03166101fb565b6101236102c1366004610e45565b6107ae565b6101b66102d4366004610e45565b60c96020526000908152604090205481565b6101236102f4366004610e60565b6108c2565b6065546001600160a01b03166101fb565b610123610318366004610e45565b610943565b80516001600160a01b03811661034e5760405162461bcd60e51b815260040161034590610f10565b60405180910390fd5b60208201516001600160a01b0381166103795760405162461bcd60e51b815260040161034590610f10565b60408301516001600160a01b0381166103a45760405162461bcd60e51b815260040161034590610f10565b6103e26040518060400160405280601b81526020017f736574546f6b656e436f6e66696728546f6b656e436f6e6669672900000000008152506109b4565b602084015160405162439f4b60e91b81526001600160a01b0391821660048201527f000000000000000000000000000000000000000000000000000000000000000063ffffffff16602482015260009182917f00000000000000000000000000000000000000000000000000000000000000009091169063873e960090604401606060405180830381865afa15801561047f573d6000803e3d6000fd5b505050506040513d601f19601f820116820180604052508101906104a39190610f4f565b925050915081806104b2575080155b156104d057604051637616640160e01b815260040160405180910390fd5b85516001600160a01b03908116600090815260ca6020908152604091829020895181549085166001600160a01b031991821681178355838c015160018401805491881691841682179055858d015160029094018054949097169390921683179095558351908152918201527fb428f6ff69ca14870b7fa614c058e3ebfcea9fb751a3fa41fed2716c90af440f910160405180910390a2505050505050565b610576610a4e565b61057f81610aa8565b50565b6001600160a01b03818116600090815260ca60205260408120549091166105bc57604051630f58058360e11b815260040160405180910390fd5b6001600160a01b03808316600090815260ca602052604081206001015490916105e59116610b66565b6001600160a01b03848116600090815260ca60205260408082206002015490516341976e0960e01b81529083166004820152929350917f0000000000000000000000000000000000000000000000000000000000000000909116906341976e0990602401602060405180830381865afa158015610666573d6000803e3d6000fd5b505050506040513d601f19601f8201168201806040525081019061068a9190610f9b565b905060008490506000816001600160a01b031663313ce5676040518163ffffffff1660e01b8152600401602060405180830381865afa1580156106d1573d6000803e3d6000fd5b505050506040513d601f19601f820116820180604052508101906106f59190610fb4565b60ff16905061070581600a6110d1565b61070f84866110dd565b61071991906110f4565b9695505050505050565b61072b610a4e565b6107356000610c27565b565b60655433906001600160a01b031681146107a55760405162461bcd60e51b815260206004820152602960248201527f4f776e61626c6532537465703a2063616c6c6572206973206e6f7420746865206044820152683732bb9037bbb732b960b91b6064820152608401610345565b61057f81610c27565b600054610100900460ff16158080156107ce5750600054600160ff909116105b806107e85750303b1580156107e8575060005460ff166001145b61084b5760405162461bcd60e51b815260206004820152602e60248201527f496e697469616c697a61626c653a20636f6e747261637420697320616c72656160448201526d191e481a5b9a5d1a585b1a5e995960921b6064820152608401610345565b6000805460ff19166001179055801561086e576000805461ff0019166101001790555b61087782610c40565b80156108be576000805461ff0019169055604051600181527f7f26b83ff96e1f2b6a682f133852f6798a09c465da95921460cefb3847402498906020015b60405180910390a15b5050565b80516000036109075760405162461bcd60e51b815260206004820152601160248201527006c656e6774682063616e2774206265203607c1b6044820152606401610345565b805160005b8181101561093e5761093683828151811061092957610929611116565b602002602001015161031d565b60010161090c565b505050565b61094b610a4e565b606580546001600160a01b0383166001600160a01b0319909116811790915561097c6033546001600160a01b031690565b6001600160a01b03167f38d16b8cac22d99fc7c124b9cd0de2d3fa1faef420bfe791d8c362d765e2270060405160405180910390a350565b6097546040516318c5e8ab60e01b81526000916001600160a01b0316906318c5e8ab906109e79033908690600401611172565b602060405180830381865afa158015610a04573d6000803e3d6000fd5b505050506040513d601f19601f82011682018060405250810190610a28919061119e565b9050806108be57333083604051634a3fa29360e01b8152600401610345939291906111b9565b6033546001600160a01b031633146107355760405162461bcd60e51b815260206004820181905260248201527f4f776e61626c653a2063616c6c6572206973206e6f7420746865206f776e65726044820152606401610345565b6001600160a01b038116610b0c5760405162461bcd60e51b815260206004820152602560248201527f696e76616c696420616365737320636f6e74726f6c206d616e61676572206164604482015264647265737360d81b6064820152608401610345565b609780546001600160a01b038381166001600160a01b031983168117909355604080519190921680825260208201939093527f66fd58e82f7b31a2a5c30e0888f3093efe4e111b00cd2b0c31fe014601293aa091016108b5565b60405163abca0eab60e01b81526001600160a01b03828116600483015263ffffffff7f00000000000000000000000000000000000000000000000000000000000000001660248301526000917f00000000000000000000000000000000000000000000000000000000000000009091169063abca0eab90604401602060405180830381865afa158015610bfd573d6000803e3d6000fd5b505050506040513d601f19601f82011682018060405250810190610c219190610f9b565b92915050565b606580546001600160a01b031916905561057f81610c78565b600054610100900460ff16610c675760405162461bcd60e51b8152600401610345906111ee565b610c6f610cca565b61057f81610cf9565b603380546001600160a01b038381166001600160a01b0319831681179093556040519116919082907f8be0079c531659141344cd1fd0a4f28419497f9722a3daafe3b4186f6b6457e090600090a35050565b600054610100900460ff16610cf15760405162461bcd60e51b8152600401610345906111ee565b610735610d20565b600054610100900460ff166105765760405162461bcd60e51b8152600401610345906111ee565b600054610100900460ff16610d475760405162461bcd60e51b8152600401610345906111ee565b61073533610c27565b634e487b7160e01b600052604160045260246000fd5b604051601f8201601f1916810167ffffffffffffffff81118282101715610d8f57610d8f610d50565b604052919050565b80356001600160a01b0381168114610dae57600080fd5b919050565b600060608284031215610dc557600080fd5b6040516060810181811067ffffffffffffffff82111715610de857610de8610d50565b604052905080610df783610d97565b8152610e0560208401610d97565b6020820152610e1660408401610d97565b60408201525092915050565b600060608284031215610e3457600080fd5b610e3e8383610db3565b9392505050565b600060208284031215610e5757600080fd5b610e3e82610d97565b60006020808385031215610e7357600080fd5b823567ffffffffffffffff80821115610e8b57600080fd5b818501915085601f830112610e9f57600080fd5b813581811115610eb157610eb1610d50565b610ebf848260051b01610d66565b81815284810192506060918202840185019188831115610ede57600080fd5b938501935b82851015610f0457610ef58986610db3565b84529384019392850192610ee3565b50979650505050505050565b60208082526015908201527463616e2774206265207a65726f206164647265737360581b604082015260600190565b80518015158114610dae57600080fd5b600080600060608486031215610f6457600080fd5b610f6d84610f3f565b9250602084015161ffff81168114610f8457600080fd5b9150610f9260408501610f3f565b90509250925092565b600060208284031215610fad57600080fd5b5051919050565b600060208284031215610fc657600080fd5b815160ff81168114610e3e57600080fd5b634e487b7160e01b600052601160045260246000fd5b600181815b8085111561102857816000190482111561100e5761100e610fd7565b8085161561101b57918102915b93841c9390800290610ff2565b509250929050565b60008261103f57506001610c21565b8161104c57506000610c21565b8160018114611062576002811461106c57611088565b6001915050610c21565b60ff84111561107d5761107d610fd7565b50506001821b610c21565b5060208310610133831016604e8410600b84101617156110ab575081810a610c21565b6110b58383610fed565b80600019048211156110c9576110c9610fd7565b029392505050565b6000610e3e8383611030565b8082028115828204841417610c2157610c21610fd7565b60008261111157634e487b7160e01b600052601260045260246000fd5b500490565b634e487b7160e01b600052603260045260246000fd5b6000815180845260005b8181101561115257602081850181015186830182015201611136565b506000602082860101526020601f19601f83011685010191505092915050565b6001600160a01b03831681526040602082018190526000906111969083018461112c565b949350505050565b6000602082840312156111b057600080fd5b610e3e82610f3f565b6001600160a01b038481168252831660208201526060604082018190526000906111e59083018461112c565b95945050505050565b6020808252602b908201527f496e697469616c697a61626c653a20636f6e7472616374206973206e6f74206960408201526a6e697469616c697a696e6760a81b60608201526080019056fea26469706673582212200a3e1c5a4304a882f6ac54a66b947aa6b72580c8eb142d34c0351c147418d80564736f6c63430008190033",
  "devdoc": {
    "author": "Enclabs",
    "events": {
      "Initialized(uint8)": {
        "details": "Triggered when the contract has been initialized or reinitialized."
      }
    },
    "kind": "dev",
    "methods": {
      "acceptOwnership()": {
        "details": "The new owner accepts the ownership transfer."
      },
      "constructor": {
        "custom:oz-upgrades-unsafe-allow": "constructor"
      },
      "getPrice(address)": {
        "params": {
          "asset": "Address of the correlated token"
        },
        "returns": {
          "_0": "price The price of the correlated token in scaled decimal places"
        }
      },
      "initialize(address)": {
        "params": {
          "accessControlManager_": "Address of the access control manager contract"
        }
      },
      "owner()": {
        "details": "Returns the address of the current owner."
      },
      "pendingOwner()": {
        "details": "Returns the address of the pending owner."
      },
      "renounceOwnership()": {
        "details": "Leaves the contract without owner. It will not be possible to call `onlyOwner` functions. Can only be called by the current owner. NOTE: Renouncing ownership will leave the contract without an owner, thereby disabling any functionality that is only available to the owner."
      },
      "setAccessControlManager(address)": {
        "custom:access": "Only Governance",
        "custom:event": "Emits NewAccessControlManager event",
        "details": "Admin function to set address of AccessControlManager",
        "params": {
          "accessControlManager_": "The new address of the AccessControlManager"
        }
      },
      "setTokenConfig((address,address,address))": {
        "custom:access": "Only Governance",
        "custom:error": "NotNullAddress error is thrown if asset address is nullNotNullAddress error is thrown if token feed address is nullRange error is thrown if maxStale period of token is not greater than zero",
        "custom:event": "Emits TokenConfigAdded event on successfully setting of the token config",
        "params": {
          "tokenConfig": "Token config struct"
        }
      },
      "setTokenConfigs((address,address,address)[])": {
        "custom:access": "Only Governance",
        "custom:error": "Zero length error thrown, if length of the array in parameter is 0",
        "params": {
          "tokenConfigs_": "config array"
        }
      },
      "transferOwnership(address)": {
        "details": "Starts the ownership transfer of the contract to a new account. Replaces the pending transfer if there is one. Can only be called by the current owner."
      }
    },
    "stateVariables": {
      "PT_ORACLE": {
        "custom:oz-upgrades-unsafe-allow": "state-variable-immutable"
      },
      "RESILIENT_ORACLE": {
        "custom:oz-upgrades-unsafe-allow": "state-variable-immutable"
      },
      "TWAP_DURATION": {
        "custom:oz-upgrades-unsafe-allow": "state-variable-immutable"
      }
    },
    "title": "PendlePtOracle",
    "version": 1
  },
  "userdoc": {
    "errors": {
      "InvalidDuration()": [
        {
          "notice": "Thrown if the duration is invalid"
        }
      ],
      "InvalidTokenAddress()": [
        {
          "notice": "Thrown if the token address is invalid"
        }
      ],
      "Unauthorized(address,address,string)": [
        {
          "notice": "Thrown when the action is prohibited by AccessControlManager"
        }
      ]
    },
    "events": {
      "NewAccessControlManager(address,address)": {
        "notice": "Emitted when access control manager contract address is changed"
      },
      "PricePosted(address,uint256,uint256)": {
        "notice": "Emit when a price is manually set"
      },
      "TokenConfigAdded(address,address,address)": {
        "notice": "Emit when a token config is added"
      }
    },
    "kind": "user",
    "methods": {
      "NATIVE_TOKEN_ADDR()": {
        "notice": "Set this as asset address for native token on each chain. This is the underlying address for vBNB on BNB chain or an underlying asset for a native market on any chain."
      },
      "PT_ORACLE()": {
        "notice": "Address of the PT oracle"
      },
      "RESILIENT_ORACLE()": {
        "notice": "Address of Resilient Oracle"
      },
      "TWAP_DURATION()": {
        "notice": "Twap duration for the oracle"
      },
      "accessControlManager()": {
        "notice": "Returns the address of the access control manager contract"
      },
      "constructor": {
        "notice": "Constructor for the implementation contract."
      },
      "getPrice(address)": {
        "notice": "Fetches the price of the correlated token"
      },
      "initialize(address)": {
        "notice": "Initializes the owner of the contract"
      },
      "prices(address)": {
        "notice": "Manually set an override price, useful under extenuating conditions such as price feed failure"
      },
      "setAccessControlManager(address)": {
        "notice": "Sets the address of AccessControlManager"
      },
      "setTokenConfig((address,address,address))": {
        "notice": "Add single token config. asset & feed cannot be null addresses and maxStalePeriod must be positive"
      },
      "setTokenConfigs((address,address,address)[])": {
        "notice": "Add multiple token configs at the same time"
      },
      "tokenConfigs(address)": {
        "notice": "Token config by assets"
      }
    },
    "notice": "This oracle fetches prices of assets from the Chainlink oracle.",
    "version": 1
  },
  "storageLayout": {
    "storage": [
      {
        "astId": 292,
        "contract": "contracts/Oracle/PendlePtOracle.sol:PendlePtOracle",
        "label": "_initialized",
        "offset": 0,
        "slot": "0",
        "type": "t_uint8"
      },
      {
        "astId": 295,
        "contract": "contracts/Oracle/PendlePtOracle.sol:PendlePtOracle",
        "label": "_initializing",
        "offset": 1,
        "slot": "0",
        "type": "t_bool"
      },
      {
        "astId": 834,
        "contract": "contracts/Oracle/PendlePtOracle.sol:PendlePtOracle",
        "label": "__gap",
        "offset": 0,
        "slot": "1",
        "type": "t_array(t_uint256)50_storage"
      },
      {
        "astId": 164,
        "contract": "contracts/Oracle/PendlePtOracle.sol:PendlePtOracle",
        "label": "_owner",
        "offset": 0,
        "slot": "51",
        "type": "t_address"
      },
      {
        "astId": 284,
        "contract": "contracts/Oracle/PendlePtOracle.sol:PendlePtOracle",
        "label": "__gap",
        "offset": 0,
        "slot": "52",
        "type": "t_array(t_uint256)49_storage"
      },
      {
        "astId": 57,
        "contract": "contracts/Oracle/PendlePtOracle.sol:PendlePtOracle",
        "label": "_pendingOwner",
        "offset": 0,
        "slot": "101",
        "type": "t_address"
      },
      {
        "astId": 151,
        "contract": "contracts/Oracle/PendlePtOracle.sol:PendlePtOracle",
        "label": "__gap",
        "offset": 0,
        "slot": "102",
        "type": "t_array(t_uint256)49_storage"
      },
      {
        "astId": 1025,
        "contract": "contracts/Oracle/PendlePtOracle.sol:PendlePtOracle",
        "label": "_accessControlManager",
        "offset": 0,
        "slot": "151",
        "type": "t_contract(IAccessControlManagerV8)1210"
      },
      {
        "astId": 1030,
        "contract": "contracts/Oracle/PendlePtOracle.sol:PendlePtOracle",
        "label": "__gap",
        "offset": 0,
        "slot": "152",
        "type": "t_array(t_uint256)49_storage"
      },
      {
        "astId": 1339,
        "contract": "contracts/Oracle/PendlePtOracle.sol:PendlePtOracle",
        "label": "prices",
        "offset": 0,
        "slot": "201",
        "type": "t_mapping(t_address,t_uint256)"
      },
      {
        "astId": 1345,
        "contract": "contracts/Oracle/PendlePtOracle.sol:PendlePtOracle",
        "label": "tokenConfigs",
        "offset": 0,
        "slot": "202",
        "type": "t_mapping(t_address,t_struct(TokenConfig)1319_storage)"
      }
    ],
    "types": {
      "t_address": {
        "encoding": "inplace",
        "label": "address",
        "numberOfBytes": "20"
      },
      "t_array(t_uint256)49_storage": {
        "base": "t_uint256",
        "encoding": "inplace",
        "label": "uint256[49]",
        "numberOfBytes": "1568"
      },
      "t_array(t_uint256)50_storage": {
        "base": "t_uint256",
        "encoding": "inplace",
        "label": "uint256[50]",
        "numberOfBytes": "1600"
      },
      "t_bool": {
        "encoding": "inplace",
        "label": "bool",
        "numberOfBytes": "1"
      },
      "t_contract(IAccessControlManagerV8)1210": {
        "encoding": "inplace",
        "label": "contract IAccessControlManagerV8",
        "numberOfBytes": "20"
      },
      "t_mapping(t_address,t_struct(TokenConfig)1319_storage)": {
        "encoding": "mapping",
        "key": "t_address",
        "label": "mapping(address => struct PendlePtOracle.TokenConfig)",
        "numberOfBytes": "32",
        "value": "t_struct(TokenConfig)1319_storage"
      },
      "t_mapping(t_address,t_uint256)": {
        "encoding": "mapping",
        "key": "t_address",
        "label": "mapping(address => uint256)",
        "numberOfBytes": "32",
        "value": "t_uint256"
      },
      "t_struct(TokenConfig)1319_storage": {
        "encoding": "inplace",
        "label": "struct PendlePtOracle.TokenConfig",
        "members": [
          {
            "astId": 1314,
            "contract": "contracts/Oracle/PendlePtOracle.sol:PendlePtOracle",
            "label": "ptToken",
            "offset": 0,
            "slot": "0",
            "type": "t_address"
          },
          {
            "astId": 1316,
            "contract": "contracts/Oracle/PendlePtOracle.sol:PendlePtOracle",
            "label": "market",
            "offset": 0,
            "slot": "1",
            "type": "t_address"
          },
          {
            "astId": 1318,
            "contract": "contracts/Oracle/PendlePtOracle.sol:PendlePtOracle",
            "label": "underlyingToken",
            "offset": 0,
            "slot": "2",
            "type": "t_address"
          }
        ],
        "numberOfBytes": "96"
      },
      "t_uint256": {
        "encoding": "inplace",
        "label": "uint256",
        "numberOfBytes": "32"
      },
      "t_uint8": {
        "encoding": "inplace",
        "label": "uint8",
        "numberOfBytes": "1"
      }
    }
  }
}