{
  "address": "0xa07CCf57a428cDb2B30419b40963C43F8f3C7855",
  "abi": [
    {
      "inputs": [
        {
          "internalType": "address",
          "name": "wEthAddress",
          "type": "address"
        }
      ],
      "stateMutability": "nonpayable",
      "type": "constructor"
    },
    {
      "inputs": [
        {
          "internalType": "address",
          "name": "sender",
          "type": "address"
        },
        {
          "internalType": "address",
          "name": "calledContract",
          "type": "address"
        },
        {
          "internalType": "string",
          "name": "methodSignature",
          "type": "string"
        }
      ],
      "name": "Unauthorized",
      "type": "error"
    },
    {
      "anonymous": false,
      "inputs": [
        {
          "indexed": true,
          "internalType": "address",
          "name": "asset",
          "type": "address"
        },
        {
          "indexed": false,
          "internalType": "uint256",
          "name": "price",
          "type": "uint256"
        },
        {
          "indexed": false,
          "internalType": "uint256",
          "name": "oldTimestamp",
          "type": "uint256"
        },
        {
          "indexed": false,
          "internalType": "uint256",
          "name": "newTimestamp",
          "type": "uint256"
        }
      ],
      "name": "AnchorPriceUpdated",
      "type": "event"
    },
    {
      "anonymous": false,
      "inputs": [
        {
          "indexed": false,
          "internalType": "uint8",
          "name": "version",
          "type": "uint8"
        }
      ],
      "name": "Initialized",
      "type": "event"
    },
    {
      "anonymous": false,
      "inputs": [
        {
          "indexed": false,
          "internalType": "address",
          "name": "oldAccessControlManager",
          "type": "address"
        },
        {
          "indexed": false,
          "internalType": "address",
          "name": "newAccessControlManager",
          "type": "address"
        }
      ],
      "name": "NewAccessControlManager",
      "type": "event"
    },
    {
      "anonymous": false,
      "inputs": [
        {
          "indexed": true,
          "internalType": "address",
          "name": "previousOwner",
          "type": "address"
        },
        {
          "indexed": true,
          "internalType": "address",
          "name": "newOwner",
          "type": "address"
        }
      ],
      "name": "OwnershipTransferStarted",
      "type": "event"
    },
    {
      "anonymous": false,
      "inputs": [
        {
          "indexed": true,
          "internalType": "address",
          "name": "previousOwner",
          "type": "address"
        },
        {
          "indexed": true,
          "internalType": "address",
          "name": "newOwner",
          "type": "address"
        }
      ],
      "name": "OwnershipTransferred",
      "type": "event"
    },
    {
      "anonymous": false,
      "inputs": [
        {
          "indexed": true,
          "internalType": "address",
          "name": "asset",
          "type": "address"
        },
        {
          "indexed": true,
          "internalType": "address",
          "name": "uniswapPool",
          "type": "address"
        },
        {
          "indexed": true,
          "internalType": "uint256",
          "name": "anchorPeriod",
          "type": "uint256"
        }
      ],
      "name": "TokenConfigAdded",
      "type": "event"
    },
    {
      "anonymous": false,
      "inputs": [
        {
          "indexed": true,
          "internalType": "address",
          "name": "asset",
          "type": "address"
        },
        {
          "indexed": false,
          "internalType": "uint256",
          "name": "oldTimestamp",
          "type": "uint256"
        },
        {
          "indexed": false,
          "internalType": "uint256",
          "name": "oldAcc",
          "type": "uint256"
        },
        {
          "indexed": false,
          "internalType": "uint256",
          "name": "newTimestamp",
          "type": "uint256"
        },
        {
          "indexed": false,
          "internalType": "uint256",
          "name": "newAcc",
          "type": "uint256"
        }
      ],
      "name": "TwapWindowUpdated",
      "type": "event"
    },
    {
      "inputs": [],
      "name": "ETH_ADDR",
      "outputs": [
        {
          "internalType": "address",
          "name": "",
          "type": "address"
        }
      ],
      "stateMutability": "view",
      "type": "function"
    },
    {
      "inputs": [],
      "name": "ETH_BASE_UNIT",
      "outputs": [
        {
          "internalType": "uint256",
          "name": "",
          "type": "uint256"
        }
      ],
      "stateMutability": "view",
      "type": "function"
    },
    {
      "inputs": [],
      "name": "USDC_BASE_UNIT",
      "outputs": [
        {
          "internalType": "uint256",
          "name": "",
          "type": "uint256"
        }
      ],
      "stateMutability": "view",
      "type": "function"
    },
    {
      "inputs": [],
      "name": "WETH",
      "outputs": [
        {
          "internalType": "address",
          "name": "",
          "type": "address"
        }
      ],
      "stateMutability": "view",
      "type": "function"
    },
    {
      "inputs": [],
      "name": "acceptOwnership",
      "outputs": [],
      "stateMutability": "nonpayable",
      "type": "function"
    },
    {
      "inputs": [],
      "name": "accessControlManager",
      "outputs": [
        {
          "internalType": "contract IAccessControlManagerV8",
          "name": "",
          "type": "address"
        }
      ],
      "stateMutability": "view",
      "type": "function"
    },
    {
      "inputs": [
        {
          "components": [
            {
              "internalType": "address",
              "name": "asset",
              "type": "address"
            },
            {
              "internalType": "uint256",
              "name": "baseUnit",
              "type": "uint256"
            },
            {
              "internalType": "address",
              "name": "uniswapPool",
              "type": "address"
            },
            {
              "internalType": "bool",
              "name": "isEthBased",
              "type": "bool"
            },
            {
              "internalType": "bool",
              "name": "isReversedPool",
              "type": "bool"
            },
            {
              "internalType": "uint256",
              "name": "anchorPeriod",
              "type": "uint256"
            }
          ],
          "internalType": "struct TwapOracle.TokenConfig",
          "name": "config",
          "type": "tuple"
        }
      ],
      "name": "currentCumulativePrice",
      "outputs": [
        {
          "internalType": "uint256",
          "name": "",
          "type": "uint256"
        }
      ],
      "stateMutability": "view",
      "type": "function"
    },
    {
      "inputs": [
        {
          "internalType": "address",
          "name": "asset",
          "type": "address"
        }
      ],
      "name": "getPrice",
      "outputs": [
        {
          "internalType": "uint256",
          "name": "",
          "type": "uint256"
        }
      ],
      "stateMutability": "view",
      "type": "function"
    },
    {
      "inputs": [
        {
          "internalType": "address",
          "name": "accessControlManager_",
          "type": "address"
        }
      ],
      "name": "initialize",
      "outputs": [],
      "stateMutability": "nonpayable",
      "type": "function"
    },
    {
      "inputs": [
        {
          "internalType": "address",
          "name": "",
          "type": "address"
        },
        {
          "internalType": "uint256",
          "name": "",
          "type": "uint256"
        }
      ],
      "name": "observations",
      "outputs": [
        {
          "internalType": "uint256",
          "name": "timestamp",
          "type": "uint256"
        },
        {
          "internalType": "uint256",
          "name": "acc",
          "type": "uint256"
        }
      ],
      "stateMutability": "view",
      "type": "function"
    },
    {
      "inputs": [],
      "name": "owner",
      "outputs": [
        {
          "internalType": "address",
          "name": "",
          "type": "address"
        }
      ],
      "stateMutability": "view",
      "type": "function"
    },
    {
      "inputs": [],
      "name": "pendingOwner",
      "outputs": [
        {
          "internalType": "address",
          "name": "",
          "type": "address"
        }
      ],
      "stateMutability": "view",
      "type": "function"
    },
    {
      "inputs": [
        {
          "internalType": "address",
          "name": "",
          "type": "address"
        }
      ],
      "name": "prices",
      "outputs": [
        {
          "internalType": "uint256",
          "name": "",
          "type": "uint256"
        }
      ],
      "stateMutability": "view",
      "type": "function"
    },
    {
      "inputs": [],
      "name": "renounceOwnership",
      "outputs": [],
      "stateMutability": "nonpayable",
      "type": "function"
    },
    {
      "inputs": [
        {
          "internalType": "address",
          "name": "accessControlManager_",
          "type": "address"
        }
      ],
      "name": "setAccessControlManager",
      "outputs": [],
      "stateMutability": "nonpayable",
      "type": "function"
    },
    {
      "inputs": [
        {
          "components": [
            {
              "internalType": "address",
              "name": "asset",
              "type": "address"
            },
            {
              "internalType": "uint256",
              "name": "baseUnit",
              "type": "uint256"
            },
            {
              "internalType": "address",
              "name": "uniswapPool",
              "type": "address"
            },
            {
              "internalType": "bool",
              "name": "isEthBased",
              "type": "bool"
            },
            {
              "internalType": "bool",
              "name": "isReversedPool",
              "type": "bool"
            },
            {
              "internalType": "uint256",
              "name": "anchorPeriod",
              "type": "uint256"
            }
          ],
          "internalType": "struct TwapOracle.TokenConfig",
          "name": "config",
          "type": "tuple"
        }
      ],
      "name": "setTokenConfig",
      "outputs": [],
      "stateMutability": "nonpayable",
      "type": "function"
    },
    {
      "inputs": [
        {
          "components": [
            {
              "internalType": "address",
              "name": "asset",
              "type": "address"
            },
            {
              "internalType": "uint256",
              "name": "baseUnit",
              "type": "uint256"
            },
            {
              "internalType": "address",
              "name": "uniswapPool",
              "type": "address"
            },
            {
              "internalType": "bool",
              "name": "isEthBased",
              "type": "bool"
            },
            {
              "internalType": "bool",
              "name": "isReversedPool",
              "type": "bool"
            },
            {
              "internalType": "uint256",
              "name": "anchorPeriod",
              "type": "uint256"
            }
          ],
          "internalType": "struct TwapOracle.TokenConfig[]",
          "name": "configs",
          "type": "tuple[]"
        }
      ],
      "name": "setTokenConfigs",
      "outputs": [],
      "stateMutability": "nonpayable",
      "type": "function"
    },
    {
      "inputs": [
        {
          "internalType": "address",
          "name": "",
          "type": "address"
        }
      ],
      "name": "tokenConfigs",
      "outputs": [
        {
          "internalType": "address",
          "name": "asset",
          "type": "address"
        },
        {
          "internalType": "uint256",
          "name": "baseUnit",
          "type": "uint256"
        },
        {
          "internalType": "address",
          "name": "uniswapPool",
          "type": "address"
        },
        {
          "internalType": "bool",
          "name": "isEthBased",
          "type": "bool"
        },
        {
          "internalType": "bool",
          "name": "isReversedPool",
          "type": "bool"
        },
        {
          "internalType": "uint256",
          "name": "anchorPeriod",
          "type": "uint256"
        }
      ],
      "stateMutability": "view",
      "type": "function"
    },
    {
      "inputs": [
        {
          "internalType": "address",
          "name": "newOwner",
          "type": "address"
        }
      ],
      "name": "transferOwnership",
      "outputs": [],
      "stateMutability": "nonpayable",
      "type": "function"
    },
    {
      "inputs": [
        {
          "internalType": "address",
          "name": "asset",
          "type": "address"
        }
      ],
      "name": "updateTwap",
      "outputs": [
        {
          "internalType": "uint256",
          "name": "",
          "type": "uint256"
        }
      ],
      "stateMutability": "nonpayable",
      "type": "function"
    },
    {
      "inputs": [
        {
          "internalType": "address",
          "name": "",
          "type": "address"
        }
      ],
      "name": "windowStart",
      "outputs": [
        {
          "internalType": "uint256",
          "name": "",
          "type": "uint256"
        }
      ],
      "stateMutability": "view",
      "type": "function"
    }
  ],
  "transactionHash": "0xcc0e85af04b1f48835d73ed70a28e6de5f32cdc3a2c2c7afe9de8a3e472eb577",
  "args": [
    "0x82af49447d8a07e3bd95bd0d56f35241523fbab1"
  ],
  "numDeployments": 1,
  "solcInputHash": "4c82b0e9fbdc815fcf9cb5cc25788479",
  "bytecode": "0x60a060405234801561001057600080fd5b5060405161200938038061200983398101604081905261002f91610162565b806001600160a01b03811661008b5760405162461bcd60e51b815260206004820152601560248201527f63616e2774206265207a65726f2061646472657373000000000000000000000060448201526064015b60405180910390fd5b6001600160a01b0382166080526100a06100a7565b5050610192565b600054610100900460ff161561010f5760405162461bcd60e51b815260206004820152602760248201527f496e697469616c697a61626c653a20636f6e747261637420697320696e697469604482015266616c697a696e6760c81b6064820152608401610082565b60005460ff90811614610160576000805460ff191660ff9081179091556040519081527f7f26b83ff96e1f2b6a682f133852f6798a09c465da95921460cefb38474024989060200160405180910390a15b565b60006020828403121561017457600080fd5b81516001600160a01b038116811461018b57600080fd5b9392505050565b608051611e326101d760003960008181610304015281816104d10152818161068e0152818161070b0152818161077c015281816107f4015261122b0152611e326000f3fe608060405234801561001057600080fd5b50600436106101375760003560e01c80637753f47b116100b8578063b4a0bdf31161007c578063b4a0bdf314610326578063c4d66de814610337578063cbf679191461034a578063cfed246b1461035d578063e30c39781461037d578063f2fde38b1461038e57600080fd5b80637753f47b146102a957806379ba5097146102dc57806387fa1953146102e45780638da5cb5b146102ee578063ad5c4648146102ff57600080fd5b80632b9d9dea116100ff5780632b9d9dea146102485780633334ecc51461025b57806341976e091461027b578063715018a61461028e578063725068a51461029657600080fd5b8063024599661461013c5780630e32cb8614610169578063152810fb1461017e5780631b69dc5f1461019b578063234a344614610235575b600080fd5b61014f61014a366004611894565b6103a1565b604080519283526020830191909152015b60405180910390f35b61017c6101773660046118be565b6103dd565b005b61018d670de0b6b3a764000081565b604051908152602001610160565b6101f36101a93660046118be565b60c96020526000908152604090208054600182015460028301546003909301546001600160a01b0392831693919282169160ff600160a01b8204811692600160a81b909204169086565b604080516001600160a01b03978816815260208101969096529390951692840192909252151560608301521515608082015260a081019190915260c001610160565b61017c6102433660046119cd565b6103f1565b61018d610256366004611a7d565b610477565b61018d6102693660046118be565b60cc6020526000908152604090205481565b61018d6102893660046118be565b6104a6565b61017c610651565b61018d6102a43660046118be565b610665565b6102c473bbbbbbbbbbbbbbbbbbbbbbbbbbbbbbbbbbbbbbbb81565b6040516001600160a01b039091168152602001610160565b61017c61090a565b61018d620f424081565b6033546001600160a01b03166102c4565b6102c47f000000000000000000000000000000000000000000000000000000000000000081565b6097546001600160a01b03166102c4565b61017c6103453660046118be565b610981565b61017c610358366004611a7d565b610a95565b61018d61036b3660046118be565b60ca6020526000908152604090205481565b6065546001600160a01b03166102c4565b61017c61039c3660046118be565b610dbb565b60cb60205281600052604060002081815481106103bd57600080fd5b600091825260209091206002909102018054600190910154909250905082565b6103e5610e2c565b6103ee81610e86565b50565b805160000361043b5760405162461bcd60e51b815260206004820152601160248201527006c656e6774682063616e2774206265203607c1b60448201526064015b60405180910390fd5b805160005b818110156104725761046a83828151811061045d5761045d611a99565b6020026020010151610a95565b600101610440565b505050565b60008060006104898460400151610f44565b509150915083608001511561049f579392505050565b5092915050565b60008073bbbbbbbbbbbbbbbbbbbbbbbbbbbbbbbbbbbbbbba196001600160a01b038416016104f957507f000000000000000000000000000000000000000000000000000000000000000091506012610567565b6000839050806001600160a01b031663313ce5676040518163ffffffff1660e01b8152600401602060405180830381865afa15801561053c573d6000803e3d6000fd5b505050506040513d601f19601f820116820180604052508101906105609190611aaf565b60ff169150505b6001600160a01b03838116600090815260c96020526040902054166105c05760405162461bcd60e51b815260206004820152600f60248201526e185cdcd95d081b9bdd08195e1a5cdd608a1b6044820152606401610432565b6001600160a01b038316600090815260ca6020526040812054908190036106295760405162461bcd60e51b815260206004820152601b60248201527f54574150207072696365206d75737420626520706f73697469766500000000006044820152606401610432565b610634826012611ae8565b61063f90600a611bdf565b6106499082611beb565b949350505050565b610659610e2c565b61066360006110ec565b565b600073bbbbbbbbbbbbbbbbbbbbbbbbbbbbbbbbbbbbbbba196001600160a01b038316016106b0577f000000000000000000000000000000000000000000000000000000000000000091505b6001600160a01b03828116600090815260c96020526040902054166107095760405162461bcd60e51b815260206004820152600f60248201526e185cdcd95d081b9bdd08195e1a5cdd608a1b6044820152606401610432565b7f00000000000000000000000000000000000000000000000000000000000000006001600160a01b0316826001600160a01b03161415801561076d57506001600160a01b038216600090815260c96020526040902060020154600160a01b900460ff165b15610888576001600160a01b037f00000000000000000000000000000000000000000000000000000000000000008116600090815260c96020526040902054166107ea5760405162461bcd60e51b815260206004820152600e60248201526d15d15512081b9bdd08195e1a5cdd60921b6044820152606401610432565b6001600160a01b037f00000000000000000000000000000000000000000000000000000000000000008116600090815260c96020908152604091829020825160c08101845281548516815260018201549281019290925260028101549384169282019290925260ff600160a01b8404811615156060830152600160a81b909304909216151560808301526003015460a082015261088690611105565b505b6001600160a01b03808316600090815260c96020908152604091829020825160c08101845281548516815260018201549281019290925260028101549384169282019290925260ff600160a01b8404811615156060830152600160a81b909304909216151560808301526003015460a082015261090490611105565b92915050565b60655433906001600160a01b031681146109785760405162461bcd60e51b815260206004820152602960248201527f4f776e61626c6532537465703a2063616c6c6572206973206e6f7420746865206044820152683732bb9037bbb732b960b91b6064820152608401610432565b6103ee816110ec565b600054610100900460ff16158080156109a15750600054600160ff909116105b806109bb5750303b1580156109bb575060005460ff166001145b610a1e5760405162461bcd60e51b815260206004820152602e60248201527f496e697469616c697a61626c653a20636f6e747261637420697320616c72656160448201526d191e481a5b9a5d1a585b1a5e995960921b6064820152608401610432565b6000805460ff191660011790558015610a41576000805461ff0019166101001790555b610a4a82611381565b8015610a91576000805461ff0019169055604051600181527f7f26b83ff96e1f2b6a682f133852f6798a09c465da95921460cefb3847402498906020015b60405180910390a15b5050565b80516001600160a01b038116610ae55760405162461bcd60e51b815260206004820152601560248201527463616e2774206265207a65726f206164647265737360581b6044820152606401610432565b60408201516001600160a01b038116610b385760405162461bcd60e51b815260206004820152601560248201527463616e2774206265207a65726f206164647265737360581b6044820152606401610432565b610b766040518060400160405280601b81526020017f736574546f6b656e436f6e66696728546f6b656e436f6e6669672900000000008152506113b9565b8260a00151600003610bca5760405162461bcd60e51b815260206004820152601e60248201527f616e63686f7220706572696f64206d75737420626520706f73697469766500006044820152606401610432565b82600001516001600160a01b031663313ce5676040518163ffffffff1660e01b8152600401602060405180830381865afa158015610c0c573d6000803e3d6000fd5b505050506040513d601f19601f82011682018060405250810190610c309190611aaf565b610c3b90600a611c02565b836020015114610ca75760405162461bcd60e51b815260206004820152603160248201527f6261736520756e697420646563696d616c73206d7573742062652073616d6520604482015270617320617373657420646563696d616c7360781b6064820152608401610432565b6000610cb284610477565b84516001600160a01b03908116600090815260cb6020908152604080832081518083018352428152808401878152825460018181018555938752858720925160029182029093019283559051918301919091558a518616855260c984528285208b5181549088166001600160a01b031990911681178255948c015192810192909255828b0151908201805460608d015160808e01511515600160a81b0260ff60a81b19911515600160a01b026001600160a81b03199093169490991693841791909117169690961790955560a08a0151600390910181905590519495509390917f3cc8d9cb9370a23a8b9ffa75efa24cecb65c4693980e58260841adc474983c5f91a450505050565b610dc3610e2c565b606580546001600160a01b0383166001600160a01b03199091168117909155610df46033546001600160a01b031690565b6001600160a01b03167f38d16b8cac22d99fc7c124b9cd0de2d3fa1faef420bfe791d8c362d765e2270060405160405180910390a350565b6033546001600160a01b031633146106635760405162461bcd60e51b815260206004820181905260248201527f4f776e61626c653a2063616c6c6572206973206e6f7420746865206f776e65726044820152606401610432565b6001600160a01b038116610eea5760405162461bcd60e51b815260206004820152602560248201527f696e76616c696420616365737320636f6e74726f6c206d616e61676572206164604482015264647265737360d81b6064820152608401610432565b609780546001600160a01b038381166001600160a01b031983168117909355604080519190921680825260208201939093527f66fd58e82f7b31a2a5c30e0888f3093efe4e111b00cd2b0c31fe014601293aa09101610a88565b6000806000610f51611453565b9050836001600160a01b0316635909c0d56040518163ffffffff1660e01b8152600401602060405180830381865afa158015610f91573d6000803e3d6000fd5b505050506040513d601f19601f82011682018060405250810190610fb59190611c11565b9250836001600160a01b0316635a3d54936040518163ffffffff1660e01b8152600401602060405180830381865afa158015610ff5573d6000803e3d6000fd5b505050506040513d601f19601f820116820180604052508101906110199190611c11565b91506000806000866001600160a01b0316630902f1ac6040518163ffffffff1660e01b8152600401606060405180830381865afa15801561105e573d6000803e3d6000fd5b505050506040513d601f19601f820116820180604052508101906110829190611c41565b9250925092508363ffffffff168163ffffffff16146110e25780840363ffffffff81166110af8486611469565b516001600160e01b031602969096019563ffffffff81166110d08585611469565b516001600160e01b0316029590950194505b5050509193909250565b606580546001600160a01b03191690556103ee81611519565b6000806000806111148561156b565b92509250925080420361114357505091516001600160a01b0316600090815260ca602052604090205492915050565b804210156111935760405162461bcd60e51b815260206004820152601a60248201527f6e6f77206d75737420636f6d65206166746572206265666f72650000000000006044820152606401610432565b60008142039050600060405180602001604052808386886111b49190611ae8565b6111be9190611ca7565b6001600160e01b03169052905060006111d6826117d2565b9050600088606001516111ec57620f42406111f6565b670de0b6b3a76400005b90506000818a602001518461120b9190611beb565b6112159190611ca7565b90508960600151156112c2576001600160a01b037f000000000000000000000000000000000000000000000000000000000000000016600090815260ca6020526040812054908190036112a15760405162461bcd60e51b8152602060048201526014602482015273195d1a081c1c9a58d9481a5cc81a5b9d985b1a5960621b6044820152606401610432565b670de0b6b3a76400006112b48284611beb565b6112be9190611ca7565b9150505b8060000361130b5760405162461bcd60e51b81526020600482015260166024820152750747761702070726963652063616e6e6f7420626520360541b6044820152606401610432565b89516040805183815260208101899052428183015290516001600160a01b03909216917f7d881580fb2bb7844e8ecf8df26510247c4bbea2735d40bf0d9ac33c0d9acd819181900360600190a298516001600160a01b0316600090815260ca602052604090208990555096979650505050505050565b600054610100900460ff166113a85760405162461bcd60e51b815260040161043290611cbb565b6113b06117f2565b6103ee81611821565b6097546040516318c5e8ab60e01b81526000916001600160a01b0316906318c5e8ab906113ec9033908690600401611d4c565b602060405180830381865afa158015611409573d6000803e3d6000fd5b505050506040513d601f19601f8201168201806040525081019061142d9190611d70565b905080610a9157333083604051634a3fa29360e01b815260040161043293929190611d8d565b600061146464010000000042611dc2565b905090565b6040805160208101909152600081526000826001600160701b0316116114d15760405162461bcd60e51b815260206004820152601760248201527f4669786564506f696e743a204449565f42595f5a45524f0000000000000000006044820152606401610432565b6040805160208101909152806115076001600160701b0385166dffffffffffffffffffffffffffff60701b607088901b16611dd6565b6001600160e01b031690529392505050565b603380546001600160a01b038381166001600160a01b0319831681179093556040519116919082907f8be0079c531659141344cd1fd0a4f28419497f9722a3daafe3b4186f6b6457e090600090a35050565b60008060008061157a85610477565b60a086015190915042906000906115919083611ae8565b87516001600160a01b0316600090815260cb6020908152604080832080548251818502810185019093528083529495509293909291849084015b82821015611611578382906000526020600020906002020160405180604001604052908160008201548152602001600182015481525050815260200190600101906115cb565b505082518b516001600160a01b0316600090815260cc6020526040902054939450929150505b81811015611725578383828151811061165257611652611a99565b6020026020010151600001511015806116745750611671600183611ae8565b81145b156116dc5782818151811061168b5761168b611a99565b60200260200101516020015197508281815181106116ab576116ab611a99565b602090810291909101810151518b516001600160a01b0316600090815260cc90925260409091208290559650611725565b89516001600160a01b0316600090815260cb6020526040902080548290811061170757611707611a99565b60009182526020822060029091020181815560010155600101611637565b5088516001600160a01b03908116600090815260cb60209081526040808320815180830183528981528084018b81528254600180820185559387529585902091516002909602909101948555519301929092558b5182518a81529182018b90524292820192909252606081018890529116907f87208a84ec7402c933c70c261e53b733a9f1c893d73e941a152435d58177a2649060800160405180910390a2509295505050509193909250565b8051600090610904906612725dd1d243ab906001600160e01b0316611ca7565b600054610100900460ff166118195760405162461bcd60e51b815260040161043290611cbb565b610663611848565b600054610100900460ff166103e55760405162461bcd60e51b815260040161043290611cbb565b600054610100900460ff1661186f5760405162461bcd60e51b815260040161043290611cbb565b610663336110ec565b80356001600160a01b038116811461188f57600080fd5b919050565b600080604083850312156118a757600080fd5b6118b083611878565b946020939093013593505050565b6000602082840312156118d057600080fd5b6118d982611878565b9392505050565b634e487b7160e01b600052604160045260246000fd5b604051601f8201601f1916810167ffffffffffffffff8111828210171561191f5761191f6118e0565b604052919050565b80151581146103ee57600080fd5b600060c0828403121561194757600080fd5b60405160c0810181811067ffffffffffffffff8211171561196a5761196a6118e0565b60405290508061197983611878565b81526020830135602082015261199160408401611878565b604082015260608301356119a481611927565b606082015260808301356119b781611927565b608082015260a092830135920191909152919050565b600060208083850312156119e057600080fd5b823567ffffffffffffffff808211156119f857600080fd5b818501915085601f830112611a0c57600080fd5b813581811115611a1e57611a1e6118e0565b611a2c848260051b016118f6565b818152848101925060c0918202840185019188831115611a4b57600080fd5b938501935b82851015611a7157611a628986611935565b84529384019392850192611a50565b50979650505050505050565b600060c08284031215611a8f57600080fd5b6118d98383611935565b634e487b7160e01b600052603260045260246000fd5b600060208284031215611ac157600080fd5b815160ff811681146118d957600080fd5b634e487b7160e01b600052601160045260246000fd5b8181038181111561090457610904611ad2565b600181815b80851115611b36578160001904821115611b1c57611b1c611ad2565b80851615611b2957918102915b93841c9390800290611b00565b509250929050565b600082611b4d57506001610904565b81611b5a57506000610904565b8160018114611b705760028114611b7a57611b96565b6001915050610904565b60ff841115611b8b57611b8b611ad2565b50506001821b610904565b5060208310610133831016604e8410600b8410161715611bb9575081810a610904565b611bc38383611afb565b8060001904821115611bd757611bd7611ad2565b029392505050565b60006118d98383611b3e565b808202811582820484141761090457610904611ad2565b60006118d960ff841683611b3e565b600060208284031215611c2357600080fd5b5051919050565b80516001600160701b038116811461188f57600080fd5b600080600060608486031215611c5657600080fd5b611c5f84611c2a565b9250611c6d60208501611c2a565b9150604084015163ffffffff81168114611c8657600080fd5b809150509250925092565b634e487b7160e01b600052601260045260246000fd5b600082611cb657611cb6611c91565b500490565b6020808252602b908201527f496e697469616c697a61626c653a20636f6e7472616374206973206e6f74206960408201526a6e697469616c697a696e6760a81b606082015260800190565b6000815180845260005b81811015611d2c57602081850181015186830182015201611d10565b506000602082860101526020601f19601f83011685010191505092915050565b6001600160a01b038316815260406020820181905260009061064990830184611d06565b600060208284031215611d8257600080fd5b81516118d981611927565b6001600160a01b03848116825283166020820152606060408201819052600090611db990830184611d06565b95945050505050565b600082611dd157611dd1611c91565b500690565b60006001600160e01b0383811680611df057611df0611c91565b9216919091049291505056fea26469706673582212201e6b6e6dacb7510420e5b317b6a39e1db43f2e115522107ea52db4c14a45a74064736f6c63430008190033",
  "devdoc": {
    "author": "Enclabs",
    "events": {
      "Initialized(uint8)": {
        "details": "Triggered when the contract has been initialized or reinitialized."
      }
    },
    "kind": "dev",
    "methods": {
      "acceptOwnership()": {
        "details": "The new owner accepts the ownership transfer."
      },
      "constructor": {
        "custom:oz-upgrades-unsafe-allow": "constructor",
        "params": {
          "wEthAddress": "The address of the WETH"
        }
      },
      "currentCumulativePrice((address,uint256,address,bool,bool,uint256))": {
        "returns": {
          "_0": "cumulative price of target token regardless of pair order"
        }
      },
      "getPrice(address)": {
        "custom:error": "Missing error is thrown if the token config does not existRange error is thrown if TWAP price is not greater than zero",
        "params": {
          "asset": "asset address"
        },
        "returns": {
          "_0": "price asset price in USD"
        }
      },
      "initialize(address)": {
        "params": {
          "accessControlManager_": "Address of the access control manager contract"
        }
      },
      "owner()": {
        "details": "Returns the address of the current owner."
      },
      "pendingOwner()": {
        "details": "Returns the address of the pending owner."
      },
      "renounceOwnership()": {
        "details": "Leaves the contract without owner. It will not be possible to call `onlyOwner` functions. Can only be called by the current owner. NOTE: Renouncing ownership will leave the contract without an owner, thereby disabling any functionality that is only available to the owner."
      },
      "setAccessControlManager(address)": {
        "custom:access": "Only Governance",
        "custom:event": "Emits NewAccessControlManager event",
        "details": "Admin function to set address of AccessControlManager",
        "params": {
          "accessControlManager_": "The new address of the AccessControlManager"
        }
      },
      "setTokenConfig((address,uint256,address,bool,bool,uint256))": {
        "custom:access": "Only Governance",
        "custom:error": "Range error is thrown if anchor period is not greater than zeroRange error is thrown if base unit is not greater than zeroValue error is thrown if base unit decimals is not the same as asset decimalsNotNullAddress error is thrown if address of asset is nullNotNullAddress error is thrown if UniswapSwap pool address is null",
        "custom:event": "Emits TokenConfigAdded event if new token config are added with asset address, UniswapPool address, anchor period address",
        "params": {
          "config": "token config struct"
        }
      },
      "setTokenConfigs((address,uint256,address,bool,bool,uint256)[])": {
        "custom:error": "Zero length error thrown, if length of the config array is 0",
        "params": {
          "configs": "Config array"
        }
      },
      "transferOwnership(address)": {
        "details": "Starts the ownership transfer of the contract to a new account. Replaces the pending transfer if there is one. Can only be called by the current owner."
      },
      "updateTwap(address)": {
        "custom:error": "Missing error is thrown if token config does not exist",
        "returns": {
          "_0": "anchorPrice anchor price of the asset"
        }
      }
    },
    "stateVariables": {
      "WETH": {
        "custom:oz-upgrades-unsafe-allow": "state-variable-immutable"
      }
    },
    "title": "TwapOracle",
    "version": 1
  },
  "userdoc": {
    "errors": {
      "Unauthorized(address,address,string)": [
        {
          "notice": "Thrown when the action is prohibited by AccessControlManager"
        }
      ]
    },
    "events": {
      "AnchorPriceUpdated(address,uint256,uint256,uint256)": {
        "notice": "Emit this event when TWAP price is updated"
      },
      "NewAccessControlManager(address,address)": {
        "notice": "Emitted when access control manager contract address is changed"
      },
      "TokenConfigAdded(address,address,uint256)": {
        "notice": "Emit this event when new token configs are added"
      },
      "TwapWindowUpdated(address,uint256,uint256,uint256,uint256)": {
        "notice": "Emit this event when TWAP window is updated"
      }
    },
    "kind": "user",
    "methods": {
      "ETH_ADDR()": {
        "notice": "Set this as asset address for ETH. This is the underlying for vETH"
      },
      "ETH_BASE_UNIT()": {
        "notice": "the base unit of WETH and USDC, which are the paired tokens for all assets"
      },
      "WETH()": {
        "notice": "WETH address"
      },
      "accessControlManager()": {
        "notice": "Returns the address of the access control manager contract"
      },
      "constructor": {
        "notice": "Constructor for the implementation contract. Sets immutable variables."
      },
      "currentCumulativePrice((address,uint256,address,bool,bool,uint256))": {
        "notice": "Fetches the current token/WETH and token/USDC price accumulator from UniswapSwap."
      },
      "getPrice(address)": {
        "notice": "Get the TWAP price for the given asset"
      },
      "initialize(address)": {
        "notice": "Initializes the owner of the contract"
      },
      "observations(address,uint256)": {
        "notice": "Keeps a record of token observations mapped by address, updated on every updateTwap invocation."
      },
      "prices(address)": {
        "notice": "Stored price by token"
      },
      "setAccessControlManager(address)": {
        "notice": "Sets the address of AccessControlManager"
      },
      "setTokenConfig((address,uint256,address,bool,bool,uint256))": {
        "notice": "Adds a single token config"
      },
      "setTokenConfigs((address,uint256,address,bool,bool,uint256)[])": {
        "notice": "Adds multiple token configs at the same time"
      },
      "tokenConfigs(address)": {
        "notice": "Configs by token"
      },
      "updateTwap(address)": {
        "notice": "Updates the current token/USDC price from UniswapSwap, with 18 decimals of precision."
      },
      "windowStart(address)": {
        "notice": "Observation array index which probably falls in current anchor period mapped by asset address"
      }
    },
    "notice": "This oracle fetches price of assets from UniswapSwap.",
    "version": 1
  },
  "storageLayout": {
    "storage": [
      {
        "astId": 246,
        "contract": "contracts/Oracle/TwapOracle.sol:TwapOracle",
        "label": "_initialized",
        "offset": 0,
        "slot": "0",
        "type": "t_uint8"
      },
      {
        "astId": 249,
        "contract": "contracts/Oracle/TwapOracle.sol:TwapOracle",
        "label": "_initializing",
        "offset": 1,
        "slot": "0",
        "type": "t_bool"
      },
      {
        "astId": 788,
        "contract": "contracts/Oracle/TwapOracle.sol:TwapOracle",
        "label": "__gap",
        "offset": 0,
        "slot": "1",
        "type": "t_array(t_uint256)50_storage"
      },
      {
        "astId": 118,
        "contract": "contracts/Oracle/TwapOracle.sol:TwapOracle",
        "label": "_owner",
        "offset": 0,
        "slot": "51",
        "type": "t_address"
      },
      {
        "astId": 238,
        "contract": "contracts/Oracle/TwapOracle.sol:TwapOracle",
        "label": "__gap",
        "offset": 0,
        "slot": "52",
        "type": "t_array(t_uint256)49_storage"
      },
      {
        "astId": 11,
        "contract": "contracts/Oracle/TwapOracle.sol:TwapOracle",
        "label": "_pendingOwner",
        "offset": 0,
        "slot": "101",
        "type": "t_address"
      },
      {
        "astId": 105,
        "contract": "contracts/Oracle/TwapOracle.sol:TwapOracle",
        "label": "__gap",
        "offset": 0,
        "slot": "102",
        "type": "t_array(t_uint256)49_storage"
      },
      {
        "astId": 979,
        "contract": "contracts/Oracle/TwapOracle.sol:TwapOracle",
        "label": "_accessControlManager",
        "offset": 0,
        "slot": "151",
        "type": "t_contract(IAccessControlManagerV8)1164"
      },
      {
        "astId": 984,
        "contract": "contracts/Oracle/TwapOracle.sol:TwapOracle",
        "label": "__gap",
        "offset": 0,
        "slot": "152",
        "type": "t_array(t_uint256)49_storage"
      },
      {
        "astId": 1286,
        "contract": "contracts/Oracle/TwapOracle.sol:TwapOracle",
        "label": "tokenConfigs",
        "offset": 0,
        "slot": "201",
        "type": "t_mapping(t_address,t_struct(TokenConfig)1266_storage)"
      },
      {
        "astId": 1291,
        "contract": "contracts/Oracle/TwapOracle.sol:TwapOracle",
        "label": "prices",
        "offset": 0,
        "slot": "202",
        "type": "t_mapping(t_address,t_uint256)"
      },
      {
        "astId": 1298,
        "contract": "contracts/Oracle/TwapOracle.sol:TwapOracle",
        "label": "observations",
        "offset": 0,
        "slot": "203",
        "type": "t_mapping(t_address,t_array(t_struct(Observation)1247_storage)dyn_storage)"
      },
      {
        "astId": 1303,
        "contract": "contracts/Oracle/TwapOracle.sol:TwapOracle",
        "label": "windowStart",
        "offset": 0,
        "slot": "204",
        "type": "t_mapping(t_address,t_uint256)"
      }
    ],
    "types": {
      "t_address": {
        "encoding": "inplace",
        "label": "address",
        "numberOfBytes": "20"
      },
      "t_array(t_struct(Observation)1247_storage)dyn_storage": {
        "base": "t_struct(Observation)1247_storage",
        "encoding": "dynamic_array",
        "label": "struct TwapOracle.Observation[]",
        "numberOfBytes": "32"
      },
      "t_array(t_uint256)49_storage": {
        "base": "t_uint256",
        "encoding": "inplace",
        "label": "uint256[49]",
        "numberOfBytes": "1568"
      },
      "t_array(t_uint256)50_storage": {
        "base": "t_uint256",
        "encoding": "inplace",
        "label": "uint256[50]",
        "numberOfBytes": "1600"
      },
      "t_bool": {
        "encoding": "inplace",
        "label": "bool",
        "numberOfBytes": "1"
      },
      "t_contract(IAccessControlManagerV8)1164": {
        "encoding": "inplace",
        "label": "contract IAccessControlManagerV8",
        "numberOfBytes": "20"
      },
      "t_mapping(t_address,t_array(t_struct(Observation)1247_storage)dyn_storage)": {
        "encoding": "mapping",
        "key": "t_address",
        "label": "mapping(address => struct TwapOracle.Observation[])",
        "numberOfBytes": "32",
        "value": "t_array(t_struct(Observation)1247_storage)dyn_storage"
      },
      "t_mapping(t_address,t_struct(TokenConfig)1266_storage)": {
        "encoding": "mapping",
        "key": "t_address",
        "label": "mapping(address => struct TwapOracle.TokenConfig)",
        "numberOfBytes": "32",
        "value": "t_struct(TokenConfig)1266_storage"
      },
      "t_mapping(t_address,t_uint256)": {
        "encoding": "mapping",
        "key": "t_address",
        "label": "mapping(address => uint256)",
        "numberOfBytes": "32",
        "value": "t_uint256"
      },
      "t_struct(Observation)1247_storage": {
        "encoding": "inplace",
        "label": "struct TwapOracle.Observation",
        "members": [
          {
            "astId": 1244,
            "contract": "contracts/Oracle/TwapOracle.sol:TwapOracle",
            "label": "timestamp",
            "offset": 0,
            "slot": "0",
            "type": "t_uint256"
          },
          {
            "astId": 1246,
            "contract": "contracts/Oracle/TwapOracle.sol:TwapOracle",
            "label": "acc",
            "offset": 0,
            "slot": "1",
            "type": "t_uint256"
          }
        ],
        "numberOfBytes": "64"
      },
      "t_struct(TokenConfig)1266_storage": {
        "encoding": "inplace",
        "label": "struct TwapOracle.TokenConfig",
        "members": [
          {
            "astId": 1250,
            "contract": "contracts/Oracle/TwapOracle.sol:TwapOracle",
            "label": "asset",
            "offset": 0,
            "slot": "0",
            "type": "t_address"
          },
          {
            "astId": 1253,
            "contract": "contracts/Oracle/TwapOracle.sol:TwapOracle",
            "label": "baseUnit",
            "offset": 0,
            "slot": "1",
            "type": "t_uint256"
          },
          {
            "astId": 1256,
            "contract": "contracts/Oracle/TwapOracle.sol:TwapOracle",
            "label": "uniswapPool",
            "offset": 0,
            "slot": "2",
            "type": "t_address"
          },
          {
            "astId": 1259,
            "contract": "contracts/Oracle/TwapOracle.sol:TwapOracle",
            "label": "isEthBased",
            "offset": 20,
            "slot": "2",
            "type": "t_bool"
          },
          {
            "astId": 1262,
            "contract": "contracts/Oracle/TwapOracle.sol:TwapOracle",
            "label": "isReversedPool",
            "offset": 21,
            "slot": "2",
            "type": "t_bool"
          },
          {
            "astId": 1265,
            "contract": "contracts/Oracle/TwapOracle.sol:TwapOracle",
            "label": "anchorPeriod",
            "offset": 0,
            "slot": "3",
            "type": "t_uint256"
          }
        ],
        "numberOfBytes": "128"
      },
      "t_uint256": {
        "encoding": "inplace",
        "label": "uint256",
        "numberOfBytes": "32"
      },
      "t_uint8": {
        "encoding": "inplace",
        "label": "uint8",
        "numberOfBytes": "1"
      }
    }
  }
}