{
  "address": "0x9b5e95dd528F378cd03CfAa4780fDA38f89c5C3F",
  "abi": [
    {
      "inputs": [
        {
          "internalType": "address",
          "name": "_uniswapV3Factory",
          "type": "address"
        },
        {
          "internalType": "address",
          "name": "resilientOracle",
          "type": "address"
        }
      ],
      "stateMutability": "nonpayable",
      "type": "constructor"
    },
    {
      "inputs": [],
      "name": "InvalidDuration",
      "type": "error"
    },
    {
      "inputs": [],
      "name": "InvalidTokenAddress",
      "type": "error"
    },
    {
      "inputs": [],
      "name": "PriceOracle_InvalidConfiguration",
      "type": "error"
    },
    {
      "inputs": [],
      "name": "PriceOracle_Overflow",
      "type": "error"
    },
    {
      "inputs": [],
      "name": "T",
      "type": "error"
    },
    {
      "inputs": [
        {
          "internalType": "address",
          "name": "sender",
          "type": "address"
        },
        {
          "internalType": "address",
          "name": "calledContract",
          "type": "address"
        },
        {
          "internalType": "string",
          "name": "methodSignature",
          "type": "string"
        }
      ],
      "name": "Unauthorized",
      "type": "error"
    },
    {
      "anonymous": false,
      "inputs": [
        {
          "indexed": false,
          "internalType": "uint8",
          "name": "version",
          "type": "uint8"
        }
      ],
      "name": "Initialized",
      "type": "event"
    },
    {
      "anonymous": false,
      "inputs": [
        {
          "indexed": false,
          "internalType": "address",
          "name": "oldAccessControlManager",
          "type": "address"
        },
        {
          "indexed": false,
          "internalType": "address",
          "name": "newAccessControlManager",
          "type": "address"
        }
      ],
      "name": "NewAccessControlManager",
      "type": "event"
    },
    {
      "anonymous": false,
      "inputs": [
        {
          "indexed": true,
          "internalType": "address",
          "name": "previousOwner",
          "type": "address"
        },
        {
          "indexed": true,
          "internalType": "address",
          "name": "newOwner",
          "type": "address"
        }
      ],
      "name": "OwnershipTransferStarted",
      "type": "event"
    },
    {
      "anonymous": false,
      "inputs": [
        {
          "indexed": true,
          "internalType": "address",
          "name": "previousOwner",
          "type": "address"
        },
        {
          "indexed": true,
          "internalType": "address",
          "name": "newOwner",
          "type": "address"
        }
      ],
      "name": "OwnershipTransferred",
      "type": "event"
    },
    {
      "anonymous": false,
      "inputs": [
        {
          "indexed": true,
          "internalType": "address",
          "name": "asset",
          "type": "address"
        },
        {
          "indexed": false,
          "internalType": "uint256",
          "name": "previousPriceMantissa",
          "type": "uint256"
        },
        {
          "indexed": false,
          "internalType": "uint256",
          "name": "newPriceMantissa",
          "type": "uint256"
        }
      ],
      "name": "PricePosted",
      "type": "event"
    },
    {
      "anonymous": false,
      "inputs": [
        {
          "indexed": false,
          "internalType": "address",
          "name": "baseToken",
          "type": "address"
        },
        {
          "indexed": false,
          "internalType": "address",
          "name": "quoteToken",
          "type": "address"
        },
        {
          "indexed": false,
          "internalType": "address",
          "name": "tokenA",
          "type": "address"
        },
        {
          "indexed": false,
          "internalType": "address",
          "name": "tokenB",
          "type": "address"
        },
        {
          "indexed": false,
          "internalType": "uint24",
          "name": "fee",
          "type": "uint24"
        },
        {
          "indexed": false,
          "internalType": "uint32",
          "name": "twapWindow",
          "type": "uint32"
        },
        {
          "indexed": false,
          "internalType": "address",
          "name": "pool",
          "type": "address"
        }
      ],
      "name": "TokenConfigAdded",
      "type": "event"
    },
    {
      "inputs": [],
      "name": "NATIVE_TOKEN_ADDR",
      "outputs": [
        {
          "internalType": "address",
          "name": "",
          "type": "address"
        }
      ],
      "stateMutability": "view",
      "type": "function"
    },
    {
      "inputs": [],
      "name": "RESILIENT_ORACLE",
      "outputs": [
        {
          "internalType": "contract OracleInterface",
          "name": "",
          "type": "address"
        }
      ],
      "stateMutability": "view",
      "type": "function"
    },
    {
      "inputs": [],
      "name": "acceptOwnership",
      "outputs": [],
      "stateMutability": "nonpayable",
      "type": "function"
    },
    {
      "inputs": [],
      "name": "accessControlManager",
      "outputs": [
        {
          "internalType": "contract IAccessControlManagerV8",
          "name": "",
          "type": "address"
        }
      ],
      "stateMutability": "view",
      "type": "function"
    },
    {
      "inputs": [
        {
          "internalType": "address",
          "name": "asset",
          "type": "address"
        }
      ],
      "name": "getPrice",
      "outputs": [
        {
          "internalType": "uint256",
          "name": "",
          "type": "uint256"
        }
      ],
      "stateMutability": "view",
      "type": "function"
    },
    {
      "inputs": [
        {
          "internalType": "address",
          "name": "accessControlManager_",
          "type": "address"
        }
      ],
      "name": "initialize",
      "outputs": [],
      "stateMutability": "nonpayable",
      "type": "function"
    },
    {
      "inputs": [],
      "name": "owner",
      "outputs": [
        {
          "internalType": "address",
          "name": "",
          "type": "address"
        }
      ],
      "stateMutability": "view",
      "type": "function"
    },
    {
      "inputs": [],
      "name": "pendingOwner",
      "outputs": [
        {
          "internalType": "address",
          "name": "",
          "type": "address"
        }
      ],
      "stateMutability": "view",
      "type": "function"
    },
    {
      "inputs": [
        {
          "internalType": "address",
          "name": "",
          "type": "address"
        }
      ],
      "name": "prices",
      "outputs": [
        {
          "internalType": "uint256",
          "name": "",
          "type": "uint256"
        }
      ],
      "stateMutability": "view",
      "type": "function"
    },
    {
      "inputs": [],
      "name": "renounceOwnership",
      "outputs": [],
      "stateMutability": "nonpayable",
      "type": "function"
    },
    {
      "inputs": [
        {
          "internalType": "address",
          "name": "accessControlManager_",
          "type": "address"
        }
      ],
      "name": "setAccessControlManager",
      "outputs": [],
      "stateMutability": "nonpayable",
      "type": "function"
    },
    {
      "inputs": [
        {
          "components": [
            {
              "internalType": "address",
              "name": "tokenA",
              "type": "address"
            },
            {
              "internalType": "address",
              "name": "tokenB",
              "type": "address"
            },
            {
              "internalType": "uint24",
              "name": "fee",
              "type": "uint24"
            },
            {
              "internalType": "uint32",
              "name": "twapWindow",
              "type": "uint32"
            },
            {
              "internalType": "address",
              "name": "baseToken",
              "type": "address"
            },
            {
              "internalType": "address",
              "name": "quoteToken",
              "type": "address"
            },
            {
              "internalType": "address",
              "name": "pool",
              "type": "address"
            }
          ],
          "internalType": "struct UniswapV3Oracle.TokenConfig",
          "name": "tokenConfig",
          "type": "tuple"
        }
      ],
      "name": "setTokenConfig",
      "outputs": [],
      "stateMutability": "nonpayable",
      "type": "function"
    },
    {
      "inputs": [
        {
          "components": [
            {
              "internalType": "address",
              "name": "tokenA",
              "type": "address"
            },
            {
              "internalType": "address",
              "name": "tokenB",
              "type": "address"
            },
            {
              "internalType": "uint24",
              "name": "fee",
              "type": "uint24"
            },
            {
              "internalType": "uint32",
              "name": "twapWindow",
              "type": "uint32"
            },
            {
              "internalType": "address",
              "name": "baseToken",
              "type": "address"
            },
            {
              "internalType": "address",
              "name": "quoteToken",
              "type": "address"
            },
            {
              "internalType": "address",
              "name": "pool",
              "type": "address"
            }
          ],
          "internalType": "struct UniswapV3Oracle.TokenConfig[]",
          "name": "tokenConfigs_",
          "type": "tuple[]"
        }
      ],
      "name": "setTokenConfigs",
      "outputs": [],
      "stateMutability": "nonpayable",
      "type": "function"
    },
    {
      "inputs": [
        {
          "internalType": "address",
          "name": "",
          "type": "address"
        }
      ],
      "name": "tokenConfigs",
      "outputs": [
        {
          "internalType": "address",
          "name": "tokenA",
          "type": "address"
        },
        {
          "internalType": "address",
          "name": "tokenB",
          "type": "address"
        },
        {
          "internalType": "uint24",
          "name": "fee",
          "type": "uint24"
        },
        {
          "internalType": "uint32",
          "name": "twapWindow",
          "type": "uint32"
        },
        {
          "internalType": "address",
          "name": "baseToken",
          "type": "address"
        },
        {
          "internalType": "address",
          "name": "quoteToken",
          "type": "address"
        },
        {
          "internalType": "address",
          "name": "pool",
          "type": "address"
        }
      ],
      "stateMutability": "view",
      "type": "function"
    },
    {
      "inputs": [
        {
          "internalType": "address",
          "name": "newOwner",
          "type": "address"
        }
      ],
      "name": "transferOwnership",
      "outputs": [],
      "stateMutability": "nonpayable",
      "type": "function"
    },
    {
      "inputs": [],
      "name": "uniswapV3Factory",
      "outputs": [
        {
          "internalType": "address",
          "name": "",
          "type": "address"
        }
      ],
      "stateMutability": "view",
      "type": "function"
    }
  ],
  "transactionHash": "0x474a6179d1a189e3154a42c921b687c47ea7599babaab41fcb37d2f48b8eb5c0",
  "args": [
    "0x1F98431c8aD98523631AE4a59f267346ea31F984",
    "0x133C4908A88e38460E85Cf06aD71D7E0d8A3A399"
  ],
  "numDeployments": 1,
  "solcInputHash": "610417661c3c89fbacba9bf7f10fa43e",
  "bytecode": "0x60c060405234801561001057600080fd5b50604051611dff380380611dff83398101604081905261002f9161012c565b6001600160a01b0380831660a052811660805261004a610051565b505061015f565b600054610100900460ff16156100bd5760405162461bcd60e51b815260206004820152602760248201527f496e697469616c697a61626c653a20636f6e747261637420697320696e697469604482015266616c697a696e6760c81b606482015260840160405180910390fd5b60005460ff9081161461010e576000805460ff191660ff9081179091556040519081527f7f26b83ff96e1f2b6a682f133852f6798a09c465da95921460cefb38474024989060200160405180910390a15b565b80516001600160a01b038116811461012757600080fd5b919050565b6000806040838503121561013f57600080fd5b61014883610110565b915061015660208401610110565b90509250929050565b60805160a051611c6d610192600039600081816102010152610871015260008181610261015261048b0152611c6d6000f3fe608060405234801561001057600080fd5b50600436106101005760003560e01c8063a9534f8a11610097578063e30c397811610066578063e30c3978146102e2578063eddbb8d2146102f3578063f2fde38b14610306578063fadfbfcd1461031957600080fd5b8063a9534f8a14610283578063b4a0bdf31461029e578063c4d66de8146102af578063cfed246b146102c257600080fd5b8063715018a6116100d3578063715018a61461023b57806379ba5097146102435780638da5cb5b1461024b578063a4edcd4c1461025c57600080fd5b80630e32cb86146101055780631b69dc5f1461011a57806341976e09146101db5780635b549182146101fc575b600080fd5b6101186101133660046114db565b61032c565b005b6101836101283660046114db565b60ca60205260009081526040902080546001820154600283015460038401546004909401546001600160a01b039384169484841694600160a01b850462ffffff1694600160b81b900463ffffffff1693811692918116911687565b604080516001600160a01b039889168152968816602088015262ffffff9095169486019490945263ffffffff909216606085015284166080840152831660a08301529190911660c082015260e0015b60405180910390f35b6101ee6101e93660046114db565b610340565b6040519081526020016101d2565b6102237f000000000000000000000000000000000000000000000000000000000000000081565b6040516001600160a01b0390911681526020016101d2565b610118610523565b610118610537565b6033546001600160a01b0316610223565b6102237f000000000000000000000000000000000000000000000000000000000000000081565b61022373bbbbbbbbbbbbbbbbbbbbbbbbbbbbbbbbbbbbbbbb81565b6097546001600160a01b0316610223565b6101186102bd3660046114db565b6105b3565b6101ee6102d03660046114db565b60c96020526000908152604090205481565b6065546001600160a01b0316610223565b61011861030136600461161d565b6106c7565b6101186103143660046114db565b610a5f565b61011861032736600461165d565b610ad0565b610334610b51565b61033d81610bab565b50565b6001600160a01b03818116600090815260ca602052604081206002015490911661037d57604051630f58058360e11b815260040160405180910390fd5b6001600160a01b03808316600090815260ca6020908152604080832060020154815163313ce56760e01b81529151941693849263313ce56792600480820193918290030181865afa1580156103d6573d6000803e3d6000fd5b505050506040513d601f19601f820116820180604052508101906103fa9190611703565b60ff169050600061045361040f83600a611822565b6001600160a01b03878116600090815260ca6020526040902060028101546003820154600190920154908316929190911690600160b81b900463ffffffff16610c69565b6001600160a01b03868116600090815260ca60205260408082206003015490516341976e0960e01b81529083166004820152929350917f0000000000000000000000000000000000000000000000000000000000000000909116906341976e0990602401602060405180830381865afa1580156104d4573d6000803e3d6000fd5b505050506040513d601f19601f820116820180604052508101906104f8919061182e565b905061050583600a611822565b61050f8284611847565b6105199190611874565b9695505050505050565b61052b610b51565b6105356000610e0f565b565b60655433906001600160a01b031681146105aa5760405162461bcd60e51b815260206004820152602960248201527f4f776e61626c6532537465703a2063616c6c6572206973206e6f7420746865206044820152683732bb9037bbb732b960b91b60648201526084015b60405180910390fd5b61033d81610e0f565b600054610100900460ff16158080156105d35750600054600160ff909116105b806105ed5750303b1580156105ed575060005460ff166001145b6106505760405162461bcd60e51b815260206004820152602e60248201527f496e697469616c697a61626c653a20636f6e747261637420697320616c72656160448201526d191e481a5b9a5d1a585b1a5e995960921b60648201526084016105a1565b6000805460ff191660011790558015610673576000805461ff0019166101001790555b61067c82610e28565b80156106c3576000805461ff0019169055604051600181527f7f26b83ff96e1f2b6a682f133852f6798a09c465da95921460cefb3847402498906020015b60405180910390a15b5050565b80516001600160a01b0381166106ef5760405162461bcd60e51b81526004016105a190611888565b60208201516001600160a01b03811661071a5760405162461bcd60e51b81526004016105a190611888565b60808301516001600160a01b0381166107455760405162461bcd60e51b81526004016105a190611888565b60a08401516001600160a01b0381166107705760405162461bcd60e51b81526004016105a190611888565b6107ae6040518060400160405280601b81526020017f736574546f6b656e436f6e66696728546f6b656e436f6e666967290000000000815250610e60565b612710856040015162ffffff1611806107c5575060005b156107e3576040516301a4c16560e21b815260040160405180910390fd5b61012c63ffffffff16856060015163ffffffff1610806108165750637fffffff63ffffffff16856060015163ffffffff16115b15610834576040516301a4c16560e21b815260040160405180910390fd5b845160208601516040808801519051630b4c774160e11b81526001600160a01b039384166004820152918316602483015262ffffff1660448201527f000000000000000000000000000000000000000000000000000000000000000090911690631698ee8290606401602060405180830381865afa1580156108ba573d6000803e3d6000fd5b505050506040513d601f19601f820116820180604052508101906108de91906118b7565b6001600160a01b031660c0860181905261090b576040516301a4c16560e21b815260040160405180910390fd5b6080850180516001600160a01b03908116600090815260ca6020908152604091829020895181548186166001600160a01b0319918216178355928b0151600183018054868e015160608f015163ffffffff8116600160b81b0263ffffffff60b81b1962ffffff8416600160a01b026001600160b81b0319909516878d16179490941793909316929092179092559751600285018054828a1690881617905560a08e0151600386018054828b1690891617905560c08f015160049096018054998716999097169890981790955594517fbc0acc6b5a9de9f38c0023eb677b18cf0f28cd69d66abd3706bfaf5cdde9ab9397610a50979596939492939290916001600160a01b03978816815295871660208701529386166040860152918516606085015262ffffff16608084015263ffffffff1660a083015290911660c082015260e00190565b60405180910390a15050505050565b610a67610b51565b606580546001600160a01b0383166001600160a01b03199091168117909155610a986033546001600160a01b031690565b6001600160a01b03167f38d16b8cac22d99fc7c124b9cd0de2d3fa1faef420bfe791d8c362d765e2270060405160405180910390a350565b8051600003610b155760405162461bcd60e51b815260206004820152601160248201527006c656e6774682063616e2774206265203607c1b60448201526064016105a1565b805160005b81811015610b4c57610b44838281518110610b3757610b376118d4565b60200260200101516106c7565b600101610b1a565b505050565b6033546001600160a01b031633146105355760405162461bcd60e51b815260206004820181905260248201527f4f776e61626c653a2063616c6c6572206973206e6f7420746865206f776e657260448201526064016105a1565b6001600160a01b038116610c0f5760405162461bcd60e51b815260206004820152602560248201527f696e76616c696420616365737320636f6e74726f6c206d616e61676572206164604482015264647265737360d81b60648201526084016105a1565b609780546001600160a01b038381166001600160a01b031983168117909355604080519190921680825260208201939093527f66fd58e82f7b31a2a5c30e0888f3093efe4e111b00cd2b0c31fe014601293aa091016106ba565b60006001600160801b03851115610c93576040516302950f9560e51b815260040160405180910390fd5b6040805160028082526060820183526000926020830190803683370190505090508281600081518110610cc857610cc86118d4565b63ffffffff9092166020928302919091018201526001600160a01b03808716600090815260ca9092526040808320600490810154915163883bdbfd60e01b8152919092169163883bdbfd91610d1f918691016118ea565b600060405180830381865afa158015610d3c573d6000803e3d6000fd5b505050506040513d6000823e601f3d908101601f19168201604052610d6491908101906119a7565b509050600081600081518110610d7c57610d7c6118d4565b602002602001015182600181518110610d9757610d976118d4565b6020026020010151610da99190611a73565b90506000610dbd63ffffffff871683611aa0565b905060008260060b128015610de35750610ddd63ffffffff871683611ade565b60060b15155b15610df65780610df281611b00565b9150505b610e02818a8a8a610efa565b9998505050505050505050565b606580546001600160a01b031916905561033d81611008565b600054610100900460ff16610e4f5760405162461bcd60e51b81526004016105a190611b23565b610e5761105a565b61033d81611089565b6097546040516318c5e8ab60e01b81526000916001600160a01b0316906318c5e8ab90610e939033908690600401611bb4565b602060405180830381865afa158015610eb0573d6000803e3d6000fd5b505050506040513d601f19601f82011682018060405250810190610ed49190611be0565b9050806106c357333083604051634a3fa29360e01b81526004016105a193929190611c02565b600080610f06866110b0565b90506001600160801b036001600160a01b03821611610f8c576000610f346001600160a01b03831680611847565b9050836001600160a01b0316856001600160a01b031610610f6c57610f67600160c01b876001600160801b0316836113d3565b610f84565b610f8481876001600160801b0316600160c01b6113d3565b925050610fff565b6000610fab6001600160a01b03831680680100000000000000006113d3565b9050836001600160a01b0316856001600160a01b031610610fe357610fde600160801b876001600160801b0316836113d3565b610ffb565b610ffb81876001600160801b0316600160801b6113d3565b9250505b50949350505050565b603380546001600160a01b038381166001600160a01b0319831681179093556040519116919082907f8be0079c531659141344cd1fd0a4f28419497f9722a3daafe3b4186f6b6457e090600090a35050565b600054610100900460ff166110815760405162461bcd60e51b81526004016105a190611b23565b610535611486565b600054610100900460ff166103345760405162461bcd60e51b81526004016105a190611b23565b60008060008360020b126110c7578260020b6110cf565b8260020b6000035b9050620d89e88111156110f5576040516315e4079d60e11b815260040160405180910390fd5b60008160011660000361110c57600160801b61111e565b6ffffcb933bd6fad37aa2d162d1a5940015b70ffffffffffffffffffffffffffffffffff1690506002821615611152576ffff97272373d413259a46990580e213a0260801c5b6004821615611171576ffff2e50f5f656932ef12357cf3c7fdcc0260801c5b6008821615611190576fffe5caca7e10e4e61c3624eaa0941cd00260801c5b60108216156111af576fffcb9843d60f6159c9db58835c9266440260801c5b60208216156111ce576fff973b41fa98c081472e6896dfb254c00260801c5b60408216156111ed576fff2ea16466c96a3843ec78b326b528610260801c5b608082161561120c576ffe5dee046a99a2a811c461f1969c30530260801c5b61010082161561122c576ffcbe86c7900a88aedcffc83b479aa3a40260801c5b61020082161561124c576ff987a7253ac413176f2b074cf7815e540260801c5b61040082161561126c576ff3392b0822b70005940c7a398e4b70f30260801c5b61080082161561128c576fe7159475a2c29b7443b29c7fa6e889d90260801c5b6110008216156112ac576fd097f3bdfd2022b8845ad8f792aa58250260801c5b6120008216156112cc576fa9f746462d870fdf8a65dc1f90e061e50260801c5b6140008216156112ec576f70d869a156d2a1b890bb3df62baf32f70260801c5b61800082161561130c576f31be135f97d08fd981231505542fcfa60260801c5b6201000082161561132d576f09aa508b5b7a84e1c677de54f3e99bc90260801c5b6202000082161561134d576e5d6af8dedb81196699c329225ee6040260801c5b6204000082161561136c576d2216e584f5fa1ea926041bedfe980260801c5b62080000821615611389576b048a170391f7dc42444e8fa20260801c5b60008460020b13156113aa5780600019816113a6576113a661185e565b0490505b6401000000008106156113be5760016113c1565b60005b60ff16602082901c0192505050919050565b600080806000198587098587029250828110838203039150508060000361140c576000841161140157600080fd5b50829004905061147f565b80841161141857600080fd5b6000848688096000868103871696879004966002600389028118808a02820302808a02820302808a02820302808a02820302808a02820302808a02909103029181900381900460010186841190950394909402919094039290920491909117919091029150505b9392505050565b600054610100900460ff166114ad5760405162461bcd60e51b81526004016105a190611b23565b61053533610e0f565b6001600160a01b038116811461033d57600080fd5b80356114d6816114b6565b919050565b6000602082840312156114ed57600080fd5b813561147f816114b6565b634e487b7160e01b600052604160045260246000fd5b60405160e0810167ffffffffffffffff81118282101715611531576115316114f8565b60405290565b604051601f8201601f1916810167ffffffffffffffff81118282101715611560576115606114f8565b604052919050565b803563ffffffff811681146114d657600080fd5b600060e0828403121561158e57600080fd5b61159661150e565b905081356115a3816114b6565b815260208201356115b3816114b6565b6020820152604082013562ffffff811681146115ce57600080fd5b60408201526115df60608301611568565b60608201526115f0608083016114cb565b608082015261160160a083016114cb565b60a082015261161260c083016114cb565b60c082015292915050565b600060e0828403121561162f57600080fd5b61147f838361157c565b600067ffffffffffffffff821115611653576116536114f8565b5060051b60200190565b6000602080838503121561167057600080fd5b823567ffffffffffffffff81111561168757600080fd5b8301601f8101851361169857600080fd5b80356116ab6116a682611639565b611537565b8082825260208201915060e0602060e085028601019350888411156116cf57600080fd5b6020850194505b838510156116f7576116e8898661157c565b835293840193918501916116d6565b50979650505050505050565b60006020828403121561171557600080fd5b815160ff8116811461147f57600080fd5b634e487b7160e01b600052601160045260246000fd5b600181815b8085111561177757816000190482111561175d5761175d611726565b8085161561176a57918102915b93841c9390800290611741565b509250929050565b60008261178e5750600161181c565b8161179b5750600061181c565b81600181146117b157600281146117bb576117d7565b600191505061181c565b60ff8411156117cc576117cc611726565b50506001821b61181c565b5060208310610133831016604e8410600b84101617156117fa575081810a61181c565b611804838361173c565b806000190482111561181857611818611726565b0290505b92915050565b600061147f838361177f565b60006020828403121561184057600080fd5b5051919050565b808202811582820484141761181c5761181c611726565b634e487b7160e01b600052601260045260246000fd5b6000826118835761188361185e565b500490565b60208082526015908201527463616e2774206265207a65726f206164647265737360581b604082015260600190565b6000602082840312156118c957600080fd5b815161147f816114b6565b634e487b7160e01b600052603260045260246000fd5b6020808252825182820181905260009190848201906040850190845b8181101561192857835163ffffffff1683529284019291840191600101611906565b50909695505050505050565b600082601f83011261194557600080fd5b815160206119556116a683611639565b8083825260208201915060208460051b87010193508684111561197757600080fd5b602086015b8481101561199c57805161198f816114b6565b835291830191830161197c565b509695505050505050565b600080604083850312156119ba57600080fd5b825167ffffffffffffffff808211156119d257600080fd5b818501915085601f8301126119e657600080fd5b815160206119f66116a683611639565b82815260059290921b84018101918181019089841115611a1557600080fd5b948201945b83861015611a435785518060060b8114611a345760008081fd5b82529482019490820190611a1a565b91880151919650909350505080821115611a5c57600080fd5b50611a6985828601611934565b9150509250929050565b600682810b9082900b03667fffffffffffff198112667fffffffffffff8213171561181c5761181c611726565b60008160060b8360060b80611ab757611ab761185e565b667fffffffffffff19821460001982141615611ad557611ad5611726565b90059392505050565b60008260060b80611af157611af161185e565b808360060b0791505092915050565b60008160020b627fffff198103611b1957611b19611726565b6000190192915050565b6020808252602b908201527f496e697469616c697a61626c653a20636f6e7472616374206973206e6f74206960408201526a6e697469616c697a696e6760a81b606082015260800190565b6000815180845260005b81811015611b9457602081850181015186830182015201611b78565b506000602082860101526020601f19601f83011685010191505092915050565b6001600160a01b0383168152604060208201819052600090611bd890830184611b6e565b949350505050565b600060208284031215611bf257600080fd5b8151801515811461147f57600080fd5b6001600160a01b03848116825283166020820152606060408201819052600090611c2e90830184611b6e565b9594505050505056fea2646970667358221220ef236621819065a5d17c4033c45fb7e3ce3f5133aac77ca3d4a68df3b78838b664736f6c63430008190033",
  "devdoc": {
    "author": "Enclabs",
    "events": {
      "Initialized(uint8)": {
        "details": "Triggered when the contract has been initialized or reinitialized."
      }
    },
    "kind": "dev",
    "methods": {
      "acceptOwnership()": {
        "details": "The new owner accepts the ownership transfer."
      },
      "constructor": {
        "custom:oz-upgrades-unsafe-allow": "constructor"
      },
      "getPrice(address)": {
        "params": {
          "asset": "Address of the correlated token"
        },
        "returns": {
          "_0": "price The price of the correlated token in scaled decimal places"
        }
      },
      "initialize(address)": {
        "params": {
          "accessControlManager_": "Address of the access control manager contract"
        }
      },
      "owner()": {
        "details": "Returns the address of the current owner."
      },
      "pendingOwner()": {
        "details": "Returns the address of the pending owner."
      },
      "renounceOwnership()": {
        "details": "Leaves the contract without owner. It will not be possible to call `onlyOwner` functions. Can only be called by the current owner. NOTE: Renouncing ownership will leave the contract without an owner, thereby disabling any functionality that is only available to the owner."
      },
      "setAccessControlManager(address)": {
        "custom:access": "Only Governance",
        "custom:event": "Emits NewAccessControlManager event",
        "details": "Admin function to set address of AccessControlManager",
        "params": {
          "accessControlManager_": "The new address of the AccessControlManager"
        }
      },
      "setTokenConfig((address,address,uint24,uint32,address,address,address))": {
        "custom:access": "Only Governance",
        "custom:error": "NotNullAddress error is thrown if tokenA address is nullNotNullAddress error is thrown if tokenB address is nullRange error is thrown if maxStale period of token is not greater than zero",
        "custom:event": "Emits TokenConfigAdded event on successfully setting of the token config",
        "params": {
          "tokenConfig": "Token config struct"
        }
      },
      "setTokenConfigs((address,address,uint24,uint32,address,address,address)[])": {
        "custom:access": "Only Governance",
        "custom:error": "Zero length error thrown, if length of the array in parameter is 0",
        "params": {
          "tokenConfigs_": "config array"
        }
      },
      "transferOwnership(address)": {
        "details": "Starts the ownership transfer of the contract to a new account. Replaces the pending transfer if there is one. Can only be called by the current owner."
      }
    },
    "stateVariables": {
      "MIN_TWAP_WINDOW": {
        "details": "The minimum length of the TWAP window."
      },
      "RESILIENT_ORACLE": {
        "custom:oz-upgrades-unsafe-allow": "state-variable-immutable"
      }
    },
    "title": "UniswapV3Oracle",
    "version": 1
  },
  "userdoc": {
    "errors": {
      "InvalidDuration()": [
        {
          "notice": "Thrown if the duration is invalid"
        }
      ],
      "InvalidTokenAddress()": [
        {
          "notice": "Thrown if the token address is invalid"
        }
      ],
      "PriceOracle_InvalidConfiguration()": [
        {
          "notice": "The configuration parameters for the PriceOracle are invalid."
        }
      ],
      "PriceOracle_Overflow()": [
        {
          "notice": "The quote cannot be completed due to overflow."
        }
      ],
      "Unauthorized(address,address,string)": [
        {
          "notice": "Thrown when the action is prohibited by AccessControlManager"
        }
      ]
    },
    "events": {
      "NewAccessControlManager(address,address)": {
        "notice": "Emitted when access control manager contract address is changed"
      },
      "PricePosted(address,uint256,uint256)": {
        "notice": "Emit when a price is manually set"
      },
      "TokenConfigAdded(address,address,address,address,uint24,uint32,address)": {
        "notice": "Emit when a token config is added"
      }
    },
    "kind": "user",
    "methods": {
      "NATIVE_TOKEN_ADDR()": {
        "notice": "Set this as asset address for native token on each chain. This is the underlying address for vETH on ETH chain or an underlying asset for a native market on any chain."
      },
      "RESILIENT_ORACLE()": {
        "notice": "Address of Resilient Oracle"
      },
      "accessControlManager()": {
        "notice": "Returns the address of the access control manager contract"
      },
      "constructor": {
        "notice": "Constructor for the implementation contract."
      },
      "getPrice(address)": {
        "notice": "Fetches the price of the correlated token"
      },
      "initialize(address)": {
        "notice": "Initializes the owner of the contract"
      },
      "prices(address)": {
        "notice": "Manually set an override price, useful under extenuating conditions such as price feed failure"
      },
      "setAccessControlManager(address)": {
        "notice": "Sets the address of AccessControlManager"
      },
      "setTokenConfig((address,address,uint24,uint32,address,address,address))": {
        "notice": "Add single token config. asset & feed cannot be null addresses and maxStalePeriod must be positive"
      },
      "setTokenConfigs((address,address,uint24,uint32,address,address,address)[])": {
        "notice": "Add multiple token configs at the same time"
      },
      "tokenConfigs(address)": {
        "notice": "Token config by assets"
      },
      "uniswapV3Factory()": {
        "notice": "Address of Uniswap V3 Factory"
      }
    },
    "notice": "Adapter for Uniswap V3's TWAP oracle. WARNING: READ THIS BEFORE DEPLOYING Do not use Uniswap V3 as an oracle unless you understand its security implications. Instead, consider using another provider as a primary price source. Under PoS a validator may be chosen to propose consecutive blocks, allowing risk-free multi-block manipulation. The cardinality of the observation buffer must be grown sufficiently to accommodate for the chosen TWAP window. The observation buffer must contain enough observations to accommodate for the chosen TWAP window. The chosen pool must have enough total liquidity and some full-range liquidity to resist manipulation. The chosen pool must have had sufficient liquidity when past observations were recorded in the buffer. Networks with short block times are highly susceptible to TWAP manipulation due to the reduced attack cost.",
    "version": 1
  },
  "storageLayout": {
    "storage": [
      {
        "astId": 246,
        "contract": "contracts/Oracle/UniswapV3Oracle.sol:UniswapV3Oracle",
        "label": "_initialized",
        "offset": 0,
        "slot": "0",
        "type": "t_uint8"
      },
      {
        "astId": 249,
        "contract": "contracts/Oracle/UniswapV3Oracle.sol:UniswapV3Oracle",
        "label": "_initializing",
        "offset": 1,
        "slot": "0",
        "type": "t_bool"
      },
      {
        "astId": 788,
        "contract": "contracts/Oracle/UniswapV3Oracle.sol:UniswapV3Oracle",
        "label": "__gap",
        "offset": 0,
        "slot": "1",
        "type": "t_array(t_uint256)50_storage"
      },
      {
        "astId": 118,
        "contract": "contracts/Oracle/UniswapV3Oracle.sol:UniswapV3Oracle",
        "label": "_owner",
        "offset": 0,
        "slot": "51",
        "type": "t_address"
      },
      {
        "astId": 238,
        "contract": "contracts/Oracle/UniswapV3Oracle.sol:UniswapV3Oracle",
        "label": "__gap",
        "offset": 0,
        "slot": "52",
        "type": "t_array(t_uint256)49_storage"
      },
      {
        "astId": 11,
        "contract": "contracts/Oracle/UniswapV3Oracle.sol:UniswapV3Oracle",
        "label": "_pendingOwner",
        "offset": 0,
        "slot": "101",
        "type": "t_address"
      },
      {
        "astId": 105,
        "contract": "contracts/Oracle/UniswapV3Oracle.sol:UniswapV3Oracle",
        "label": "__gap",
        "offset": 0,
        "slot": "102",
        "type": "t_array(t_uint256)49_storage"
      },
      {
        "astId": 2884,
        "contract": "contracts/Oracle/UniswapV3Oracle.sol:UniswapV3Oracle",
        "label": "_accessControlManager",
        "offset": 0,
        "slot": "151",
        "type": "t_contract(IAccessControlManagerV8)3069"
      },
      {
        "astId": 2889,
        "contract": "contracts/Oracle/UniswapV3Oracle.sol:UniswapV3Oracle",
        "label": "__gap",
        "offset": 0,
        "slot": "152",
        "type": "t_array(t_uint256)49_storage"
      },
      {
        "astId": 3255,
        "contract": "contracts/Oracle/UniswapV3Oracle.sol:UniswapV3Oracle",
        "label": "prices",
        "offset": 0,
        "slot": "201",
        "type": "t_mapping(t_address,t_uint256)"
      },
      {
        "astId": 3261,
        "contract": "contracts/Oracle/UniswapV3Oracle.sol:UniswapV3Oracle",
        "label": "tokenConfigs",
        "offset": 0,
        "slot": "202",
        "type": "t_mapping(t_address,t_struct(TokenConfig)3235_storage)"
      }
    ],
    "types": {
      "t_address": {
        "encoding": "inplace",
        "label": "address",
        "numberOfBytes": "20"
      },
      "t_array(t_uint256)49_storage": {
        "base": "t_uint256",
        "encoding": "inplace",
        "label": "uint256[49]",
        "numberOfBytes": "1568"
      },
      "t_array(t_uint256)50_storage": {
        "base": "t_uint256",
        "encoding": "inplace",
        "label": "uint256[50]",
        "numberOfBytes": "1600"
      },
      "t_bool": {
        "encoding": "inplace",
        "label": "bool",
        "numberOfBytes": "1"
      },
      "t_contract(IAccessControlManagerV8)3069": {
        "encoding": "inplace",
        "label": "contract IAccessControlManagerV8",
        "numberOfBytes": "20"
      },
      "t_mapping(t_address,t_struct(TokenConfig)3235_storage)": {
        "encoding": "mapping",
        "key": "t_address",
        "label": "mapping(address => struct UniswapV3Oracle.TokenConfig)",
        "numberOfBytes": "32",
        "value": "t_struct(TokenConfig)3235_storage"
      },
      "t_mapping(t_address,t_uint256)": {
        "encoding": "mapping",
        "key": "t_address",
        "label": "mapping(address => uint256)",
        "numberOfBytes": "32",
        "value": "t_uint256"
      },
      "t_struct(TokenConfig)3235_storage": {
        "encoding": "inplace",
        "label": "struct UniswapV3Oracle.TokenConfig",
        "members": [
          {
            "astId": 3216,
            "contract": "contracts/Oracle/UniswapV3Oracle.sol:UniswapV3Oracle",
            "label": "tokenA",
            "offset": 0,
            "slot": "0",
            "type": "t_address"
          },
          {
            "astId": 3219,
            "contract": "contracts/Oracle/UniswapV3Oracle.sol:UniswapV3Oracle",
            "label": "tokenB",
            "offset": 0,
            "slot": "1",
            "type": "t_address"
          },
          {
            "astId": 3222,
            "contract": "contracts/Oracle/UniswapV3Oracle.sol:UniswapV3Oracle",
            "label": "fee",
            "offset": 20,
            "slot": "1",
            "type": "t_uint24"
          },
          {
            "astId": 3225,
            "contract": "contracts/Oracle/UniswapV3Oracle.sol:UniswapV3Oracle",
            "label": "twapWindow",
            "offset": 23,
            "slot": "1",
            "type": "t_uint32"
          },
          {
            "astId": 3228,
            "contract": "contracts/Oracle/UniswapV3Oracle.sol:UniswapV3Oracle",
            "label": "baseToken",
            "offset": 0,
            "slot": "2",
            "type": "t_address"
          },
          {
            "astId": 3231,
            "contract": "contracts/Oracle/UniswapV3Oracle.sol:UniswapV3Oracle",
            "label": "quoteToken",
            "offset": 0,
            "slot": "3",
            "type": "t_address"
          },
          {
            "astId": 3234,
            "contract": "contracts/Oracle/UniswapV3Oracle.sol:UniswapV3Oracle",
            "label": "pool",
            "offset": 0,
            "slot": "4",
            "type": "t_address"
          }
        ],
        "numberOfBytes": "160"
      },
      "t_uint24": {
        "encoding": "inplace",
        "label": "uint24",
        "numberOfBytes": "3"
      },
      "t_uint256": {
        "encoding": "inplace",
        "label": "uint256",
        "numberOfBytes": "32"
      },
      "t_uint32": {
        "encoding": "inplace",
        "label": "uint32",
        "numberOfBytes": "4"
      },
      "t_uint8": {
        "encoding": "inplace",
        "label": "uint8",
        "numberOfBytes": "1"
      }
    }
  }
}