{
  "address": "0xb4A466Ce600eBBef2A400202Cf442e1Bb8044c23",
  "abi": [
    {
      "inputs": [
        {
          "internalType": "address",
          "name": "_wOS",
          "type": "address"
        },
        {
          "internalType": "address",
          "name": "_wS",
          "type": "address"
        },
        {
          "internalType": "address",
          "name": "_resilientOracle",
          "type": "address"
        }
      ],
      "stateMutability": "nonpayable",
      "type": "constructor"
    },
    {
      "inputs": [],
      "name": "InvalidTokenAddress",
      "type": "error"
    },
    {
      "inputs": [],
      "name": "ZeroAddressNotAllowed",
      "type": "error"
    },
    {
      "inputs": [],
      "name": "CORRELATED_TOKEN",
      "outputs": [
        {
          "internalType": "address",
          "name": "",
          "type": "address"
        }
      ],
      "stateMutability": "view",
      "type": "function"
    },
    {
      "inputs": [],
      "name": "RESILIENT_ORACLE",
      "outputs": [
        {
          "internalType": "contract OracleInterface",
          "name": "",
          "type": "address"
        }
      ],
      "stateMutability": "view",
      "type": "function"
    },
    {
      "inputs": [],
      "name": "UNDERLYING_TOKEN",
      "outputs": [
        {
          "internalType": "address",
          "name": "",
          "type": "address"
        }
      ],
      "stateMutability": "view",
      "type": "function"
    },
    {
      "inputs": [
        {
          "internalType": "address",
          "name": "asset",
          "type": "address"
        }
      ],
      "name": "getPrice",
      "outputs": [
        {
          "internalType": "uint256",
          "name": "",
          "type": "uint256"
        }
      ],
      "stateMutability": "view",
      "type": "function"
    },
    {
      "inputs": [],
      "name": "wOS",
      "outputs": [
        {
          "internalType": "contract IwOS",
          "name": "",
          "type": "address"
        }
      ],
      "stateMutability": "view",
      "type": "function"
    }
  ],
  "transactionHash": "0x4324154efc87db295dfedb65f1f41647770349ab41e723e580fd871750f07b1a",
  "args": [
    "0x9F0dF7799f6FDAd409300080cfF680f5A23df4b1",
    "0x039e2fB66102314Ce7b64Ce5Ce3E5183bc94aD38",
    "0xd05b05590609c3610161e60eb41eC317c7562408"
  ],
  "numDeployments": 1,
  "solcInputHash": "ef2b52c1fb34630421704d62caf7c54c",
  "bytecode": "0x61010060405234801561001157600080fd5b506040516106e53803806106e5833981016040819052610030916100d1565b82828261003c8361008b565b6100458261008b565b61004e8161008b565b6001600160a01b0392831660805290821660a0521660c05261006f8361008b565b6100788261008b565b50506001600160a01b031660e052610114565b6001600160a01b0381166100b2576040516342bcdf7f60e11b815260040160405180910390fd5b50565b80516001600160a01b03811681146100cc57600080fd5b919050565b6000806000606084860312156100e657600080fd5b6100ef846100b5565b92506100fd602085016100b5565b915061010b604085016100b5565b90509250925092565b60805160a05160c05160e05161057861016d60003960008181610114015261031d01526000818160ed01526101d9015260008181606101526101ab01526000818160c60152818161013a015261024a01526105786000f3fe608060405234801561001057600080fd5b50600436106100575760003560e01c806329db1be61461005c57806341976e09146100a057806369818a35146100c1578063a4edcd4c146100e8578063e4ff1c841461010f575b600080fd5b6100837f000000000000000000000000000000000000000000000000000000000000000081565b6040516001600160a01b0390911681526020015b60405180910390f35b6100b36100ae366004610395565b610136565b604051908152602001610097565b6100837f000000000000000000000000000000000000000000000000000000000000000081565b6100837f000000000000000000000000000000000000000000000000000000000000000081565b6100837f000000000000000000000000000000000000000000000000000000000000000081565b60007f00000000000000000000000000000000000000000000000000000000000000006001600160a01b0316826001600160a01b03161461018a57604051630f58058360e11b815260040160405180910390fd5b60006101946102fd565b6040516341976e0960e01b81526001600160a01b037f0000000000000000000000000000000000000000000000000000000000000000811660048301529192506000917f000000000000000000000000000000000000000000000000000000000000000016906341976e0990602401602060405180830381865afa158015610220573d6000803e3d6000fd5b505050506040513d601f19601f8201168201806040525081019061024491906103c5565b905060007f000000000000000000000000000000000000000000000000000000000000000090506000816001600160a01b031663313ce5676040518163ffffffff1660e01b8152600401602060405180830381865afa1580156102ab573d6000803e3d6000fd5b505050506040513d601f19601f820116820180604052508101906102cf91906103de565b60ff1690506102df81600a6104fd565b6102e98486610509565b6102f39190610520565b9695505050505050565b6040516303d1689d60e11b8152670de0b6b3a764000060048201526000907f00000000000000000000000000000000000000000000000000000000000000006001600160a01b0316906307a2d13a90602401602060405180830381865afa15801561036c573d6000803e3d6000fd5b505050506040513d601f19601f8201168201806040525081019061039091906103c5565b905090565b6000602082840312156103a757600080fd5b81356001600160a01b03811681146103be57600080fd5b9392505050565b6000602082840312156103d757600080fd5b5051919050565b6000602082840312156103f057600080fd5b815160ff811681146103be57600080fd5b634e487b7160e01b600052601160045260246000fd5b600181815b8085111561045257816000190482111561043857610438610401565b8085161561044557918102915b93841c939080029061041c565b509250929050565b600082610469575060016104f7565b81610476575060006104f7565b816001811461048c5760028114610496576104b2565b60019150506104f7565b60ff8411156104a7576104a7610401565b50506001821b6104f7565b5060208310610133831016604e8410600b84101617156104d5575081810a6104f7565b6104df8383610417565b80600019048211156104f3576104f3610401565b0290505b92915050565b60006103be838361045a565b80820281158282048414176104f7576104f7610401565b60008261053d57634e487b7160e01b600052601260045260246000fd5b50049056fea2646970667358221220e2e81ba714da18a2545196876f047aed09a1040bc09b19575b925fd61a73429864736f6c63430008190033",
  "devdoc": {
    "author": "Enclabs",
    "kind": "dev",
    "methods": {
      "constructor": {
        "custom:oz-upgrades-unsafe-allow": "constructor"
      },
      "getPrice(address)": {
        "params": {
          "asset": "Address of the correlated token"
        },
        "returns": {
          "_0": "price The price of the correlated token in scaled decimal places"
        }
      }
    },
    "stateVariables": {
      "wOS": {
        "custom:oz-upgrades-unsafe-allow": "state-variable-immutable"
      }
    },
    "title": "WOSOracle",
    "version": 1
  },
  "userdoc": {
    "errors": {
      "InvalidTokenAddress()": [
        {
          "notice": "Thrown if the token address is invalid"
        }
      ],
      "ZeroAddressNotAllowed()": [
        {
          "notice": "Thrown if the supplied address is a zero address where it is not allowed"
        }
      ]
    },
    "kind": "user",
    "methods": {
      "CORRELATED_TOKEN()": {
        "notice": "Address of the correlated token"
      },
      "RESILIENT_ORACLE()": {
        "notice": "Address of Resilient Oracle"
      },
      "UNDERLYING_TOKEN()": {
        "notice": "Address of the underlying token"
      },
      "constructor": {
        "notice": "Constructor for the implementation contract."
      },
      "getPrice(address)": {
        "notice": "Fetches the price of the correlated token"
      },
      "wOS()": {
        "notice": "Address of wOS contract"
      }
    },
    "notice": "This oracle fetches the price of wOS. Using 1:1 OS/S",
    "version": 1
  },
  "storageLayout": {
    "storage": [],
    "types": null
  }
}